{
  "address": "0x9fE46736679d2D9a65F0992F2272dE9f3c7fa6e0",
  "abi": [
    {
      "inputs": [
        {
          "internalType": "address",
          "name": "_oracle",
          "type": "address"
        },
        {
          "internalType": "address",
          "name": "_linkToken",
          "type": "address"
        },
        {
          "internalType": "bytes32",
          "name": "_jobId",
          "type": "bytes32"
        },
        {
          "internalType": "uint256",
          "name": "_fee",
          "type": "uint256"
        }
      ],
      "stateMutability": "nonpayable",
      "type": "constructor"
    },
    {
      "inputs": [
        {
          "internalType": "string",
          "name": "reason",
          "type": "string"
        }
      ],
      "name": "InvalidSpec",
      "type": "error"
    },
    {
      "anonymous": false,
      "inputs": [
        {
          "indexed": true,
          "internalType": "address",
          "name": "owner",
          "type": "address"
        },
        {
          "indexed": true,
          "internalType": "address",
          "name": "approved",
          "type": "address"
        },
        {
          "indexed": true,
          "internalType": "uint256",
          "name": "tokenId",
          "type": "uint256"
        }
      ],
      "name": "Approval",
      "type": "event"
    },
    {
      "anonymous": false,
      "inputs": [
        {
          "indexed": true,
          "internalType": "address",
          "name": "owner",
          "type": "address"
        },
        {
          "indexed": true,
          "internalType": "address",
          "name": "operator",
          "type": "address"
        },
        {
          "indexed": false,
          "internalType": "bool",
          "name": "approved",
          "type": "bool"
        }
      ],
      "name": "ApprovalForAll",
      "type": "event"
    },
    {
      "anonymous": false,
      "inputs": [
        {
          "indexed": true,
          "internalType": "bytes32",
          "name": "id",
          "type": "bytes32"
        }
      ],
      "name": "ChainlinkCancelled",
      "type": "event"
    },
    {
      "anonymous": false,
      "inputs": [
        {
          "indexed": true,
          "internalType": "bytes32",
          "name": "id",
          "type": "bytes32"
        }
      ],
      "name": "ChainlinkFulfilled",
      "type": "event"
    },
    {
      "anonymous": false,
      "inputs": [
        {
          "indexed": true,
          "internalType": "bytes32",
          "name": "id",
          "type": "bytes32"
        }
      ],
      "name": "ChainlinkRequested",
      "type": "event"
    },
    {
      "anonymous": false,
      "inputs": [
        {
          "indexed": false,
          "internalType": "address",
          "name": "_to",
          "type": "address"
        },
        {
          "indexed": false,
          "internalType": "uint256",
          "name": "_tokenId",
          "type": "uint256"
        },
        {
          "indexed": false,
          "internalType": "string",
          "name": "_uri",
          "type": "string"
        }
      ],
      "name": "TokenMint",
      "type": "event"
    },
    {
      "anonymous": false,
      "inputs": [
        {
          "indexed": true,
          "internalType": "address",
          "name": "from",
          "type": "address"
        },
        {
          "indexed": true,
          "internalType": "address",
          "name": "to",
          "type": "address"
        },
        {
          "indexed": true,
          "internalType": "uint256",
          "name": "tokenId",
          "type": "uint256"
        }
      ],
      "name": "Transfer",
      "type": "event"
    },
    {
      "anonymous": false,
      "inputs": [
        {
          "indexed": false,
          "internalType": "address",
          "name": "requester",
          "type": "address"
        },
        {
          "indexed": false,
          "internalType": "bytes32",
          "name": "domainHash",
          "type": "bytes32"
        },
        {
          "indexed": false,
          "internalType": "bool",
          "name": "result",
          "type": "bool"
        }
      ],
      "name": "VerificationPerformed",
      "type": "event"
    },
    {
      "anonymous": false,
      "inputs": [
        {
          "indexed": false,
          "internalType": "address",
          "name": "requester",
          "type": "address"
        },
        {
          "indexed": false,
          "internalType": "string",
          "name": "domain",
          "type": "string"
        },
        {
          "indexed": false,
          "internalType": "string",
          "name": "proofBody",
          "type": "string"
        }
      ],
      "name": "VerificationRequested",
      "type": "event"
    },
    {
      "inputs": [
        {
          "internalType": "string",
          "name": "url",
          "type": "string"
        }
      ],
      "name": "_extractDomain",
      "outputs": [
        {
          "internalType": "string",
          "name": "",
          "type": "string"
        }
      ],
      "stateMutability": "pure",
      "type": "function"
    },
    {
      "inputs": [
        {
          "internalType": "string",
          "name": "domain",
          "type": "string"
        }
      ],
      "name": "_validateDomain",
      "outputs": [
        {
          "internalType": "bool",
          "name": "",
          "type": "bool"
        }
      ],
      "stateMutability": "view",
      "type": "function"
    },
    {
      "inputs": [
        {
          "internalType": "address",
          "name": "to",
          "type": "address"
        },
        {
          "internalType": "uint256",
          "name": "tokenId",
          "type": "uint256"
        }
      ],
      "name": "approve",
      "outputs": [],
      "stateMutability": "nonpayable",
      "type": "function"
    },
    {
      "inputs": [
        {
          "internalType": "address",
          "name": "owner",
          "type": "address"
        }
      ],
      "name": "balanceOf",
      "outputs": [
        {
          "internalType": "uint256",
          "name": "",
          "type": "uint256"
        }
      ],
      "stateMutability": "view",
      "type": "function"
    },
    {
      "inputs": [],
      "name": "forgetMe",
      "outputs": [],
      "stateMutability": "nonpayable",
      "type": "function"
    },
    {
      "inputs": [
        {
          "internalType": "string",
          "name": "imageURI",
          "type": "string"
        }
      ],
      "name": "formatTokenURI",
      "outputs": [
        {
          "internalType": "string",
          "name": "",
          "type": "string"
        }
      ],
      "stateMutability": "pure",
      "type": "function"
    },
    {
      "inputs": [
        {
          "internalType": "bytes32",
          "name": "_requestId",
          "type": "bytes32"
        },
        {
          "internalType": "bool",
          "name": "_proof",
          "type": "bool"
        }
      ],
      "name": "fulfill",
      "outputs": [],
      "stateMutability": "nonpayable",
      "type": "function"
    },
    {
      "inputs": [
        {
          "internalType": "uint256",
          "name": "tokenId",
          "type": "uint256"
        }
      ],
      "name": "getApproved",
      "outputs": [
        {
          "internalType": "address",
          "name": "",
          "type": "address"
        }
      ],
      "stateMutability": "view",
      "type": "function"
    },
    {
      "inputs": [
        {
          "internalType": "string",
          "name": "domain",
          "type": "string"
        }
      ],
      "name": "getDomainHash",
      "outputs": [
        {
          "internalType": "bytes32",
          "name": "",
          "type": "bytes32"
        }
      ],
      "stateMutability": "pure",
      "type": "function"
    },
    {
      "inputs": [
        {
          "internalType": "string",
          "name": "url",
          "type": "string"
        }
      ],
      "name": "isAddressApprovedForUrl",
      "outputs": [
        {
          "internalType": "bool",
          "name": "",
          "type": "bool"
        }
      ],
      "stateMutability": "view",
      "type": "function"
    },
    {
      "inputs": [
        {
          "internalType": "address",
          "name": "owner",
          "type": "address"
        },
        {
          "internalType": "address",
          "name": "operator",
          "type": "address"
        }
      ],
      "name": "isApprovedForAll",
      "outputs": [
        {
          "internalType": "bool",
          "name": "",
          "type": "bool"
        }
      ],
      "stateMutability": "view",
      "type": "function"
    },
    {
      "inputs": [
        {
          "internalType": "string",
          "name": "url",
          "type": "string"
        }
      ],
      "name": "mint",
      "outputs": [
        {
          "internalType": "uint256",
          "name": "",
          "type": "uint256"
        }
      ],
      "stateMutability": "nonpayable",
      "type": "function"
    },
    {
      "inputs": [],
      "name": "name",
      "outputs": [
        {
          "internalType": "string",
          "name": "",
          "type": "string"
        }
      ],
      "stateMutability": "view",
      "type": "function"
    },
    {
      "inputs": [
        {
          "internalType": "uint256",
          "name": "tokenId",
          "type": "uint256"
        }
      ],
      "name": "ownerOf",
      "outputs": [
        {
          "internalType": "address",
          "name": "",
          "type": "address"
        }
      ],
      "stateMutability": "view",
      "type": "function"
    },
    {
      "inputs": [
        {
          "internalType": "address",
          "name": "requester",
          "type": "address"
        }
      ],
      "name": "requestProofBody",
      "outputs": [
        {
          "internalType": "string",
          "name": "",
          "type": "string"
        }
      ],
      "stateMutability": "pure",
      "type": "function"
    },
    {
      "inputs": [
        {
          "internalType": "string",
          "name": "_domain",
          "type": "string"
        }
      ],
      "name": "requestProofVerification",
      "outputs": [
        {
          "internalType": "bytes32",
          "name": "requestId",
          "type": "bytes32"
        }
      ],
      "stateMutability": "nonpayable",
      "type": "function"
    },
    {
      "inputs": [
        {
          "internalType": "address",
          "name": "from",
          "type": "address"
        },
        {
          "internalType": "address",
          "name": "to",
          "type": "address"
        },
        {
          "internalType": "uint256",
          "name": "tokenId",
          "type": "uint256"
        }
      ],
      "name": "safeTransferFrom",
      "outputs": [],
      "stateMutability": "nonpayable",
      "type": "function"
    },
    {
      "inputs": [
        {
          "internalType": "address",
          "name": "from",
          "type": "address"
        },
        {
          "internalType": "address",
          "name": "to",
          "type": "address"
        },
        {
          "internalType": "uint256",
          "name": "tokenId",
          "type": "uint256"
        },
        {
          "internalType": "bytes",
          "name": "_data",
          "type": "bytes"
        }
      ],
      "name": "safeTransferFrom",
      "outputs": [],
      "stateMutability": "nonpayable",
      "type": "function"
    },
    {
      "inputs": [
        {
          "internalType": "address",
          "name": "operator",
          "type": "address"
        },
        {
          "internalType": "bool",
          "name": "approved",
          "type": "bool"
        }
      ],
      "name": "setApprovalForAll",
      "outputs": [],
      "stateMutability": "nonpayable",
      "type": "function"
    },
    {
      "inputs": [
        {
          "internalType": "bytes4",
          "name": "interfaceId",
          "type": "bytes4"
        }
      ],
      "name": "supportsInterface",
      "outputs": [
        {
          "internalType": "bool",
          "name": "",
          "type": "bool"
        }
      ],
      "stateMutability": "view",
      "type": "function"
    },
    {
      "inputs": [],
      "name": "symbol",
      "outputs": [
        {
          "internalType": "string",
          "name": "",
          "type": "string"
        }
      ],
      "stateMutability": "view",
      "type": "function"
    },
    {
      "inputs": [],
      "name": "tokenCounter",
      "outputs": [
        {
          "internalType": "uint256",
          "name": "",
          "type": "uint256"
        }
      ],
      "stateMutability": "view",
      "type": "function"
    },
    {
      "inputs": [
        {
          "internalType": "uint256",
          "name": "tokenId",
          "type": "uint256"
        }
      ],
      "name": "tokenURI",
      "outputs": [
        {
          "internalType": "string",
          "name": "",
          "type": "string"
        }
      ],
      "stateMutability": "view",
      "type": "function"
    },
    {
      "inputs": [
        {
          "internalType": "address",
          "name": "from",
          "type": "address"
        },
        {
          "internalType": "address",
          "name": "to",
          "type": "address"
        },
        {
          "internalType": "uint256",
          "name": "tokenId",
          "type": "uint256"
        }
      ],
      "name": "transferFrom",
      "outputs": [],
      "stateMutability": "nonpayable",
      "type": "function"
    },
    {
      "inputs": [
        {
          "internalType": "address",
          "name": "",
          "type": "address"
        },
        {
          "internalType": "uint256",
          "name": "",
          "type": "uint256"
        }
      ],
      "name": "verifiedDomains",
      "outputs": [
        {
          "internalType": "bytes32",
          "name": "",
          "type": "bytes32"
        }
      ],
      "stateMutability": "view",
      "type": "function"
    }
  ],
  "transactionHash": "0xae28eded0c1f0d2569783b29c08f767a054a2ce2c1c95a40a2966070ef4723d3",
  "args": [
    "0xe7f1725E7734CE288F8367e1Bb143E90bb3F0512",
    "0x5FbDB2315678afecb367f032d93F642f64180aa3",
    {
      "0": 48,
      "1": 48,
      "2": 48,
      "3": 48,
      "4": 48,
      "5": 48,
      "6": 48,
      "7": 48,
      "8": 48,
      "9": 48,
      "10": 48,
      "11": 48,
      "12": 48,
      "13": 48,
      "14": 48,
      "15": 48,
      "16": 48,
      "17": 48,
      "18": 48,
      "19": 48,
      "20": 48,
      "21": 48,
      "22": 48,
      "23": 48,
      "24": 48,
      "25": 48,
      "26": 48,
      "27": 48,
      "28": 48,
      "29": 48,
      "30": 48,
      "31": 48
    },
    "100000000000000000"
  ],
  "numDeployments": 1,
  "solcInputHash": "e9b9edce87fcb9038c5717d542a99ab3",
  "bytecode": "0x608060405260016004553480156200001657600080fd5b50604051620059c0380380620059c083398181016040528101906200003c9190620003ae565b6040518060400160405280600881526020017f50756c69747a65720000000000000000000000000000000000000000000000008152506040518060400160405280600381526020017f50554c00000000000000000000000000000000000000000000000000000000008152508160069080519060200190620000c092919062000287565b508060079080519060200190620000d992919062000287565b5050506000601281905550600073ffffffffffffffffffffffffffffffffffffffff168373ffffffffffffffffffffffffffffffffffffffff16141562000130576200012a6200019b60201b60201c565b62000142565b62000141836200024360201b60201c565b5b83600f60006101000a81548173ffffffffffffffffffffffffffffffffffffffff021916908373ffffffffffffffffffffffffffffffffffffffff16021790555081601081905550806011819055505050505062000520565b6200024173c89bd4e1632d3a43cb03aaad5262cbe4038bc57173ffffffffffffffffffffffffffffffffffffffff166338cc48316040518163ffffffff1660e01b815260040160206040518083038186803b158015620001fa57600080fd5b505afa1580156200020f573d6000803e3d6000fd5b505050506040513d601f19601f820116820180604052508101906200023591906200037c565b6200024360201b60201c565b565b80600260006101000a81548173ffffffffffffffffffffffffffffffffffffffff021916908373ffffffffffffffffffffffffffffffffffffffff16021790555050565b828054620002959062000468565b90600052602060002090601f016020900481019282620002b9576000855562000305565b82601f10620002d457805160ff191683800117855562000305565b8280016001018555821562000305579182015b8281111562000304578251825591602001919060010190620002e7565b5b50905062000314919062000318565b5090565b5b808211156200033357600081600090555060010162000319565b5090565b6000815190506200034881620004d2565b92915050565b6000815190506200035f81620004ec565b92915050565b600081519050620003768162000506565b92915050565b600060208284031215620003955762000394620004cd565b5b6000620003a58482850162000337565b91505092915050565b60008060008060808587031215620003cb57620003ca620004cd565b5b6000620003db8782880162000337565b9450506020620003ee8782880162000337565b935050604062000401878288016200034e565b9250506060620004148782880162000365565b91505092959194509250565b60006200042d826200043e565b9050919050565b6000819050919050565b600073ffffffffffffffffffffffffffffffffffffffff82169050919050565b6000819050919050565b600060028204905060018216806200048157607f821691505b602082108114156200049857620004976200049e565b5b50919050565b7f4e487b7100000000000000000000000000000000000000000000000000000000600052602260045260246000fd5b600080fd5b620004dd8162000420565b8114620004e957600080fd5b50565b620004f78162000434565b81146200050357600080fd5b50565b62000511816200045e565b81146200051d57600080fd5b50565b61549080620005306000396000f3fe608060405234801561001057600080fd5b50600436106101735760003560e01c806371aee193116100de578063b88d4fde11610097578063d85d3d2711610071578063d85d3d27146104a8578063ddd8cc2c146104d8578063e985e9c514610508578063fd68990a1461053857610173565b8063b88d4fde1461043e578063c87b56dd1461045a578063d082e3811461048a57610173565b806371aee193146103445780638841a241146103745780639116dcda146103a457806395d89b41146103d4578063a22cb465146103f2578063b1afdbdf1461040e57610173565b806323b872dd1161013057806323b872dd1461024c5780633d7b58bb1461026857806342842e0e146102985780634831f32d146102b45780636352211e146102e457806370a082311461031457610173565b806301ffc9a71461017857806306fdde03146101a857806307b5c385146101c6578063081812fc146101f6578063095ea7b31461022657806309b6ce3414610242575b600080fd5b610192600480360381019061018d9190613b56565b610554565b60405161019f9190614369565b60405180910390f35b6101b0610636565b6040516101bd919061439f565b60405180910390f35b6101e060048036038101906101db9190613bb0565b6106c8565b6040516101ed9190614384565b60405180910390f35b610210600480360381019061020b9190613bf9565b6106f8565b60405161021d9190614185565b60405180910390f35b610240600480360381019061023b9190613aa9565b61077d565b005b61024a610895565b005b61026660048036038101906102619190613993565b6108e2565b005b610282600480360381019061027d9190613bb0565b610942565b60405161028f9190614369565b60405180910390f35b6102b260048036038101906102ad9190613993565b610954565b005b6102ce60048036038101906102c99190613bb0565b610974565b6040516102db9190614369565b60405180910390f35b6102fe60048036038101906102f99190613bf9565b610997565b60405161030b9190614185565b60405180910390f35b61032e60048036038101906103299190613926565b610a49565b60405161033b9190614661565b60405180910390f35b61035e60048036038101906103599190613bb0565b610b01565b60405161036b919061439f565b60405180910390f35b61038e60048036038101906103899190613bb0565b610b51565b60405161039b919061439f565b60405180910390f35b6103be60048036038101906103b99190613926565b610b63565b6040516103cb919061439f565b60405180910390f35b6103dc610e66565b6040516103e9919061439f565b60405180910390f35b61040c60048036038101906104079190613a69565b610ef8565b005b61042860048036038101906104239190613aa9565b610f0e565b6040516104359190614384565b60405180910390f35b610458600480360381019061045391906139e6565b610f3f565b005b610474600480360381019061046f9190613bf9565b610fa1565b604051610481919061439f565b60405180910390f35b6104926110f3565b60405161049f9190614661565b60405180910390f35b6104c260048036038101906104bd9190613bb0565b6110f9565b6040516104cf9190614661565b60405180910390f35b6104f260048036038101906104ed9190613bb0565b6111b0565b6040516104ff9190614384565b60405180910390f35b610522600480360381019061051d9190613953565b611497565b60405161052f9190614369565b60405180910390f35b610552600480360381019061054d9190613b16565b61152b565b005b60007f80ac58cd000000000000000000000000000000000000000000000000000000007bffffffffffffffffffffffffffffffffffffffffffffffffffffffff1916827bffffffffffffffffffffffffffffffffffffffffffffffffffffffff1916148061061f57507f5b5e139f000000000000000000000000000000000000000000000000000000007bffffffffffffffffffffffffffffffffffffffffffffffffffffffff1916827bffffffffffffffffffffffffffffffffffffffffffffffffffffffff1916145b8061062f575061062e826117fa565b5b9050919050565b60606006805461064590614ac2565b80601f016020809104026020016040519081016040528092919081815260200182805461067190614ac2565b80156106be5780601f10610693576101008083540402835291602001916106be565b820191906000526020600020905b8154815290600101906020018083116106a157829003601f168201915b5050505050905090565b6000816040516020016106db919061439f565b604051602081830303815290604052805190602001209050919050565b600061070382611864565b610742576040517f08c379a0000000000000000000000000000000000000000000000000000000008152600401610739906145c1565b60405180910390fd5b600a600083815260200190815260200160002060009054906101000a900473ffffffffffffffffffffffffffffffffffffffff169050919050565b600061078882610997565b90508073ffffffffffffffffffffffffffffffffffffffff168373ffffffffffffffffffffffffffffffffffffffff1614156107f9576040517f08c379a00000000000000000000000000000000000000000000000000000000081526004016107f090614601565b60405180910390fd5b8073ffffffffffffffffffffffffffffffffffffffff166108186118d0565b73ffffffffffffffffffffffffffffffffffffffff1614806108475750610846816108416118d0565b611497565b5b610886576040517f08c379a000000000000000000000000000000000000000000000000000000000815260040161087d906144e1565b60405180910390fd5b61089083836118d8565b505050565b600d60003373ffffffffffffffffffffffffffffffffffffffff1673ffffffffffffffffffffffffffffffffffffffff16815260200190815260200160002060006108e091906136d4565b565b6108f36108ed6118d0565b82611991565b610932576040517f08c379a000000000000000000000000000000000000000000000000000000000815260040161092990614621565b60405180910390fd5b61093d838383611a6f565b505050565b600061094d82611cd6565b9050919050565b61096f83838360405180602001604052806000815250610f3f565b505050565b600061099061098a61098584610b51565b6106c8565b33611df4565b9050919050565b6000806008600084815260200190815260200160002060009054906101000a900473ffffffffffffffffffffffffffffffffffffffff169050600073ffffffffffffffffffffffffffffffffffffffff168173ffffffffffffffffffffffffffffffffffffffff161415610a40576040517f08c379a0000000000000000000000000000000000000000000000000000000008152600401610a3790614541565b60405180910390fd5b80915050919050565b60008073ffffffffffffffffffffffffffffffffffffffff168273ffffffffffffffffffffffffffffffffffffffff161415610aba576040517f08c379a0000000000000000000000000000000000000000000000000000000008152600401610ab190614521565b60405180910390fd5b600960008373ffffffffffffffffffffffffffffffffffffffff1673ffffffffffffffffffffffffffffffffffffffff168152602001908152602001600020549050919050565b6060610b2b82604051602001610b179190614120565b604051602081830303815290604052611ed0565b604051602001610b3b9190614163565b6040516020818303038152906040529050919050565b6060610b5c82612034565b9050919050565b606060008273ffffffffffffffffffffffffffffffffffffffff1660001b905060006040518060400160405280601081526020017f303132333435363738396162636465660000000000000000000000000000000081525090506000602a67ffffffffffffffff811115610bda57610bd9614c89565b5b6040519080825280601f01601f191660200182016040528015610c0c5781602001600182028036833780820191505090505b5090507f300000000000000000000000000000000000000000000000000000000000000081600081518110610c4457610c43614c5a565b5b60200101907effffffffffffffffffffffffffffffffffffffffffffffffffffffffffffff1916908160001a9053507f780000000000000000000000000000000000000000000000000000000000000081600181518110610ca857610ca7614c5a565b5b60200101907effffffffffffffffffffffffffffffffffffffffffffffffffffffffffffff1916908160001a90535060005b6014811015610e5a5782600485600c84610cf49190614746565b60208110610d0557610d04614c5a565b5b1a60f81b7effffffffffffffffffffffffffffffffffffffffffffffffffffffffffffff1916901c60f81c60ff1681518110610d4457610d43614c5a565b5b602001015160f81c60f81b82600283610d5d919061493e565b6002610d699190614746565b81518110610d7a57610d79614c5a565b5b60200101907effffffffffffffffffffffffffffffffffffffffffffffffffffffffffffff1916908160001a90535082600f60f81b85600c84610dbd9190614746565b60208110610dce57610dcd614c5a565b5b1a60f81b1660f81c60ff1681518110610dea57610de9614c5a565b5b602001015160f81c60f81b82600283610e03919061493e565b6003610e0f9190614746565b81518110610e2057610e1f614c5a565b5b60200101907effffffffffffffffffffffffffffffffffffffffffffffffffffffffffffff1916908160001a905350806001019050610cda565b50809350505050919050565b606060078054610e7590614ac2565b80601f0160208091040260200160405190810160405280929190818152602001828054610ea190614ac2565b8015610eee5780601f10610ec357610100808354040283529160200191610eee565b820191906000526020600020905b815481529060010190602001808311610ed157829003601f168201915b5050505050905090565b610f0a610f036118d0565b83836121d6565b5050565b600d6020528160005260406000208181548110610f2a57600080fd5b90600052602060002001600091509150505481565b610f50610f4a6118d0565b83611991565b610f8f576040517f08c379a0000000000000000000000000000000000000000000000000000000008152600401610f8690614621565b60405180910390fd5b610f9b84848484612343565b50505050565b6060610fac82611864565b610feb576040517f08c379a0000000000000000000000000000000000000000000000000000000008152600401610fe2906145a1565b60405180910390fd5b6000600c6000848152602001908152602001600020805461100b90614ac2565b80601f016020809104026020016040519081016040528092919081815260200182805461103790614ac2565b80156110845780601f1061105957610100808354040283529160200191611084565b820191906000526020600020905b81548152906001019060200180831161106757829003601f168201915b50505050509050600061109561239f565b90506000815114156110ab5781925050506110ee565b6000825111156110e05780826040516020016110c89291906140fc565b604051602081830303815290604052925050506110ee565b6110e9846123b6565b925050505b919050565b60125481565b600061110482610974565b611143576040517f08c379a000000000000000000000000000000000000000000000000000000000815260040161113a90614561565b60405180910390fd5b60006012549050611154338261245d565b7f0ba9941cdcb2c0287940b5f6ab7e4f7c6752775fca32397f9c2083b2ccc03aa23382856040516111879392919061432b565b60405180910390a1601260008154809291906111a290614b25565b919050555080915050919050565b60006111bb82610942565b6111fa576040517f08c379a00000000000000000000000000000000000000000000000000000000081526004016111f190614501565b60405180910390fd5b6000611205836106c8565b90506112118133611df4565b15611251576040517f08c379a0000000000000000000000000000000000000000000000000000000008152600401611248906143c1565b60405180910390fd5b60006112676010543063fd68990a60e01b61247b565b90506112e86040518060400160405280600481526020017f74797065000000000000000000000000000000000000000000000000000000008152506040518060400160405280600381526020017f5458540000000000000000000000000000000000000000000000000000000000815250836124ac9092919063ffffffff16565b6113326040518060400160405280600481526020017f6e616d650000000000000000000000000000000000000000000000000000000081525085836124ac9092919063ffffffff16565b6113846040518060400160405280600681526020017f7265636f7264000000000000000000000000000000000000000000000000000081525061137433610b63565b836124ac9092919063ffffffff16565b60006113b5600f60009054906101000a900473ffffffffffffffffffffffffffffffffffffffff16836011546124df565b905060405180604001604052803373ffffffffffffffffffffffffffffffffffffffff16815260200184815250600e600083815260200190815260200160002060008201518160000160006101000a81548173ffffffffffffffffffffffffffffffffffffffff021916908373ffffffffffffffffffffffffffffffffffffffff160217905550602082015181600101559050507f2d704ba7fe0dd3ed1e983912865668cf7f26e752ae41102d378b3f76838c5acc338661147533610b63565b60405161148493929190614223565b60405180910390a1809350505050919050565b6000600b60008473ffffffffffffffffffffffffffffffffffffffff1673ffffffffffffffffffffffffffffffffffffffff16815260200190815260200160002060008373ffffffffffffffffffffffffffffffffffffffff1673ffffffffffffffffffffffffffffffffffffffff16815260200190815260200160002060009054906101000a900460ff16905092915050565b816005600082815260200190815260200160002060009054906101000a900473ffffffffffffffffffffffffffffffffffffffff1673ffffffffffffffffffffffffffffffffffffffff163373ffffffffffffffffffffffffffffffffffffffff16146115cd576040517f08c379a00000000000000000000000000000000000000000000000000000000081526004016115c490614641565b60405180910390fd5b6005600082815260200190815260200160002060006101000a81549073ffffffffffffffffffffffffffffffffffffffff0219169055807f7cc135e0cebb02c3480ae5d74d377283180a2601f8f644edf7987b009316c63a60405160405180910390a2811561176f576000600e60008581526020019081526020016000206040518060400160405290816000820160009054906101000a900473ffffffffffffffffffffffffffffffffffffffff1673ffffffffffffffffffffffffffffffffffffffff1673ffffffffffffffffffffffffffffffffffffffff1681526020016001820154815250509050600d6000826000015173ffffffffffffffffffffffffffffffffffffffff1673ffffffffffffffffffffffffffffffffffffffff168152602001908152602001600020816020015190806001815401808255809150506001900390600052602060002001600090919091909150557f1cde586e41a7124b5b326865fb52a05494a4c703975f8401f573287f5dab27038160000151826020015185604051611761939291906141ec565b60405180910390a1506117b0565b7f1cde586e41a7124b5b326865fb52a05494a4c703975f8401f573287f5dab270360008060001b60006040516117a7939291906141ec565b60405180910390a15b600e6000848152602001908152602001600020600080820160006101000a81549073ffffffffffffffffffffffffffffffffffffffff021916905560018201600090555050505050565b60007f01ffc9a7000000000000000000000000000000000000000000000000000000007bffffffffffffffffffffffffffffffffffffffffffffffffffffffff1916827bffffffffffffffffffffffffffffffffffffffffffffffffffffffff1916149050919050565b60008073ffffffffffffffffffffffffffffffffffffffff166008600084815260200190815260200160002060009054906101000a900473ffffffffffffffffffffffffffffffffffffffff1673ffffffffffffffffffffffffffffffffffffffff1614159050919050565b600033905090565b81600a600083815260200190815260200160002060006101000a81548173ffffffffffffffffffffffffffffffffffffffff021916908373ffffffffffffffffffffffffffffffffffffffff160217905550808273ffffffffffffffffffffffffffffffffffffffff1661194b83610997565b73ffffffffffffffffffffffffffffffffffffffff167f8c5be1e5ebec7d5bd14f71427d1e84f3dd0314c0f7b2291e5b200ac8c7c3b92560405160405180910390a45050565b600061199c82611864565b6119db576040517f08c379a00000000000000000000000000000000000000000000000000000000081526004016119d2906144c1565b60405180910390fd5b60006119e683610997565b90508073ffffffffffffffffffffffffffffffffffffffff168473ffffffffffffffffffffffffffffffffffffffff161480611a5557508373ffffffffffffffffffffffffffffffffffffffff16611a3d846106f8565b73ffffffffffffffffffffffffffffffffffffffff16145b80611a665750611a658185611497565b5b91505092915050565b8273ffffffffffffffffffffffffffffffffffffffff16611a8f82610997565b73ffffffffffffffffffffffffffffffffffffffff1614611ae5576040517f08c379a0000000000000000000000000000000000000000000000000000000008152600401611adc90614401565b60405180910390fd5b600073ffffffffffffffffffffffffffffffffffffffff168273ffffffffffffffffffffffffffffffffffffffff161415611b55576040517f08c379a0000000000000000000000000000000000000000000000000000000008152600401611b4c90614461565b60405180910390fd5b611b608383836125ab565b611b6b6000826118d8565b6001600960008573ffffffffffffffffffffffffffffffffffffffff1673ffffffffffffffffffffffffffffffffffffffff1681526020019081526020016000206000828254611bbb9190614998565b925050819055506001600960008473ffffffffffffffffffffffffffffffffffffffff1673ffffffffffffffffffffffffffffffffffffffff1681526020019081526020016000206000828254611c129190614746565b92505081905550816008600083815260200190815260200160002060006101000a81548173ffffffffffffffffffffffffffffffffffffffff021916908373ffffffffffffffffffffffffffffffffffffffff160217905550808273ffffffffffffffffffffffffffffffffffffffff168473ffffffffffffffffffffffffffffffffffffffff167fddf252ad1be2c89b69c2b068fc378daa952ba7f163c4a11628f55a4df523b3ef60405160405180910390a4611cd18383836125b0565b505050565b600080611ce2836125b5565b90506000611d36611d276040518060400160405280600181526020017f2f000000000000000000000000000000000000000000000000000000000000008152506125b5565b836125e390919063ffffffff16565b14611d6657611d5c6040518060600160405280602581526020016153cf6025913961268b565b6000915050611def565b6001611db8611da96040518060400160405280600181526020017f2e000000000000000000000000000000000000000000000000000000000000008152506125b5565b836125e390919063ffffffff16565b1115611de957611ddf6040518060600160405280602781526020016154346027913961268b565b6000915050611def565b60019150505b919050565b600080600090506000600d60008573ffffffffffffffffffffffffffffffffffffffff1673ffffffffffffffffffffffffffffffffffffffff16815260200190815260200160002080549050905060005b81811015611ec45785600d60008773ffffffffffffffffffffffffffffffffffffffff1673ffffffffffffffffffffffffffffffffffffffff1681526020019081526020016000208281548110611e9f57611e9e614c5a565b5b90600052602060002001541415611eb95760019250611ec4565b806001019050611e45565b50819250505092915050565b6060600082511415611ef35760405180602001604052806000815250905061202f565b60006040518060600160405280604081526020016153f46040913990506000600360028551611f229190614746565b611f2c919061479c565b6004611f38919061493e565b67ffffffffffffffff811115611f5157611f50614c89565b5b6040519080825280601f01601f191660200182016040528015611f835781602001600182028036833780820191505090505b509050600182016020820185865187015b80821015611fef576003820191508151603f8160121c168501518453600184019350603f81600c1c168501518453600184019350603f8160061c168501518453600184019350603f8116850151845360018401935050611f94565b505060038651066001811461200b576002811461201e57612026565b603d6001830353603d6002830353612026565b603d60018303535b50505080925050505b919050565b60606000612041836125b5565b905060006120836040518060400160405280600381526020017f3a2f2f00000000000000000000000000000000000000000000000000000000008152506125b5565b9050600161209a82846125e390919063ffffffff16565b146120da576040517faf64694e0000000000000000000000000000000000000000000000000000000081526004016120d1906144a1565b60405180910390fd5b6120e26136f5565b6120f78282856127249092919063ffffffff16565b5061214a6121396040518060400160405280600181526020017f2f000000000000000000000000000000000000000000000000000000000000008152506125b5565b82856127249092919063ffffffff16565b50600061218b6040518060400160405280600181526020017f2e000000000000000000000000000000000000000000000000000000000000008152506125b5565b90505b60016121a382846125e390919063ffffffff16565b11156121c2576121bc81836127ef90919063ffffffff16565b5061218e565b6121cb82612809565b945050505050919050565b8173ffffffffffffffffffffffffffffffffffffffff168373ffffffffffffffffffffffffffffffffffffffff161415612245576040517f08c379a000000000000000000000000000000000000000000000000000000000815260040161223c90614481565b60405180910390fd5b80600b60008573ffffffffffffffffffffffffffffffffffffffff1673ffffffffffffffffffffffffffffffffffffffff16815260200190815260200160002060008473ffffffffffffffffffffffffffffffffffffffff1673ffffffffffffffffffffffffffffffffffffffff16815260200190815260200160002060006101000a81548160ff0219169083151502179055508173ffffffffffffffffffffffffffffffffffffffff168373ffffffffffffffffffffffffffffffffffffffff167f17307eab39ab6107e8899845ad3d59bd9653f200f220920489ca2b5937696c31836040516123369190614369565b60405180910390a3505050565b61234e848484611a6f565b61235a84848484612885565b612399576040517f08c379a0000000000000000000000000000000000000000000000000000000008152600401612390906143e1565b60405180910390fd5b50505050565b606060405180602001604052806000815250905090565b60606123c182611864565b612400576040517f08c379a00000000000000000000000000000000000000000000000000000000081526004016123f7906145e1565b60405180910390fd5b600061240a61239f565b9050600081511161242a5760405180602001604052806000815250612455565b8061243484612a1c565b6040516020016124459291906140fc565b6040516020818303038152906040525b915050919050565b612477828260405180602001604052806000815250612b7d565b5050565b61248361370f565b61248b61370f565b6124a285858584612bd8909392919063ffffffff16565b9150509392505050565b6124c3828460800151612c8890919063ffffffff16565b6124da818460800151612c8890919063ffffffff16565b505050565b60008060045490506001816124f49190614746565b6004819055506000634042994660e01b60008087600001513089604001518760018c6080015160000151604051602401612535989796959493929190614268565b604051602081830303815290604052907bffffffffffffffffffffffffffffffffffffffffffffffffffffffff19166020820180517bffffffffffffffffffffffffffffffffffffffffffffffffffffffff838183161783525050505090506125a086838684612cad565b925050509392505050565b505050565b505050565b6125bd6136f5565b600060208301905060405180604001604052808451815260200182815250915050919050565b60008082600001516126078560000151866020015186600001518760200151612e51565b6126119190614746565b90505b836000015184602001516126289190614746565b811161268457818061263990614b25565b92505082600001516126738560200151836126549190614998565b86600001516126639190614998565b8386600001518760200151612e51565b61267d9190614746565b9050612614565b5092915050565b6127218160405160240161269f919061439f565b6040516020818303038152906040527f41304fac000000000000000000000000000000000000000000000000000000007bffffffffffffffffffffffffffffffffffffffffffffffffffffffff19166020820180517bffffffffffffffffffffffffffffffffffffffffffffffffffffffff8381831617835250505050612f9b565b50565b61272c6136f5565b600061274a8560000151866020015186600001518760200151612e51565b9050846020015183602001818152505084602001518161276a9190614998565b836000018181525050846000015185602001516127879190614746565b81141561279e5760008560000181815250506127e4565b836000015183600001516127b29190614746565b856000018181516127c39190614998565b915081815250508360000151816127da9190614746565b8560200181815250505b829150509392505050565b6127f76136f5565b612802838383612724565b5092915050565b60606000826000015167ffffffffffffffff81111561282b5761282a614c89565b5b6040519080825280601f01601f19166020018201604052801561285d5781602001600182028036833780820191505090505b509050600060208201905061287b8185602001518660000151612fc4565b8192505050919050565b60006128a68473ffffffffffffffffffffffffffffffffffffffff16613070565b15612a0f578373ffffffffffffffffffffffffffffffffffffffff1663150b7a026128cf6118d0565b8786866040518563ffffffff1660e01b81526004016128f194939291906141a0565b602060405180830381600087803b15801561290b57600080fd5b505af192505050801561293c57506040513d601f19601f820116820180604052508101906129399190613b83565b60015b6129bf573d806000811461296c576040519150601f19603f3d011682016040523d82523d6000602084013e612971565b606091505b506000815114156129b7576040517f08c379a00000000000000000000000000000000000000000000000000000000081526004016129ae906143e1565b60405180910390fd5b805181602001fd5b63150b7a0260e01b7bffffffffffffffffffffffffffffffffffffffffffffffffffffffff1916817bffffffffffffffffffffffffffffffffffffffffffffffffffffffff191614915050612a14565b600190505b949350505050565b60606000821415612a64576040518060400160405280600181526020017f30000000000000000000000000000000000000000000000000000000000000008152509050612b78565b600082905060005b60008214612a96578080612a7f90614b25565b915050600a82612a8f919061479c565b9150612a6c565b60008167ffffffffffffffff811115612ab257612ab1614c89565b5b6040519080825280601f01601f191660200182016040528015612ae45781602001600182028036833780820191505090505b5090505b60008514612b7157600182612afd9190614998565b9150600a85612b0c9190614b9c565b6030612b189190614746565b60f81b818381518110612b2e57612b2d614c5a565b5b60200101907effffffffffffffffffffffffffffffffffffffffffffffffffffffffffffff1916908160001a905350600a85612b6a919061479c565b9450612ae8565b8093505050505b919050565b612b878383613093565b612b946000848484612885565b612bd3576040517f08c379a0000000000000000000000000000000000000000000000000000000008152600401612bca906143e1565b60405180910390fd5b505050565b612be061370f565b612bf0856080015161010061326d565b508385600001818152505082856020019073ffffffffffffffffffffffffffffffffffffffff16908173ffffffffffffffffffffffffffffffffffffffff16815250508185604001907bffffffffffffffffffffffffffffffffffffffffffffffffffffffff191690817bffffffffffffffffffffffffffffffffffffffffffffffffffffffff191681525050849050949350505050565b612c9582600383516132d7565b612ca8818361345c90919063ffffffff16565b505050565b60003084604051602001612cc29291906140d0565b604051602081830303815290604052805190602001209050846005600083815260200190815260200160002060006101000a81548173ffffffffffffffffffffffffffffffffffffffff021916908373ffffffffffffffffffffffffffffffffffffffff160217905550807fb5e6e01e79f91267dc17b4e6314d5d4d03593d2ceee0fbb452b750bd70ea5af960405160405180910390a2600260009054906101000a900473ffffffffffffffffffffffffffffffffffffffff1673ffffffffffffffffffffffffffffffffffffffff16634000aea08685856040518463ffffffff1660e01b8152600401612db8939291906142ed565b602060405180830381600087803b158015612dd257600080fd5b505af1158015612de6573d6000803e3d6000fd5b505050506040513d601f19601f82011682018060405250810190612e0a9190613ae9565b612e49576040517f08c379a0000000000000000000000000000000000000000000000000000000008152600401612e4090614441565b60405180910390fd5b949350505050565b6000808490506000868511612f825760208511612f2457600080861115612eaa576001866020612e819190614998565b6008612e8d919061493e565b6002612e999190614820565b612ea39190614998565b1960001b90505b60008186511690506000878a8a612ec19190614746565b612ecb9190614998565b905060008386511690505b828114612f1657818610612efd578a8a612ef09190614746565b9650505050505050612f93565b8580612f0890614b25565b965050838651169050612ed6565b859650505050505050612f93565b60008585209050600091505b8588612f3c9190614998565b8211612f80576000868420905080821415612f5d5783945050505050612f93565b600184612f6a9190614746565b9350508180612f7890614b25565b925050612f30565b505b8686612f8e9190614746565b925050505b949350505050565b60008151905060006a636f6e736f6c652e6c6f679050602083016000808483855afa5050505050565b5b602081106130035781518352602083612fde9190614746565b9250602082612fed9190614746565b9150602081612ffc9190614998565b9050612fc5565b60007fffffffffffffffffffffffffffffffffffffffffffffffffffffffffffffffff9050600082111561305a5760018260206130409190614998565b61010061304d9190614820565b6130579190614998565b90505b8019835116818551168181178652505050505050565b6000808273ffffffffffffffffffffffffffffffffffffffff163b119050919050565b600073ffffffffffffffffffffffffffffffffffffffff168273ffffffffffffffffffffffffffffffffffffffff161415613103576040517f08c379a00000000000000000000000000000000000000000000000000000000081526004016130fa90614581565b60405180910390fd5b61310c81611864565b1561314c576040517f08c379a000000000000000000000000000000000000000000000000000000000815260040161314390614421565b60405180910390fd5b613158600083836125ab565b6001600960008473ffffffffffffffffffffffffffffffffffffffff1673ffffffffffffffffffffffffffffffffffffffff16815260200190815260200160002060008282546131a89190614746565b92505081905550816008600083815260200190815260200160002060006101000a81548173ffffffffffffffffffffffffffffffffffffffff021916908373ffffffffffffffffffffffffffffffffffffffff160217905550808273ffffffffffffffffffffffffffffffffffffffff16600073ffffffffffffffffffffffffffffffffffffffff167fddf252ad1be2c89b69c2b068fc378daa952ba7f163c4a11628f55a4df523b3ef60405160405180910390a4613269600083836125b0565b5050565b61327561377c565b60006020836132849190614b9c565b146132b0576020826132969190614b9c565b60206132a29190614998565b826132ad9190614746565b91505b81836020018181525050604051808452600081528281016020016040525082905092915050565b60178167ffffffffffffffff161161330e576133088160058460ff16901b60ff16178461347e90919063ffffffff16565b50613457565b60ff8167ffffffffffffffff16116133645761333d601860058460ff16901b178461347e90919063ffffffff16565b5061335e8167ffffffffffffffff1660018561349e9092919063ffffffff16565b50613456565b61ffff8167ffffffffffffffff16116133bb57613394601960058460ff16901b178461347e90919063ffffffff16565b506133b58167ffffffffffffffff1660028561349e9092919063ffffffff16565b50613455565b63ffffffff8167ffffffffffffffff1611613414576133ed601a60058460ff16901b178461347e90919063ffffffff16565b5061340e8167ffffffffffffffff1660048561349e9092919063ffffffff16565b50613454565b613431601b60058460ff16901b178461347e90919063ffffffff16565b506134528167ffffffffffffffff1660088561349e9092919063ffffffff16565b505b5b5b5b505050565b61346461377c565b613476838460000151518485516134c0565b905092915050565b61348661377c565b61349683846000015151846135af565b905092915050565b6134a661377c565b6134b7848560000151518585613606565b90509392505050565b6134c861377c565b82518211156134d657600080fd5b846020015182856134e79190614746565b111561351c5761351b85600261350c886020015188876135079190614746565b613694565b613516919061493e565b6136b0565b5b60008086518051876020830101935080888701111561353b5787860182525b60208701925050505b60208410613582578051825260208261355d9190614746565b915060208161356c9190614746565b905060208461357b9190614998565b9350613544565b60006001856020036101000a03905080198251168184511681811785525050508692505050949350505050565b6135b761377c565b836020015183106135dd576135dc84600286602001516135d7919061493e565b6136b0565b5b83518051602085830101848153818614156135f9576001820183525b5050508390509392505050565b61360e61377c565b8460200151848361361f9190614746565b11156136475761364685600286856136379190614746565b613641919061493e565b6136b0565b5b60006001836101006136599190614820565b6136639190614998565b905085518386820101858319825116178152815185880111156136865784870182525b505085915050949350505050565b6000818311156136a6578290506136aa565b8190505b92915050565b6000826000015190506136c3838361326d565b506136ce838261345c565b50505050565b50805460008255906000526020600020908101906136f29190613796565b50565b604051806040016040528060008152602001600081525090565b6040518060a0016040528060008019168152602001600073ffffffffffffffffffffffffffffffffffffffff16815260200160007bffffffffffffffffffffffffffffffffffffffffffffffffffffffff191681526020016000815260200161377661377c565b81525090565b604051806040016040528060608152602001600081525090565b5b808211156137af576000816000905550600101613797565b5090565b60006137c66137c1846146a1565b61467c565b9050828152602081018484840111156137e2576137e1614cbd565b5b6137ed848285614a80565b509392505050565b6000613808613803846146d2565b61467c565b90508281526020810184848401111561382457613823614cbd565b5b61382f848285614a80565b509392505050565b6000813590506138468161535b565b92915050565b60008135905061385b81615372565b92915050565b60008151905061387081615372565b92915050565b60008135905061388581615389565b92915050565b60008135905061389a816153a0565b92915050565b6000815190506138af816153a0565b92915050565b600082601f8301126138ca576138c9614cb8565b5b81356138da8482602086016137b3565b91505092915050565b600082601f8301126138f8576138f7614cb8565b5b81356139088482602086016137f5565b91505092915050565b600081359050613920816153b7565b92915050565b60006020828403121561393c5761393b614cc7565b5b600061394a84828501613837565b91505092915050565b6000806040838503121561396a57613969614cc7565b5b600061397885828601613837565b925050602061398985828601613837565b9150509250929050565b6000806000606084860312156139ac576139ab614cc7565b5b60006139ba86828701613837565b93505060206139cb86828701613837565b92505060406139dc86828701613911565b9150509250925092565b60008060008060808587031215613a00576139ff614cc7565b5b6000613a0e87828801613837565b9450506020613a1f87828801613837565b9350506040613a3087828801613911565b925050606085013567ffffffffffffffff811115613a5157613a50614cc2565b5b613a5d878288016138b5565b91505092959194509250565b60008060408385031215613a8057613a7f614cc7565b5b6000613a8e85828601613837565b9250506020613a9f8582860161384c565b9150509250929050565b60008060408385031215613ac057613abf614cc7565b5b6000613ace85828601613837565b9250506020613adf85828601613911565b9150509250929050565b600060208284031215613aff57613afe614cc7565b5b6000613b0d84828501613861565b91505092915050565b60008060408385031215613b2d57613b2c614cc7565b5b6000613b3b85828601613876565b9250506020613b4c8582860161384c565b9150509250929050565b600060208284031215613b6c57613b6b614cc7565b5b6000613b7a8482850161388b565b91505092915050565b600060208284031215613b9957613b98614cc7565b5b6000613ba7848285016138a0565b91505092915050565b600060208284031215613bc657613bc5614cc7565b5b600082013567ffffffffffffffff811115613be457613be3614cc2565b5b613bf0848285016138e3565b91505092915050565b600060208284031215613c0f57613c0e614cc7565b5b6000613c1d84828501613911565b91505092915050565b613c2f816149cc565b82525050565b613c3e816149de565b82525050565b613c4d816149ea565b82525050565b613c5c816149f4565b82525050565b6000613c6d82614703565b613c778185614719565b9350613c87818560208601614a8f565b613c9081614ccc565b840191505092915050565b613cac613ca782614a4a565b614b6e565b82525050565b6000613cbd8261470e565b613cc7818561472a565b9350613cd7818560208601614a8f565b613ce081614ccc565b840191505092915050565b6000613cf68261470e565b613d00818561473b565b9350613d10818560208601614a8f565b80840191505092915050565b6000613d2960188361472a565b9150613d3482614cf7565b602082019050919050565b6000613d4c60328361472a565b9150613d5782614d20565b604082019050919050565b6000613d6f60258361472a565b9150613d7a82614d6f565b604082019050919050565b6000613d92601c8361472a565b9150613d9d82614dbe565b602082019050919050565b6000613db560138361473b565b9150613dc082614de7565b601382019050919050565b6000613dd860238361472a565b9150613de382614e10565b604082019050919050565b6000613dfb60248361472a565b9150613e0682614e5f565b604082019050919050565b6000613e1e60198361472a565b9150613e2982614eae565b602082019050919050565b6000613e41600c8361472a565b9150613e4c82614ed7565b602082019050919050565b6000613e6460038361473b565b9150613e6f82614f00565b600382019050919050565b6000613e87602c8361472a565b9150613e9282614f29565b604082019050919050565b6000613eaa60388361472a565b9150613eb582614f78565b604082019050919050565b6000613ecd600f8361472a565b9150613ed882614fc7565b602082019050919050565b6000613ef0602a8361472a565b9150613efb82614ff0565b604082019050919050565b6000613f1360298361472a565b9150613f1e8261503f565b604082019050919050565b6000613f36601d8361472a565b9150613f418261508e565b602082019050919050565b6000613f5960208361472a565b9150613f64826150b7565b602082019050919050565b6000613f7c60318361472a565b9150613f87826150e0565b604082019050919050565b6000613f9f602c8361472a565b9150613faa8261512f565b604082019050919050565b6000613fc2602f8361472a565b9150613fcd8261517e565b604082019050919050565b6000613fe560278361473b565b9150613ff0826151cd565b602782019050919050565b600061400860218361472a565b91506140138261521c565b604082019050919050565b600061402b600d8361473b565b91506140368261526b565b600d82019050919050565b600061404e601d8361473b565b915061405982615294565b601d82019050919050565b600061407160318361472a565b915061407c826152bd565b604082019050919050565b600061409460288361472a565b915061409f8261530c565b604082019050919050565b6140b381614a40565b82525050565b6140ca6140c582614a40565b614b92565b82525050565b60006140dc8285613c9b565b6014820191506140ec82846140b9565b6020820191508190509392505050565b60006141088285613ceb565b91506141148284613ceb565b91508190509392505050565b600061412b82613da8565b915061413682613fd8565b91506141418261401e565b915061414d8284613ceb565b915061415882613e57565b915081905092915050565b600061416e82614041565b915061417a8284613ceb565b915081905092915050565b600060208201905061419a6000830184613c26565b92915050565b60006080820190506141b56000830187613c26565b6141c26020830186613c26565b6141cf60408301856140aa565b81810360608301526141e18184613c62565b905095945050505050565b60006060820190506142016000830186613c26565b61420e6020830185613c44565b61421b6040830184613c35565b949350505050565b60006060820190506142386000830186613c26565b818103602083015261424a8185613cb2565b9050818103604083015261425e8184613cb2565b9050949350505050565b60006101008201905061427e600083018b613c26565b61428b602083018a6140aa565b6142986040830189613c44565b6142a56060830188613c26565b6142b26080830187613c53565b6142bf60a08301866140aa565b6142cc60c08301856140aa565b81810360e08301526142de8184613c62565b90509998505050505050505050565b60006060820190506143026000830186613c26565b61430f60208301856140aa565b81810360408301526143218184613c62565b9050949350505050565b60006060820190506143406000830186613c26565b61434d60208301856140aa565b818103604083015261435f8184613cb2565b9050949350505050565b600060208201905061437e6000830184613c35565b92915050565b60006020820190506143996000830184613c44565b92915050565b600060208201905081810360008301526143b98184613cb2565b905092915050565b600060208201905081810360008301526143da81613d1c565b9050919050565b600060208201905081810360008301526143fa81613d3f565b9050919050565b6000602082019050818103600083015261441a81613d62565b9050919050565b6000602082019050818103600083015261443a81613d85565b9050919050565b6000602082019050818103600083015261445a81613dcb565b9050919050565b6000602082019050818103600083015261447a81613dee565b9050919050565b6000602082019050818103600083015261449a81613e11565b9050919050565b600060208201905081810360008301526144ba81613e34565b9050919050565b600060208201905081810360008301526144da81613e7a565b9050919050565b600060208201905081810360008301526144fa81613e9d565b9050919050565b6000602082019050818103600083015261451a81613ec0565b9050919050565b6000602082019050818103600083015261453a81613ee3565b9050919050565b6000602082019050818103600083015261455a81613f06565b9050919050565b6000602082019050818103600083015261457a81613f29565b9050919050565b6000602082019050818103600083015261459a81613f4c565b9050919050565b600060208201905081810360008301526145ba81613f6f565b9050919050565b600060208201905081810360008301526145da81613f92565b9050919050565b600060208201905081810360008301526145fa81613fb5565b9050919050565b6000602082019050818103600083015261461a81613ffb565b9050919050565b6000602082019050818103600083015261463a81614064565b9050919050565b6000602082019050818103600083015261465a81614087565b9050919050565b600060208201905061467660008301846140aa565b92915050565b6000614686614697565b90506146928282614af4565b919050565b6000604051905090565b600067ffffffffffffffff8211156146bc576146bb614c89565b5b6146c582614ccc565b9050602081019050919050565b600067ffffffffffffffff8211156146ed576146ec614c89565b5b6146f682614ccc565b9050602081019050919050565b600081519050919050565b600081519050919050565b600082825260208201905092915050565b600082825260208201905092915050565b600081905092915050565b600061475182614a40565b915061475c83614a40565b9250827fffffffffffffffffffffffffffffffffffffffffffffffffffffffffffffffff0382111561479157614790614bcd565b5b828201905092915050565b60006147a782614a40565b91506147b283614a40565b9250826147c2576147c1614bfc565b5b828204905092915050565b6000808291508390505b6001851115614817578086048111156147f3576147f2614bcd565b5b60018516156148025780820291505b808102905061481085614cea565b94506147d7565b94509492505050565b600061482b82614a40565b915061483683614a40565b92506148637fffffffffffffffffffffffffffffffffffffffffffffffffffffffffffffffff848461486b565b905092915050565b60008261487b5760019050614937565b816148895760009050614937565b816001811461489f57600281146148a9576148d8565b6001915050614937565b60ff8411156148bb576148ba614bcd565b5b8360020a9150848211156148d2576148d1614bcd565b5b50614937565b5060208310610133831016604e8410600b841016171561490d5782820a90508381111561490857614907614bcd565b5b614937565b61491a84848460016147cd565b9250905081840481111561493157614930614bcd565b5b81810290505b9392505050565b600061494982614a40565b915061495483614a40565b9250817fffffffffffffffffffffffffffffffffffffffffffffffffffffffffffffffff048311821515161561498d5761498c614bcd565b5b828202905092915050565b60006149a382614a40565b91506149ae83614a40565b9250828210156149c1576149c0614bcd565b5b828203905092915050565b60006149d782614a20565b9050919050565b60008115159050919050565b6000819050919050565b60007fffffffff0000000000000000000000000000000000000000000000000000000082169050919050565b600073ffffffffffffffffffffffffffffffffffffffff82169050919050565b6000819050919050565b6000614a5582614a5c565b9050919050565b6000614a6782614a6e565b9050919050565b6000614a7982614a20565b9050919050565b82818337600083830152505050565b60005b83811015614aad578082015181840152602081019050614a92565b83811115614abc576000848401525b50505050565b60006002820490506001821680614ada57607f821691505b60208210811415614aee57614aed614c2b565b5b50919050565b614afd82614ccc565b810181811067ffffffffffffffff82111715614b1c57614b1b614c89565b5b80604052505050565b6000614b3082614a40565b91507fffffffffffffffffffffffffffffffffffffffffffffffffffffffffffffffff821415614b6357614b62614bcd565b5b600182019050919050565b6000614b7982614b80565b9050919050565b6000614b8b82614cdd565b9050919050565b6000819050919050565b6000614ba782614a40565b9150614bb283614a40565b925082614bc257614bc1614bfc565b5b828206905092915050565b7f4e487b7100000000000000000000000000000000000000000000000000000000600052601160045260246000fd5b7f4e487b7100000000000000000000000000000000000000000000000000000000600052601260045260246000fd5b7f4e487b7100000000000000000000000000000000000000000000000000000000600052602260045260246000fd5b7f4e487b7100000000000000000000000000000000000000000000000000000000600052603260045260246000fd5b7f4e487b7100000000000000000000000000000000000000000000000000000000600052604160045260246000fd5b600080fd5b600080fd5b600080fd5b600080fd5b6000601f19601f8301169050919050565b60008160601b9050919050565b60008160011c9050919050565b7f446f6d61696e20616c72656164792076657269666965642e0000000000000000600082015250565b7f4552433732313a207472616e7366657220746f206e6f6e20455243373231526560008201527f63656976657220696d706c656d656e7465720000000000000000000000000000602082015250565b7f4552433732313a207472616e736665722066726f6d20696e636f72726563742060008201527f6f776e6572000000000000000000000000000000000000000000000000000000602082015250565b7f4552433732313a20746f6b656e20616c7265616479206d696e74656400000000600082015250565b7f7b20226e616d65223a22535647204e4654222000000000000000000000000000600082015250565b7f756e61626c6520746f207472616e73666572416e6443616c6c20746f206f726160008201527f636c650000000000000000000000000000000000000000000000000000000000602082015250565b7f4552433732313a207472616e7366657220746f20746865207a65726f2061646460008201527f7265737300000000000000000000000000000000000000000000000000000000602082015250565b7f4552433732313a20617070726f766520746f2063616c6c657200000000000000600082015250565b7f496e76616c69642055524c2e0000000000000000000000000000000000000000600082015250565b7f22207d0000000000000000000000000000000000000000000000000000000000600082015250565b7f4552433732313a206f70657261746f7220717565727920666f72206e6f6e657860008201527f697374656e7420746f6b656e0000000000000000000000000000000000000000602082015250565b7f4552433732313a20617070726f76652063616c6c6572206973206e6f74206f7760008201527f6e6572206e6f7220617070726f76656420666f7220616c6c0000000000000000602082015250565b7f496e76616c696420646f6d61696e2e0000000000000000000000000000000000600082015250565b7f4552433732313a2062616c616e636520717565727920666f7220746865207a6560008201527f726f206164647265737300000000000000000000000000000000000000000000602082015250565b7f4552433732313a206f776e657220717565727920666f72206e6f6e657869737460008201527f656e7420746f6b656e0000000000000000000000000000000000000000000000602082015250565b7f41646472657373206469646e27742076657269667920646f6d61696e2e000000600082015250565b7f4552433732313a206d696e7420746f20746865207a65726f2061646472657373600082015250565b7f45524337323155524953746f726167653a2055524920717565727920666f722060008201527f6e6f6e6578697374656e7420746f6b656e000000000000000000000000000000602082015250565b7f4552433732313a20617070726f76656420717565727920666f72206e6f6e657860008201527f697374656e7420746f6b656e0000000000000000000000000000000000000000602082015250565b7f4552433732314d657461646174613a2055524920717565727920666f72206e6f60008201527f6e6578697374656e7420746f6b656e0000000000000000000000000000000000602082015250565b7f2c20226465736372697074696f6e223a22416e204e4654206261736564206f6e60008201527f2053564721222000000000000000000000000000000000000000000000000000602082015250565b7f4552433732313a20617070726f76616c20746f2063757272656e74206f776e6560008201527f7200000000000000000000000000000000000000000000000000000000000000602082015250565b7f2c2022696d616765223a222c2000000000000000000000000000000000000000600082015250565b7f646174613a6170706c69636174696f6e2f6a736f6e3b6261736536342c000000600082015250565b7f4552433732313a207472616e736665722063616c6c6572206973206e6f74206f60008201527f776e6572206e6f7220617070726f766564000000000000000000000000000000602082015250565b7f536f75726365206d75737420626520746865206f7261636c65206f662074686560008201527f2072657175657374000000000000000000000000000000000000000000000000602082015250565b615364816149cc565b811461536f57600080fd5b50565b61537b816149de565b811461538657600080fd5b50565b615392816149ea565b811461539d57600080fd5b50565b6153a9816149f4565b81146153b457600080fd5b50565b6153c081614a40565b81146153cb57600080fd5b5056fe446f6d61696e20636f6e7461696e7320696e76616c69642063686172616374657220272f274142434445464748494a4b4c4d4e4f505152535455565758595a6162636465666768696a6b6c6d6e6f707172737475767778797a303132333435363738392b2f446f6d61696e20636f6e7461696e7320746f6f206d616e7920272e272063686172616374657273a2646970667358221220a7f10624edcf0faac740b27e946dfda787da8f0fa6022580d28d6bdb52e8a1a564736f6c63430008070033",
  "devdoc": {
    "kind": "dev",
    "methods": {
      "approve(address,uint256)": {
        "details": "See {IERC721-approve}."
      },
      "balanceOf(address)": {
        "details": "See {IERC721-balanceOf}."
      },
      "getApproved(uint256)": {
        "details": "See {IERC721-getApproved}."
      },
      "isApprovedForAll(address,address)": {
        "details": "See {IERC721-isApprovedForAll}."
      },
      "name()": {
        "details": "See {IERC721Metadata-name}."
      },
      "ownerOf(uint256)": {
        "details": "See {IERC721-ownerOf}."
      },
      "safeTransferFrom(address,address,uint256)": {
        "details": "See {IERC721-safeTransferFrom}."
      },
      "safeTransferFrom(address,address,uint256,bytes)": {
        "details": "See {IERC721-safeTransferFrom}."
      },
      "setApprovalForAll(address,bool)": {
        "details": "See {IERC721-setApprovalForAll}."
      },
      "supportsInterface(bytes4)": {
        "details": "See {IERC165-supportsInterface}."
      },
      "symbol()": {
        "details": "See {IERC721Metadata-symbol}."
      },
      "tokenURI(uint256)": {
        "details": "See {IERC721Metadata-tokenURI}."
      },
      "transferFrom(address,address,uint256)": {
        "details": "See {IERC721-transferFrom}."
      }
    },
    "version": 1
  },
  "userdoc": {
    "kind": "user",
    "methods": {},
    "version": 1
  },
  "storageLayout": {
    "storage": [
      {
        "astId": 319,
        "contract": "contracts/PulitzerContract.sol:PulitzerContract",
        "label": "s_ens",
        "offset": 0,
        "slot": "0",
        "type": "t_contract(ENSInterface)974"
      },
      {
        "astId": 321,
        "contract": "contracts/PulitzerContract.sol:PulitzerContract",
        "label": "s_ensNode",
        "offset": 0,
        "slot": "1",
        "type": "t_bytes32"
      },
      {
        "astId": 324,
        "contract": "contracts/PulitzerContract.sol:PulitzerContract",
        "label": "s_link",
        "offset": 0,
        "slot": "2",
        "type": "t_contract(LinkTokenInterface)1069"
      },
      {
        "astId": 327,
        "contract": "contracts/PulitzerContract.sol:PulitzerContract",
        "label": "s_oracle",
        "offset": 0,
        "slot": "3",
        "type": "t_contract(OperatorInterface)1149"
      },
      {
        "astId": 330,
        "contract": "contracts/PulitzerContract.sol:PulitzerContract",
        "label": "s_requestCount",
        "offset": 0,
        "slot": "4",
        "type": "t_uint256"
      },
      {
        "astId": 334,
        "contract": "contracts/PulitzerContract.sol:PulitzerContract",
        "label": "s_pendingRequests",
        "offset": 0,
        "slot": "5",
        "type": "t_mapping(t_bytes32,t_address)"
      },
      {
        "astId": 2201,
        "contract": "contracts/PulitzerContract.sol:PulitzerContract",
        "label": "_name",
        "offset": 0,
        "slot": "6",
        "type": "t_string_storage"
      },
      {
        "astId": 2203,
        "contract": "contracts/PulitzerContract.sol:PulitzerContract",
        "label": "_symbol",
        "offset": 0,
        "slot": "7",
        "type": "t_string_storage"
      },
      {
        "astId": 2207,
        "contract": "contracts/PulitzerContract.sol:PulitzerContract",
        "label": "_owners",
        "offset": 0,
        "slot": "8",
        "type": "t_mapping(t_uint256,t_address)"
      },
      {
        "astId": 2211,
        "contract": "contracts/PulitzerContract.sol:PulitzerContract",
        "label": "_balances",
        "offset": 0,
        "slot": "9",
        "type": "t_mapping(t_address,t_uint256)"
      },
      {
        "astId": 2215,
        "contract": "contracts/PulitzerContract.sol:PulitzerContract",
        "label": "_tokenApprovals",
        "offset": 0,
        "slot": "10",
        "type": "t_mapping(t_uint256,t_address)"
      },
      {
        "astId": 2221,
        "contract": "contracts/PulitzerContract.sol:PulitzerContract",
        "label": "_operatorApprovals",
        "offset": 0,
        "slot": "11",
        "type": "t_mapping(t_address,t_mapping(t_address,t_bool))"
      },
      {
        "astId": 3188,
        "contract": "contracts/PulitzerContract.sol:PulitzerContract",
        "label": "_tokenURIs",
        "offset": 0,
        "slot": "12",
        "type": "t_mapping(t_uint256,t_string_storage)"
      },
      {
        "astId": 3981,
        "contract": "contracts/PulitzerContract.sol:PulitzerContract",
        "label": "verifiedDomains",
        "offset": 0,
        "slot": "13",
        "type": "t_mapping(t_address,t_array(t_bytes32)dyn_storage)"
      },
      {
        "astId": 3986,
        "contract": "contracts/PulitzerContract.sol:PulitzerContract",
        "label": "verificationQueue",
        "offset": 0,
        "slot": "14",
        "type": "t_mapping(t_bytes32,t_struct(DomainRequest)3976_storage)"
      },
      {
        "astId": 3988,
        "contract": "contracts/PulitzerContract.sol:PulitzerContract",
        "label": "oracle",
        "offset": 0,
        "slot": "15",
        "type": "t_address"
      },
      {
        "astId": 3990,
        "contract": "contracts/PulitzerContract.sol:PulitzerContract",
        "label": "jobId",
        "offset": 0,
        "slot": "16",
        "type": "t_bytes32"
      },
      {
        "astId": 3992,
        "contract": "contracts/PulitzerContract.sol:PulitzerContract",
        "label": "fee",
        "offset": 0,
        "slot": "17",
        "type": "t_uint256"
      },
      {
        "astId": 3994,
        "contract": "contracts/PulitzerContract.sol:PulitzerContract",
        "label": "tokenCounter",
        "offset": 0,
        "slot": "18",
        "type": "t_uint256"
      }
    ],
    "types": {
      "t_address": {
        "encoding": "inplace",
        "label": "address",
        "numberOfBytes": "20"
      },
      "t_array(t_bytes32)dyn_storage": {
        "base": "t_bytes32",
        "encoding": "dynamic_array",
        "label": "bytes32[]",
        "numberOfBytes": "32"
      },
      "t_bool": {
        "encoding": "inplace",
        "label": "bool",
        "numberOfBytes": "1"
      },
      "t_bytes32": {
        "encoding": "inplace",
        "label": "bytes32",
        "numberOfBytes": "32"
      },
      "t_contract(ENSInterface)974": {
        "encoding": "inplace",
        "label": "contract ENSInterface",
        "numberOfBytes": "20"
      },
      "t_contract(LinkTokenInterface)1069": {
        "encoding": "inplace",
        "label": "contract LinkTokenInterface",
        "numberOfBytes": "20"
      },
      "t_contract(OperatorInterface)1149": {
        "encoding": "inplace",
        "label": "contract OperatorInterface",
        "numberOfBytes": "20"
      },
      "t_mapping(t_address,t_array(t_bytes32)dyn_storage)": {
        "encoding": "mapping",
        "key": "t_address",
        "label": "mapping(address => bytes32[])",
        "numberOfBytes": "32",
        "value": "t_array(t_bytes32)dyn_storage"
      },
      "t_mapping(t_address,t_bool)": {
        "encoding": "mapping",
        "key": "t_address",
        "label": "mapping(address => bool)",
        "numberOfBytes": "32",
        "value": "t_bool"
      },
      "t_mapping(t_address,t_mapping(t_address,t_bool))": {
        "encoding": "mapping",
        "key": "t_address",
        "label": "mapping(address => mapping(address => bool))",
        "numberOfBytes": "32",
        "value": "t_mapping(t_address,t_bool)"
      },
      "t_mapping(t_address,t_uint256)": {
        "encoding": "mapping",
        "key": "t_address",
        "label": "mapping(address => uint256)",
        "numberOfBytes": "32",
        "value": "t_uint256"
      },
      "t_mapping(t_bytes32,t_address)": {
        "encoding": "mapping",
        "key": "t_bytes32",
        "label": "mapping(bytes32 => address)",
        "numberOfBytes": "32",
        "value": "t_address"
      },
      "t_mapping(t_bytes32,t_struct(DomainRequest)3976_storage)": {
        "encoding": "mapping",
        "key": "t_bytes32",
        "label": "mapping(bytes32 => struct PulitzerContract.DomainRequest)",
        "numberOfBytes": "32",
        "value": "t_struct(DomainRequest)3976_storage"
      },
      "t_mapping(t_uint256,t_address)": {
        "encoding": "mapping",
        "key": "t_uint256",
        "label": "mapping(uint256 => address)",
        "numberOfBytes": "32",
        "value": "t_address"
      },
      "t_mapping(t_uint256,t_string_storage)": {
        "encoding": "mapping",
        "key": "t_uint256",
        "label": "mapping(uint256 => string)",
        "numberOfBytes": "32",
        "value": "t_string_storage"
      },
      "t_string_storage": {
        "encoding": "bytes",
        "label": "string",
        "numberOfBytes": "32"
      },
      "t_struct(DomainRequest)3976_storage": {
        "encoding": "inplace",
        "label": "struct PulitzerContract.DomainRequest",
        "members": [
          {
            "astId": 3973,
            "contract": "contracts/PulitzerContract.sol:PulitzerContract",
            "label": "requester",
            "offset": 0,
            "slot": "0",
            "type": "t_address"
          },
          {
            "astId": 3975,
            "contract": "contracts/PulitzerContract.sol:PulitzerContract",
            "label": "domainHash",
            "offset": 0,
            "slot": "1",
            "type": "t_bytes32"
          }
        ],
        "numberOfBytes": "64"
      },
      "t_uint256": {
        "encoding": "inplace",
        "label": "uint256",
        "numberOfBytes": "32"
      }
    }
  }
}