{
  "address": "0x0C493914dc0b988136E0b024d58c246b9a6EBa2E",
  "abi": [
    {
      "inputs": [
        {
          "internalType": "address",
          "name": "_oracle",
          "type": "address"
        },
        {
          "internalType": "address",
          "name": "_linkToken",
          "type": "address"
        },
        {
          "internalType": "bytes32",
          "name": "_jobId",
          "type": "bytes32"
        },
        {
          "internalType": "uint256",
          "name": "_fee",
          "type": "uint256"
        }
      ],
      "stateMutability": "nonpayable",
      "type": "constructor"
    },
    {
      "inputs": [
        {
          "internalType": "string",
          "name": "reason",
          "type": "string"
        }
      ],
      "name": "InvalidSpec",
      "type": "error"
    },
    {
      "anonymous": false,
      "inputs": [
        {
          "indexed": true,
          "internalType": "address",
          "name": "owner",
          "type": "address"
        },
        {
          "indexed": true,
          "internalType": "address",
          "name": "approved",
          "type": "address"
        },
        {
          "indexed": true,
          "internalType": "uint256",
          "name": "tokenId",
          "type": "uint256"
        }
      ],
      "name": "Approval",
      "type": "event"
    },
    {
      "anonymous": false,
      "inputs": [
        {
          "indexed": true,
          "internalType": "address",
          "name": "owner",
          "type": "address"
        },
        {
          "indexed": true,
          "internalType": "address",
          "name": "operator",
          "type": "address"
        },
        {
          "indexed": false,
          "internalType": "bool",
          "name": "approved",
          "type": "bool"
        }
      ],
      "name": "ApprovalForAll",
      "type": "event"
    },
    {
      "anonymous": false,
      "inputs": [
        {
          "indexed": true,
          "internalType": "bytes32",
          "name": "id",
          "type": "bytes32"
        }
      ],
      "name": "ChainlinkCancelled",
      "type": "event"
    },
    {
      "anonymous": false,
      "inputs": [
        {
          "indexed": true,
          "internalType": "bytes32",
          "name": "id",
          "type": "bytes32"
        }
      ],
      "name": "ChainlinkFulfilled",
      "type": "event"
    },
    {
      "anonymous": false,
      "inputs": [
        {
          "indexed": true,
          "internalType": "bytes32",
          "name": "id",
          "type": "bytes32"
        }
      ],
      "name": "ChainlinkRequested",
      "type": "event"
    },
    {
      "anonymous": false,
      "inputs": [
        {
          "indexed": false,
          "internalType": "address",
          "name": "_to",
          "type": "address"
        },
        {
          "indexed": false,
          "internalType": "uint256",
          "name": "_tokenId",
          "type": "uint256"
        },
        {
          "indexed": false,
          "internalType": "string",
          "name": "_uri",
          "type": "string"
        }
      ],
      "name": "TokenMint",
      "type": "event"
    },
    {
      "anonymous": false,
      "inputs": [
        {
          "indexed": true,
          "internalType": "address",
          "name": "from",
          "type": "address"
        },
        {
          "indexed": true,
          "internalType": "address",
          "name": "to",
          "type": "address"
        },
        {
          "indexed": true,
          "internalType": "uint256",
          "name": "tokenId",
          "type": "uint256"
        }
      ],
      "name": "Transfer",
      "type": "event"
    },
    {
      "anonymous": false,
      "inputs": [
        {
          "indexed": false,
          "internalType": "address",
          "name": "requester",
          "type": "address"
        },
        {
          "indexed": false,
          "internalType": "bytes32",
          "name": "domainHash",
          "type": "bytes32"
        },
        {
          "indexed": false,
          "internalType": "bool",
          "name": "result",
          "type": "bool"
        }
      ],
      "name": "VerificationPerformed",
      "type": "event"
    },
    {
      "anonymous": false,
      "inputs": [
        {
          "indexed": false,
          "internalType": "address",
          "name": "requester",
          "type": "address"
        },
        {
          "indexed": false,
          "internalType": "string",
          "name": "domain",
          "type": "string"
        },
        {
          "indexed": false,
          "internalType": "string",
          "name": "proofBody",
          "type": "string"
        }
      ],
      "name": "VerificationRequested",
      "type": "event"
    },
    {
      "inputs": [
        {
          "internalType": "string",
          "name": "url",
          "type": "string"
        }
      ],
      "name": "_extractDomain",
      "outputs": [
        {
          "internalType": "string",
          "name": "",
          "type": "string"
        }
      ],
      "stateMutability": "pure",
      "type": "function"
    },
    {
      "inputs": [
        {
          "internalType": "string",
          "name": "domain",
          "type": "string"
        }
      ],
      "name": "_validateDomain",
      "outputs": [
        {
          "internalType": "bool",
          "name": "",
          "type": "bool"
        }
      ],
      "stateMutability": "view",
      "type": "function"
    },
    {
      "inputs": [
        {
          "internalType": "address",
          "name": "to",
          "type": "address"
        },
        {
          "internalType": "uint256",
          "name": "tokenId",
          "type": "uint256"
        }
      ],
      "name": "approve",
      "outputs": [],
      "stateMutability": "nonpayable",
      "type": "function"
    },
    {
      "inputs": [
        {
          "internalType": "address",
          "name": "owner",
          "type": "address"
        }
      ],
      "name": "balanceOf",
      "outputs": [
        {
          "internalType": "uint256",
          "name": "",
          "type": "uint256"
        }
      ],
      "stateMutability": "view",
      "type": "function"
    },
    {
      "inputs": [],
      "name": "forgetMe",
      "outputs": [],
      "stateMutability": "nonpayable",
      "type": "function"
    },
    {
      "inputs": [
        {
          "internalType": "string",
          "name": "imageURI",
          "type": "string"
        }
      ],
      "name": "formatTokenURI",
      "outputs": [
        {
          "internalType": "string",
          "name": "",
          "type": "string"
        }
      ],
      "stateMutability": "pure",
      "type": "function"
    },
    {
      "inputs": [
        {
          "internalType": "bytes32",
          "name": "_requestId",
          "type": "bytes32"
        },
        {
          "internalType": "bool",
          "name": "_proof",
          "type": "bool"
        }
      ],
      "name": "fulfill",
      "outputs": [],
      "stateMutability": "nonpayable",
      "type": "function"
    },
    {
      "inputs": [
        {
          "internalType": "uint256",
          "name": "tokenId",
          "type": "uint256"
        }
      ],
      "name": "getApproved",
      "outputs": [
        {
          "internalType": "address",
          "name": "",
          "type": "address"
        }
      ],
      "stateMutability": "view",
      "type": "function"
    },
    {
      "inputs": [
        {
          "internalType": "string",
          "name": "domain",
          "type": "string"
        }
      ],
      "name": "getDomainHash",
      "outputs": [
        {
          "internalType": "bytes32",
          "name": "",
          "type": "bytes32"
        }
      ],
      "stateMutability": "pure",
      "type": "function"
    },
    {
      "inputs": [
        {
          "internalType": "string",
          "name": "url",
          "type": "string"
        }
      ],
      "name": "isAddressApprovedForUrl",
      "outputs": [
        {
          "internalType": "bool",
          "name": "",
          "type": "bool"
        }
      ],
      "stateMutability": "view",
      "type": "function"
    },
    {
      "inputs": [
        {
          "internalType": "address",
          "name": "owner",
          "type": "address"
        },
        {
          "internalType": "address",
          "name": "operator",
          "type": "address"
        }
      ],
      "name": "isApprovedForAll",
      "outputs": [
        {
          "internalType": "bool",
          "name": "",
          "type": "bool"
        }
      ],
      "stateMutability": "view",
      "type": "function"
    },
    {
      "inputs": [
        {
          "internalType": "string",
          "name": "domain",
          "type": "string"
        },
        {
          "internalType": "address",
          "name": "requester",
          "type": "address"
        }
      ],
      "name": "isDomainVerified",
      "outputs": [
        {
          "internalType": "bool",
          "name": "",
          "type": "bool"
        }
      ],
      "stateMutability": "view",
      "type": "function"
    },
    {
      "inputs": [
        {
          "internalType": "string",
          "name": "url",
          "type": "string"
        }
      ],
      "name": "mint",
      "outputs": [
        {
          "internalType": "uint256",
          "name": "",
          "type": "uint256"
        }
      ],
      "stateMutability": "nonpayable",
      "type": "function"
    },
    {
      "inputs": [],
      "name": "name",
      "outputs": [
        {
          "internalType": "string",
          "name": "",
          "type": "string"
        }
      ],
      "stateMutability": "view",
      "type": "function"
    },
    {
      "inputs": [
        {
          "internalType": "uint256",
          "name": "tokenId",
          "type": "uint256"
        }
      ],
      "name": "ownerOf",
      "outputs": [
        {
          "internalType": "address",
          "name": "",
          "type": "address"
        }
      ],
      "stateMutability": "view",
      "type": "function"
    },
    {
      "inputs": [
        {
          "internalType": "address",
          "name": "requester",
          "type": "address"
        }
      ],
      "name": "requestProofBody",
      "outputs": [
        {
          "internalType": "string",
          "name": "",
          "type": "string"
        }
      ],
      "stateMutability": "pure",
      "type": "function"
    },
    {
      "inputs": [
        {
          "internalType": "string",
          "name": "_domain",
          "type": "string"
        }
      ],
      "name": "requestProofVerification",
      "outputs": [
        {
          "internalType": "bytes32",
          "name": "requestId",
          "type": "bytes32"
        }
      ],
      "stateMutability": "nonpayable",
      "type": "function"
    },
    {
      "inputs": [
        {
          "internalType": "address",
          "name": "from",
          "type": "address"
        },
        {
          "internalType": "address",
          "name": "to",
          "type": "address"
        },
        {
          "internalType": "uint256",
          "name": "tokenId",
          "type": "uint256"
        }
      ],
      "name": "safeTransferFrom",
      "outputs": [],
      "stateMutability": "nonpayable",
      "type": "function"
    },
    {
      "inputs": [
        {
          "internalType": "address",
          "name": "from",
          "type": "address"
        },
        {
          "internalType": "address",
          "name": "to",
          "type": "address"
        },
        {
          "internalType": "uint256",
          "name": "tokenId",
          "type": "uint256"
        },
        {
          "internalType": "bytes",
          "name": "_data",
          "type": "bytes"
        }
      ],
      "name": "safeTransferFrom",
      "outputs": [],
      "stateMutability": "nonpayable",
      "type": "function"
    },
    {
      "inputs": [
        {
          "internalType": "address",
          "name": "operator",
          "type": "address"
        },
        {
          "internalType": "bool",
          "name": "approved",
          "type": "bool"
        }
      ],
      "name": "setApprovalForAll",
      "outputs": [],
      "stateMutability": "nonpayable",
      "type": "function"
    },
    {
      "inputs": [
        {
          "internalType": "bytes4",
          "name": "interfaceId",
          "type": "bytes4"
        }
      ],
      "name": "supportsInterface",
      "outputs": [
        {
          "internalType": "bool",
          "name": "",
          "type": "bool"
        }
      ],
      "stateMutability": "view",
      "type": "function"
    },
    {
      "inputs": [],
      "name": "symbol",
      "outputs": [
        {
          "internalType": "string",
          "name": "",
          "type": "string"
        }
      ],
      "stateMutability": "view",
      "type": "function"
    },
    {
      "inputs": [],
      "name": "tokenCounter",
      "outputs": [
        {
          "internalType": "uint256",
          "name": "",
          "type": "uint256"
        }
      ],
      "stateMutability": "view",
      "type": "function"
    },
    {
      "inputs": [
        {
          "internalType": "uint256",
          "name": "tokenId",
          "type": "uint256"
        }
      ],
      "name": "tokenURI",
      "outputs": [
        {
          "internalType": "string",
          "name": "",
          "type": "string"
        }
      ],
      "stateMutability": "view",
      "type": "function"
    },
    {
      "inputs": [
        {
          "internalType": "address",
          "name": "from",
          "type": "address"
        },
        {
          "internalType": "address",
          "name": "to",
          "type": "address"
        },
        {
          "internalType": "uint256",
          "name": "tokenId",
          "type": "uint256"
        }
      ],
      "name": "transferFrom",
      "outputs": [],
      "stateMutability": "nonpayable",
      "type": "function"
    },
    {
      "inputs": [
        {
          "internalType": "address",
          "name": "",
          "type": "address"
        },
        {
          "internalType": "uint256",
          "name": "",
          "type": "uint256"
        }
      ],
      "name": "verifiedDomains",
      "outputs": [
        {
          "internalType": "bytes32",
          "name": "",
          "type": "bytes32"
        }
      ],
      "stateMutability": "view",
      "type": "function"
    }
  ],
  "transactionHash": "0x034be1ed75ab4957dc08f6afcb938d006408b9434beabc5feac27d131dcf49ab",
  "args": [
    "0xfF07C97631Ff3bAb5e5e5660Cdf47AdEd8D4d4Fd",
    "0xa36085F69e2889c224210F603D836748e7dC0088",
    {
      "0": 55,
      "1": 57,
      "2": 49,
      "3": 98,
      "4": 100,
      "5": 55,
      "6": 51,
      "7": 99,
      "8": 56,
      "9": 97,
      "10": 49,
      "11": 51,
      "12": 52,
      "13": 57,
      "14": 56,
      "15": 53,
      "16": 57,
      "17": 102,
      "18": 48,
      "19": 57,
      "20": 98,
      "21": 49,
      "22": 99,
      "23": 98,
      "24": 56,
      "25": 55,
      "26": 51,
      "27": 48,
      "28": 52,
      "29": 102,
      "30": 55,
      "31": 49
    },
    "100000000000000000"
  ],
  "numDeployments": 7,
  "solcInputHash": "b333354395464d6e465f8ebb9a2925f7",
  "bytecode": "0x608060405260016004553480156200001657600080fd5b5060405162005a8338038062005a8383398181016040528101906200003c9190620003ae565b6040518060400160405280600881526020017f50756c69747a65720000000000000000000000000000000000000000000000008152506040518060400160405280600381526020017f50554c00000000000000000000000000000000000000000000000000000000008152508160069080519060200190620000c092919062000287565b508060079080519060200190620000d992919062000287565b5050506000601281905550600073ffffffffffffffffffffffffffffffffffffffff168373ffffffffffffffffffffffffffffffffffffffff16141562000130576200012a6200019b60201b60201c565b62000142565b62000141836200024360201b60201c565b5b83600f60006101000a81548173ffffffffffffffffffffffffffffffffffffffff021916908373ffffffffffffffffffffffffffffffffffffffff16021790555081601081905550806011819055505050505062000520565b6200024173c89bd4e1632d3a43cb03aaad5262cbe4038bc57173ffffffffffffffffffffffffffffffffffffffff166338cc48316040518163ffffffff1660e01b815260040160206040518083038186803b158015620001fa57600080fd5b505afa1580156200020f573d6000803e3d6000fd5b505050506040513d601f19601f820116820180604052508101906200023591906200037c565b6200024360201b60201c565b565b80600260006101000a81548173ffffffffffffffffffffffffffffffffffffffff021916908373ffffffffffffffffffffffffffffffffffffffff16021790555050565b828054620002959062000468565b90600052602060002090601f016020900481019282620002b9576000855562000305565b82601f10620002d457805160ff191683800117855562000305565b8280016001018555821562000305579182015b8281111562000304578251825591602001919060010190620002e7565b5b50905062000314919062000318565b5090565b5b808211156200033357600081600090555060010162000319565b5090565b6000815190506200034881620004d2565b92915050565b6000815190506200035f81620004ec565b92915050565b600081519050620003768162000506565b92915050565b600060208284031215620003955762000394620004cd565b5b6000620003a58482850162000337565b91505092915050565b60008060008060808587031215620003cb57620003ca620004cd565b5b6000620003db8782880162000337565b9450506020620003ee8782880162000337565b935050604062000401878288016200034e565b9250506060620004148782880162000365565b91505092959194509250565b60006200042d826200043e565b9050919050565b6000819050919050565b600073ffffffffffffffffffffffffffffffffffffffff82169050919050565b6000819050919050565b600060028204905060018216806200048157607f821691505b602082108114156200049857620004976200049e565b5b50919050565b7f4e487b7100000000000000000000000000000000000000000000000000000000600052602260045260246000fd5b600080fd5b620004dd8162000420565b8114620004e957600080fd5b50565b620004f78162000434565b81146200050357600080fd5b50565b62000511816200045e565b81146200051d57600080fd5b50565b61555380620005306000396000f3fe608060405234801561001057600080fd5b506004361061018e5760003560e01c806371aee193116100de578063b88d4fde11610097578063d85d3d2711610071578063d85d3d27146104f3578063ddd8cc2c14610523578063e985e9c514610553578063fd68990a146105835761018e565b8063b88d4fde14610489578063c87b56dd146104a5578063d082e381146104d55761018e565b806371aee1931461038f5780638841a241146103bf5780639116dcda146103ef57806395d89b411461041f578063a22cb4651461043d578063b1afdbdf146104595761018e565b806323b872dd1161014b5780634831f32d116101255780634831f32d146102cf5780636352211e146102ff5780636b020e1e1461032f57806370a082311461035f5761018e565b806323b872dd146102675780633d7b58bb1461028357806342842e0e146102b35761018e565b806301ffc9a71461019357806306fdde03146101c357806307b5c385146101e1578063081812fc14610211578063095ea7b31461024157806309b6ce341461025d575b600080fd5b6101ad60048036038101906101a89190613bbd565b61059f565b6040516101ba919061442c565b60405180910390f35b6101cb610681565b6040516101d89190614462565b60405180910390f35b6101fb60048036038101906101f69190613c17565b610713565b6040516102089190614447565b60405180910390f35b61022b60048036038101906102269190613cbc565b610743565b6040516102389190614248565b60405180910390f35b61025b60048036038101906102569190613b10565b6107c8565b005b6102656108e0565b005b610281600480360381019061027c91906139fa565b61092d565b005b61029d60048036038101906102989190613c17565b61098d565b6040516102aa919061442c565b60405180910390f35b6102cd60048036038101906102c891906139fa565b61099f565b005b6102e960048036038101906102e49190613c17565b6109bf565b6040516102f6919061442c565b60405180910390f35b61031960048036038101906103149190613cbc565b6109e2565b6040516103269190614248565b60405180910390f35b61034960048036038101906103449190613c60565b610a94565b604051610356919061442c565b60405180910390f35b6103796004803603810190610374919061398d565b610ab0565b6040516103869190614724565b60405180910390f35b6103a960048036038101906103a49190613c17565b610b68565b6040516103b69190614462565b60405180910390f35b6103d960048036038101906103d49190613c17565b610bb8565b6040516103e69190614462565b60405180910390f35b6104096004803603810190610404919061398d565b610bca565b6040516104169190614462565b60405180910390f35b610427610ecd565b6040516104349190614462565b60405180910390f35b61045760048036038101906104529190613ad0565b610f5f565b005b610473600480360381019061046e9190613b10565b610f75565b6040516104809190614447565b60405180910390f35b6104a3600480360381019061049e9190613a4d565b610fa6565b005b6104bf60048036038101906104ba9190613cbc565b611008565b6040516104cc9190614462565b60405180910390f35b6104dd61115a565b6040516104ea9190614724565b60405180910390f35b61050d60048036038101906105089190613c17565b611160565b60405161051a9190614724565b60405180910390f35b61053d60048036038101906105389190613c17565b611217565b60405161054a9190614447565b60405180910390f35b61056d600480360381019061056891906139ba565b6114fe565b60405161057a919061442c565b60405180910390f35b61059d60048036038101906105989190613b7d565b611592565b005b60007f80ac58cd000000000000000000000000000000000000000000000000000000007bffffffffffffffffffffffffffffffffffffffffffffffffffffffff1916827bffffffffffffffffffffffffffffffffffffffffffffffffffffffff1916148061066a57507f5b5e139f000000000000000000000000000000000000000000000000000000007bffffffffffffffffffffffffffffffffffffffffffffffffffffffff1916827bffffffffffffffffffffffffffffffffffffffffffffffffffffffff1916145b8061067a575061067982611861565b5b9050919050565b60606006805461069090614b85565b80601f01602080910402602001604051908101604052809291908181526020018280546106bc90614b85565b80156107095780601f106106de57610100808354040283529160200191610709565b820191906000526020600020905b8154815290600101906020018083116106ec57829003601f168201915b5050505050905090565b6000816040516020016107269190614462565b604051602081830303815290604052805190602001209050919050565b600061074e826118cb565b61078d576040517f08c379a000000000000000000000000000000000000000000000000000000000815260040161078490614684565b60405180910390fd5b600a600083815260200190815260200160002060009054906101000a900473ffffffffffffffffffffffffffffffffffffffff169050919050565b60006107d3826109e2565b90508073ffffffffffffffffffffffffffffffffffffffff168373ffffffffffffffffffffffffffffffffffffffff161415610844576040517f08c379a000000000000000000000000000000000000000000000000000000000815260040161083b906146c4565b60405180910390fd5b8073ffffffffffffffffffffffffffffffffffffffff16610863611937565b73ffffffffffffffffffffffffffffffffffffffff16148061089257506108918161088c611937565b6114fe565b5b6108d1576040517f08c379a00000000000000000000000000000000000000000000000000000000081526004016108c8906145a4565b60405180910390fd5b6108db838361193f565b505050565b600d60003373ffffffffffffffffffffffffffffffffffffffff1673ffffffffffffffffffffffffffffffffffffffff168152602001908152602001600020600061092b919061373b565b565b61093e610938611937565b826119f8565b61097d576040517f08c379a0000000000000000000000000000000000000000000000000000000008152600401610974906146e4565b60405180910390fd5b610988838383611ad6565b505050565b600061099882611d3d565b9050919050565b6109ba83838360405180602001604052806000815250610fa6565b505050565b60006109db6109d56109d084610bb8565b610713565b33611e5b565b9050919050565b6000806008600084815260200190815260200160002060009054906101000a900473ffffffffffffffffffffffffffffffffffffffff169050600073ffffffffffffffffffffffffffffffffffffffff168173ffffffffffffffffffffffffffffffffffffffff161415610a8b576040517f08c379a0000000000000000000000000000000000000000000000000000000008152600401610a8290614604565b60405180910390fd5b80915050919050565b6000610aa8610aa284610713565b83611e5b565b905092915050565b60008073ffffffffffffffffffffffffffffffffffffffff168273ffffffffffffffffffffffffffffffffffffffff161415610b21576040517f08c379a0000000000000000000000000000000000000000000000000000000008152600401610b18906145e4565b60405180910390fd5b600960008373ffffffffffffffffffffffffffffffffffffffff1673ffffffffffffffffffffffffffffffffffffffff168152602001908152602001600020549050919050565b6060610b9282604051602001610b7e91906141e3565b604051602081830303815290604052611f37565b604051602001610ba29190614226565b6040516020818303038152906040529050919050565b6060610bc38261209b565b9050919050565b606060008273ffffffffffffffffffffffffffffffffffffffff1660001b905060006040518060400160405280601081526020017f303132333435363738396162636465660000000000000000000000000000000081525090506000602a67ffffffffffffffff811115610c4157610c40614d4c565b5b6040519080825280601f01601f191660200182016040528015610c735781602001600182028036833780820191505090505b5090507f300000000000000000000000000000000000000000000000000000000000000081600081518110610cab57610caa614d1d565b5b60200101907effffffffffffffffffffffffffffffffffffffffffffffffffffffffffffff1916908160001a9053507f780000000000000000000000000000000000000000000000000000000000000081600181518110610d0f57610d0e614d1d565b5b60200101907effffffffffffffffffffffffffffffffffffffffffffffffffffffffffffff1916908160001a90535060005b6014811015610ec15782600485600c84610d5b9190614809565b60208110610d6c57610d6b614d1d565b5b1a60f81b7effffffffffffffffffffffffffffffffffffffffffffffffffffffffffffff1916901c60f81c60ff1681518110610dab57610daa614d1d565b5b602001015160f81c60f81b82600283610dc49190614a01565b6002610dd09190614809565b81518110610de157610de0614d1d565b5b60200101907effffffffffffffffffffffffffffffffffffffffffffffffffffffffffffff1916908160001a90535082600f60f81b85600c84610e249190614809565b60208110610e3557610e34614d1d565b5b1a60f81b1660f81c60ff1681518110610e5157610e50614d1d565b5b602001015160f81c60f81b82600283610e6a9190614a01565b6003610e769190614809565b81518110610e8757610e86614d1d565b5b60200101907effffffffffffffffffffffffffffffffffffffffffffffffffffffffffffff1916908160001a905350806001019050610d41565b50809350505050919050565b606060078054610edc90614b85565b80601f0160208091040260200160405190810160405280929190818152602001828054610f0890614b85565b8015610f555780601f10610f2a57610100808354040283529160200191610f55565b820191906000526020600020905b815481529060010190602001808311610f3857829003601f168201915b5050505050905090565b610f71610f6a611937565b838361223d565b5050565b600d6020528160005260406000208181548110610f9157600080fd5b90600052602060002001600091509150505481565b610fb7610fb1611937565b836119f8565b610ff6576040517f08c379a0000000000000000000000000000000000000000000000000000000008152600401610fed906146e4565b60405180910390fd5b611002848484846123aa565b50505050565b6060611013826118cb565b611052576040517f08c379a000000000000000000000000000000000000000000000000000000000815260040161104990614664565b60405180910390fd5b6000600c6000848152602001908152602001600020805461107290614b85565b80601f016020809104026020016040519081016040528092919081815260200182805461109e90614b85565b80156110eb5780601f106110c0576101008083540402835291602001916110eb565b820191906000526020600020905b8154815290600101906020018083116110ce57829003601f168201915b5050505050905060006110fc612406565b9050600081511415611112578192505050611155565b60008251111561114757808260405160200161112f9291906141bf565b60405160208183030381529060405292505050611155565b6111508461241d565b925050505b919050565b60125481565b600061116b826109bf565b6111aa576040517f08c379a00000000000000000000000000000000000000000000000000000000081526004016111a190614624565b60405180910390fd5b600060125490506111bb33826124c4565b7f0ba9941cdcb2c0287940b5f6ab7e4f7c6752775fca32397f9c2083b2ccc03aa23382856040516111ee939291906143ee565b60405180910390a16012600081548092919061120990614be8565b919050555080915050919050565b60006112228261098d565b611261576040517f08c379a0000000000000000000000000000000000000000000000000000000008152600401611258906145c4565b60405180910390fd5b600061126c83610713565b90506112788133611e5b565b156112b8576040517f08c379a00000000000000000000000000000000000000000000000000000000081526004016112af90614484565b60405180910390fd5b60006112ce6010543063fd68990a60e01b6124e2565b905061134f6040518060400160405280600481526020017f74797065000000000000000000000000000000000000000000000000000000008152506040518060400160405280600381526020017f5458540000000000000000000000000000000000000000000000000000000000815250836125139092919063ffffffff16565b6113996040518060400160405280600481526020017f6e616d650000000000000000000000000000000000000000000000000000000081525085836125139092919063ffffffff16565b6113eb6040518060400160405280600681526020017f7265636f726400000000000000000000000000000000000000000000000000008152506113db33610bca565b836125139092919063ffffffff16565b600061141c600f60009054906101000a900473ffffffffffffffffffffffffffffffffffffffff1683601154612546565b905060405180604001604052803373ffffffffffffffffffffffffffffffffffffffff16815260200184815250600e600083815260200190815260200160002060008201518160000160006101000a81548173ffffffffffffffffffffffffffffffffffffffff021916908373ffffffffffffffffffffffffffffffffffffffff160217905550602082015181600101559050507f2d704ba7fe0dd3ed1e983912865668cf7f26e752ae41102d378b3f76838c5acc33866114dc33610bca565b6040516114eb939291906142e6565b60405180910390a1809350505050919050565b6000600b60008473ffffffffffffffffffffffffffffffffffffffff1673ffffffffffffffffffffffffffffffffffffffff16815260200190815260200160002060008373ffffffffffffffffffffffffffffffffffffffff1673ffffffffffffffffffffffffffffffffffffffff16815260200190815260200160002060009054906101000a900460ff16905092915050565b816005600082815260200190815260200160002060009054906101000a900473ffffffffffffffffffffffffffffffffffffffff1673ffffffffffffffffffffffffffffffffffffffff163373ffffffffffffffffffffffffffffffffffffffff1614611634576040517f08c379a000000000000000000000000000000000000000000000000000000000815260040161162b90614704565b60405180910390fd5b6005600082815260200190815260200160002060006101000a81549073ffffffffffffffffffffffffffffffffffffffff0219169055807f7cc135e0cebb02c3480ae5d74d377283180a2601f8f644edf7987b009316c63a60405160405180910390a281156117d6576000600e60008581526020019081526020016000206040518060400160405290816000820160009054906101000a900473ffffffffffffffffffffffffffffffffffffffff1673ffffffffffffffffffffffffffffffffffffffff1673ffffffffffffffffffffffffffffffffffffffff1681526020016001820154815250509050600d6000826000015173ffffffffffffffffffffffffffffffffffffffff1673ffffffffffffffffffffffffffffffffffffffff168152602001908152602001600020816020015190806001815401808255809150506001900390600052602060002001600090919091909150557f1cde586e41a7124b5b326865fb52a05494a4c703975f8401f573287f5dab270381600001518260200151856040516117c8939291906142af565b60405180910390a150611817565b7f1cde586e41a7124b5b326865fb52a05494a4c703975f8401f573287f5dab270360008060001b600060405161180e939291906142af565b60405180910390a15b600e6000848152602001908152602001600020600080820160006101000a81549073ffffffffffffffffffffffffffffffffffffffff021916905560018201600090555050505050565b60007f01ffc9a7000000000000000000000000000000000000000000000000000000007bffffffffffffffffffffffffffffffffffffffffffffffffffffffff1916827bffffffffffffffffffffffffffffffffffffffffffffffffffffffff1916149050919050565b60008073ffffffffffffffffffffffffffffffffffffffff166008600084815260200190815260200160002060009054906101000a900473ffffffffffffffffffffffffffffffffffffffff1673ffffffffffffffffffffffffffffffffffffffff1614159050919050565b600033905090565b81600a600083815260200190815260200160002060006101000a81548173ffffffffffffffffffffffffffffffffffffffff021916908373ffffffffffffffffffffffffffffffffffffffff160217905550808273ffffffffffffffffffffffffffffffffffffffff166119b2836109e2565b73ffffffffffffffffffffffffffffffffffffffff167f8c5be1e5ebec7d5bd14f71427d1e84f3dd0314c0f7b2291e5b200ac8c7c3b92560405160405180910390a45050565b6000611a03826118cb565b611a42576040517f08c379a0000000000000000000000000000000000000000000000000000000008152600401611a3990614584565b60405180910390fd5b6000611a4d836109e2565b90508073ffffffffffffffffffffffffffffffffffffffff168473ffffffffffffffffffffffffffffffffffffffff161480611abc57508373ffffffffffffffffffffffffffffffffffffffff16611aa484610743565b73ffffffffffffffffffffffffffffffffffffffff16145b80611acd5750611acc81856114fe565b5b91505092915050565b8273ffffffffffffffffffffffffffffffffffffffff16611af6826109e2565b73ffffffffffffffffffffffffffffffffffffffff1614611b4c576040517f08c379a0000000000000000000000000000000000000000000000000000000008152600401611b43906144c4565b60405180910390fd5b600073ffffffffffffffffffffffffffffffffffffffff168273ffffffffffffffffffffffffffffffffffffffff161415611bbc576040517f08c379a0000000000000000000000000000000000000000000000000000000008152600401611bb390614524565b60405180910390fd5b611bc7838383612612565b611bd260008261193f565b6001600960008573ffffffffffffffffffffffffffffffffffffffff1673ffffffffffffffffffffffffffffffffffffffff1681526020019081526020016000206000828254611c229190614a5b565b925050819055506001600960008473ffffffffffffffffffffffffffffffffffffffff1673ffffffffffffffffffffffffffffffffffffffff1681526020019081526020016000206000828254611c799190614809565b92505081905550816008600083815260200190815260200160002060006101000a81548173ffffffffffffffffffffffffffffffffffffffff021916908373ffffffffffffffffffffffffffffffffffffffff160217905550808273ffffffffffffffffffffffffffffffffffffffff168473ffffffffffffffffffffffffffffffffffffffff167fddf252ad1be2c89b69c2b068fc378daa952ba7f163c4a11628f55a4df523b3ef60405160405180910390a4611d38838383612617565b505050565b600080611d498361261c565b90506000611d9d611d8e6040518060400160405280600181526020017f2f0000000000000000000000000000000000000000000000000000000000000081525061261c565b8361264a90919063ffffffff16565b14611dcd57611dc3604051806060016040528060258152602001615492602591396126f2565b6000915050611e56565b6001611e1f611e106040518060400160405280600181526020017f2e0000000000000000000000000000000000000000000000000000000000000081525061261c565b8361264a90919063ffffffff16565b1115611e5057611e466040518060600160405280602781526020016154f7602791396126f2565b6000915050611e56565b60019150505b919050565b600080600090506000600d60008573ffffffffffffffffffffffffffffffffffffffff1673ffffffffffffffffffffffffffffffffffffffff16815260200190815260200160002080549050905060005b81811015611f2b5785600d60008773ffffffffffffffffffffffffffffffffffffffff1673ffffffffffffffffffffffffffffffffffffffff1681526020019081526020016000208281548110611f0657611f05614d1d565b5b90600052602060002001541415611f205760019250611f2b565b806001019050611eac565b50819250505092915050565b6060600082511415611f5a57604051806020016040528060008152509050612096565b60006040518060600160405280604081526020016154b76040913990506000600360028551611f899190614809565b611f93919061485f565b6004611f9f9190614a01565b67ffffffffffffffff811115611fb857611fb7614d4c565b5b6040519080825280601f01601f191660200182016040528015611fea5781602001600182028036833780820191505090505b509050600182016020820185865187015b80821015612056576003820191508151603f8160121c168501518453600184019350603f81600c1c168501518453600184019350603f8160061c168501518453600184019350603f8116850151845360018401935050611ffb565b505060038651066001811461207257600281146120855761208d565b603d6001830353603d600283035361208d565b603d60018303535b50505080925050505b919050565b606060006120a88361261c565b905060006120ea6040518060400160405280600381526020017f3a2f2f000000000000000000000000000000000000000000000000000000000081525061261c565b90506001612101828461264a90919063ffffffff16565b14612141576040517faf64694e00000000000000000000000000000000000000000000000000000000815260040161213890614564565b60405180910390fd5b61214961375c565b61215e82828561278b9092919063ffffffff16565b506121b16121a06040518060400160405280600181526020017f2f0000000000000000000000000000000000000000000000000000000000000081525061261c565b828561278b9092919063ffffffff16565b5060006121f26040518060400160405280600181526020017f2e0000000000000000000000000000000000000000000000000000000000000081525061261c565b90505b600161220a828461264a90919063ffffffff16565b111561222957612223818361285690919063ffffffff16565b506121f5565b61223282612870565b945050505050919050565b8173ffffffffffffffffffffffffffffffffffffffff168373ffffffffffffffffffffffffffffffffffffffff1614156122ac576040517f08c379a00000000000000000000000000000000000000000000000000000000081526004016122a390614544565b60405180910390fd5b80600b60008573ffffffffffffffffffffffffffffffffffffffff1673ffffffffffffffffffffffffffffffffffffffff16815260200190815260200160002060008473ffffffffffffffffffffffffffffffffffffffff1673ffffffffffffffffffffffffffffffffffffffff16815260200190815260200160002060006101000a81548160ff0219169083151502179055508173ffffffffffffffffffffffffffffffffffffffff168373ffffffffffffffffffffffffffffffffffffffff167f17307eab39ab6107e8899845ad3d59bd9653f200f220920489ca2b5937696c318360405161239d919061442c565b60405180910390a3505050565b6123b5848484611ad6565b6123c1848484846128ec565b612400576040517f08c379a00000000000000000000000000000000000000000000000000000000081526004016123f7906144a4565b60405180910390fd5b50505050565b606060405180602001604052806000815250905090565b6060612428826118cb565b612467576040517f08c379a000000000000000000000000000000000000000000000000000000000815260040161245e906146a4565b60405180910390fd5b6000612471612406565b9050600081511161249157604051806020016040528060008152506124bc565b8061249b84612a83565b6040516020016124ac9291906141bf565b6040516020818303038152906040525b915050919050565b6124de828260405180602001604052806000815250612be4565b5050565b6124ea613776565b6124f2613776565b61250985858584612c3f909392919063ffffffff16565b9150509392505050565b61252a828460800151612cef90919063ffffffff16565b612541818460800151612cef90919063ffffffff16565b505050565b600080600454905060018161255b9190614809565b6004819055506000634042994660e01b60008087600001513089604001518760018c608001516000015160405160240161259c98979695949392919061432b565b604051602081830303815290604052907bffffffffffffffffffffffffffffffffffffffffffffffffffffffff19166020820180517bffffffffffffffffffffffffffffffffffffffffffffffffffffffff8381831617835250505050905061260786838684612d14565b925050509392505050565b505050565b505050565b61262461375c565b600060208301905060405180604001604052808451815260200182815250915050919050565b600080826000015161266e8560000151866020015186600001518760200151612eb8565b6126789190614809565b90505b8360000151846020015161268f9190614809565b81116126eb5781806126a090614be8565b92505082600001516126da8560200151836126bb9190614a5b565b86600001516126ca9190614a5b565b8386600001518760200151612eb8565b6126e49190614809565b905061267b565b5092915050565b612788816040516024016127069190614462565b6040516020818303038152906040527f41304fac000000000000000000000000000000000000000000000000000000007bffffffffffffffffffffffffffffffffffffffffffffffffffffffff19166020820180517bffffffffffffffffffffffffffffffffffffffffffffffffffffffff8381831617835250505050613002565b50565b61279361375c565b60006127b18560000151866020015186600001518760200151612eb8565b905084602001518360200181815250508460200151816127d19190614a5b565b836000018181525050846000015185602001516127ee9190614809565b81141561280557600085600001818152505061284b565b836000015183600001516128199190614809565b8560000181815161282a9190614a5b565b915081815250508360000151816128419190614809565b8560200181815250505b829150509392505050565b61285e61375c565b61286983838361278b565b5092915050565b60606000826000015167ffffffffffffffff81111561289257612891614d4c565b5b6040519080825280601f01601f1916602001820160405280156128c45781602001600182028036833780820191505090505b50905060006020820190506128e2818560200151866000015161302b565b8192505050919050565b600061290d8473ffffffffffffffffffffffffffffffffffffffff166130d7565b15612a76578373ffffffffffffffffffffffffffffffffffffffff1663150b7a02612936611937565b8786866040518563ffffffff1660e01b81526004016129589493929190614263565b602060405180830381600087803b15801561297257600080fd5b505af19250505080156129a357506040513d601f19601f820116820180604052508101906129a09190613bea565b60015b612a26573d80600081146129d3576040519150601f19603f3d011682016040523d82523d6000602084013e6129d8565b606091505b50600081511415612a1e576040517f08c379a0000000000000000000000000000000000000000000000000000000008152600401612a15906144a4565b60405180910390fd5b805181602001fd5b63150b7a0260e01b7bffffffffffffffffffffffffffffffffffffffffffffffffffffffff1916817bffffffffffffffffffffffffffffffffffffffffffffffffffffffff191614915050612a7b565b600190505b949350505050565b60606000821415612acb576040518060400160405280600181526020017f30000000000000000000000000000000000000000000000000000000000000008152509050612bdf565b600082905060005b60008214612afd578080612ae690614be8565b915050600a82612af6919061485f565b9150612ad3565b60008167ffffffffffffffff811115612b1957612b18614d4c565b5b6040519080825280601f01601f191660200182016040528015612b4b5781602001600182028036833780820191505090505b5090505b60008514612bd857600182612b649190614a5b565b9150600a85612b739190614c5f565b6030612b7f9190614809565b60f81b818381518110612b9557612b94614d1d565b5b60200101907effffffffffffffffffffffffffffffffffffffffffffffffffffffffffffff1916908160001a905350600a85612bd1919061485f565b9450612b4f565b8093505050505b919050565b612bee83836130fa565b612bfb60008484846128ec565b612c3a576040517f08c379a0000000000000000000000000000000000000000000000000000000008152600401612c31906144a4565b60405180910390fd5b505050565b612c47613776565b612c5785608001516101006132d4565b508385600001818152505082856020019073ffffffffffffffffffffffffffffffffffffffff16908173ffffffffffffffffffffffffffffffffffffffff16815250508185604001907bffffffffffffffffffffffffffffffffffffffffffffffffffffffff191690817bffffffffffffffffffffffffffffffffffffffffffffffffffffffff191681525050849050949350505050565b612cfc826003835161333e565b612d0f81836134c390919063ffffffff16565b505050565b60003084604051602001612d29929190614193565b604051602081830303815290604052805190602001209050846005600083815260200190815260200160002060006101000a81548173ffffffffffffffffffffffffffffffffffffffff021916908373ffffffffffffffffffffffffffffffffffffffff160217905550807fb5e6e01e79f91267dc17b4e6314d5d4d03593d2ceee0fbb452b750bd70ea5af960405160405180910390a2600260009054906101000a900473ffffffffffffffffffffffffffffffffffffffff1673ffffffffffffffffffffffffffffffffffffffff16634000aea08685856040518463ffffffff1660e01b8152600401612e1f939291906143b0565b602060405180830381600087803b158015612e3957600080fd5b505af1158015612e4d573d6000803e3d6000fd5b505050506040513d601f19601f82011682018060405250810190612e719190613b50565b612eb0576040517f08c379a0000000000000000000000000000000000000000000000000000000008152600401612ea790614504565b60405180910390fd5b949350505050565b6000808490506000868511612fe95760208511612f8b57600080861115612f11576001866020612ee89190614a5b565b6008612ef49190614a01565b6002612f0091906148e3565b612f0a9190614a5b565b1960001b90505b60008186511690506000878a8a612f289190614809565b612f329190614a5b565b905060008386511690505b828114612f7d57818610612f64578a8a612f579190614809565b9650505050505050612ffa565b8580612f6f90614be8565b965050838651169050612f3d565b859650505050505050612ffa565b60008585209050600091505b8588612fa39190614a5b565b8211612fe7576000868420905080821415612fc45783945050505050612ffa565b600184612fd19190614809565b9350508180612fdf90614be8565b925050612f97565b505b8686612ff59190614809565b925050505b949350505050565b60008151905060006a636f6e736f6c652e6c6f679050602083016000808483855afa5050505050565b5b6020811061306a57815183526020836130459190614809565b92506020826130549190614809565b91506020816130639190614a5b565b905061302c565b60007fffffffffffffffffffffffffffffffffffffffffffffffffffffffffffffffff905060008211156130c15760018260206130a79190614a5b565b6101006130b491906148e3565b6130be9190614a5b565b90505b8019835116818551168181178652505050505050565b6000808273ffffffffffffffffffffffffffffffffffffffff163b119050919050565b600073ffffffffffffffffffffffffffffffffffffffff168273ffffffffffffffffffffffffffffffffffffffff16141561316a576040517f08c379a000000000000000000000000000000000000000000000000000000000815260040161316190614644565b60405180910390fd5b613173816118cb565b156131b3576040517f08c379a00000000000000000000000000000000000000000000000000000000081526004016131aa906144e4565b60405180910390fd5b6131bf60008383612612565b6001600960008473ffffffffffffffffffffffffffffffffffffffff1673ffffffffffffffffffffffffffffffffffffffff168152602001908152602001600020600082825461320f9190614809565b92505081905550816008600083815260200190815260200160002060006101000a81548173ffffffffffffffffffffffffffffffffffffffff021916908373ffffffffffffffffffffffffffffffffffffffff160217905550808273ffffffffffffffffffffffffffffffffffffffff16600073ffffffffffffffffffffffffffffffffffffffff167fddf252ad1be2c89b69c2b068fc378daa952ba7f163c4a11628f55a4df523b3ef60405160405180910390a46132d060008383612617565b5050565b6132dc6137e3565b60006020836132eb9190614c5f565b14613317576020826132fd9190614c5f565b60206133099190614a5b565b826133149190614809565b91505b81836020018181525050604051808452600081528281016020016040525082905092915050565b60178167ffffffffffffffff16116133755761336f8160058460ff16901b60ff1617846134e590919063ffffffff16565b506134be565b60ff8167ffffffffffffffff16116133cb576133a4601860058460ff16901b17846134e590919063ffffffff16565b506133c58167ffffffffffffffff166001856135059092919063ffffffff16565b506134bd565b61ffff8167ffffffffffffffff1611613422576133fb601960058460ff16901b17846134e590919063ffffffff16565b5061341c8167ffffffffffffffff166002856135059092919063ffffffff16565b506134bc565b63ffffffff8167ffffffffffffffff161161347b57613454601a60058460ff16901b17846134e590919063ffffffff16565b506134758167ffffffffffffffff166004856135059092919063ffffffff16565b506134bb565b613498601b60058460ff16901b17846134e590919063ffffffff16565b506134b98167ffffffffffffffff166008856135059092919063ffffffff16565b505b5b5b5b505050565b6134cb6137e3565b6134dd83846000015151848551613527565b905092915050565b6134ed6137e3565b6134fd8384600001515184613616565b905092915050565b61350d6137e3565b61351e84856000015151858561366d565b90509392505050565b61352f6137e3565b825182111561353d57600080fd5b8460200151828561354e9190614809565b1115613583576135828560026135738860200151888761356e9190614809565b6136fb565b61357d9190614a01565b613717565b5b6000808651805187602083010193508088870111156135a25787860182525b60208701925050505b602084106135e957805182526020826135c49190614809565b91506020816135d39190614809565b90506020846135e29190614a5b565b93506135ab565b60006001856020036101000a03905080198251168184511681811785525050508692505050949350505050565b61361e6137e3565b8360200151831061364457613643846002866020015161363e9190614a01565b613717565b5b8351805160208583010184815381861415613660576001820183525b5050508390509392505050565b6136756137e3565b846020015184836136869190614809565b11156136ae576136ad856002868561369e9190614809565b6136a89190614a01565b613717565b5b60006001836101006136c091906148e3565b6136ca9190614a5b565b905085518386820101858319825116178152815185880111156136ed5784870182525b505085915050949350505050565b60008183111561370d57829050613711565b8190505b92915050565b60008260000151905061372a83836132d4565b5061373583826134c3565b50505050565b508054600082559060005260206000209081019061375991906137fd565b50565b604051806040016040528060008152602001600081525090565b6040518060a0016040528060008019168152602001600073ffffffffffffffffffffffffffffffffffffffff16815260200160007bffffffffffffffffffffffffffffffffffffffffffffffffffffffff19168152602001600081526020016137dd6137e3565b81525090565b604051806040016040528060608152602001600081525090565b5b808211156138165760008160009055506001016137fe565b5090565b600061382d61382884614764565b61473f565b90508281526020810184848401111561384957613848614d80565b5b613854848285614b43565b509392505050565b600061386f61386a84614795565b61473f565b90508281526020810184848401111561388b5761388a614d80565b5b613896848285614b43565b509392505050565b6000813590506138ad8161541e565b92915050565b6000813590506138c281615435565b92915050565b6000815190506138d781615435565b92915050565b6000813590506138ec8161544c565b92915050565b60008135905061390181615463565b92915050565b60008151905061391681615463565b92915050565b600082601f83011261393157613930614d7b565b5b813561394184826020860161381a565b91505092915050565b600082601f83011261395f5761395e614d7b565b5b813561396f84826020860161385c565b91505092915050565b6000813590506139878161547a565b92915050565b6000602082840312156139a3576139a2614d8a565b5b60006139b18482850161389e565b91505092915050565b600080604083850312156139d1576139d0614d8a565b5b60006139df8582860161389e565b92505060206139f08582860161389e565b9150509250929050565b600080600060608486031215613a1357613a12614d8a565b5b6000613a218682870161389e565b9350506020613a328682870161389e565b9250506040613a4386828701613978565b9150509250925092565b60008060008060808587031215613a6757613a66614d8a565b5b6000613a758782880161389e565b9450506020613a868782880161389e565b9350506040613a9787828801613978565b925050606085013567ffffffffffffffff811115613ab857613ab7614d85565b5b613ac48782880161391c565b91505092959194509250565b60008060408385031215613ae757613ae6614d8a565b5b6000613af58582860161389e565b9250506020613b06858286016138b3565b9150509250929050565b60008060408385031215613b2757613b26614d8a565b5b6000613b358582860161389e565b9250506020613b4685828601613978565b9150509250929050565b600060208284031215613b6657613b65614d8a565b5b6000613b74848285016138c8565b91505092915050565b60008060408385031215613b9457613b93614d8a565b5b6000613ba2858286016138dd565b9250506020613bb3858286016138b3565b9150509250929050565b600060208284031215613bd357613bd2614d8a565b5b6000613be1848285016138f2565b91505092915050565b600060208284031215613c0057613bff614d8a565b5b6000613c0e84828501613907565b91505092915050565b600060208284031215613c2d57613c2c614d8a565b5b600082013567ffffffffffffffff811115613c4b57613c4a614d85565b5b613c578482850161394a565b91505092915050565b60008060408385031215613c7757613c76614d8a565b5b600083013567ffffffffffffffff811115613c9557613c94614d85565b5b613ca18582860161394a565b9250506020613cb28582860161389e565b9150509250929050565b600060208284031215613cd257613cd1614d8a565b5b6000613ce084828501613978565b91505092915050565b613cf281614a8f565b82525050565b613d0181614aa1565b82525050565b613d1081614aad565b82525050565b613d1f81614ab7565b82525050565b6000613d30826147c6565b613d3a81856147dc565b9350613d4a818560208601614b52565b613d5381614d8f565b840191505092915050565b613d6f613d6a82614b0d565b614c31565b82525050565b6000613d80826147d1565b613d8a81856147ed565b9350613d9a818560208601614b52565b613da381614d8f565b840191505092915050565b6000613db9826147d1565b613dc381856147fe565b9350613dd3818560208601614b52565b80840191505092915050565b6000613dec6018836147ed565b9150613df782614dba565b602082019050919050565b6000613e0f6032836147ed565b9150613e1a82614de3565b604082019050919050565b6000613e326025836147ed565b9150613e3d82614e32565b604082019050919050565b6000613e55601c836147ed565b9150613e6082614e81565b602082019050919050565b6000613e786013836147fe565b9150613e8382614eaa565b601382019050919050565b6000613e9b6023836147ed565b9150613ea682614ed3565b604082019050919050565b6000613ebe6024836147ed565b9150613ec982614f22565b604082019050919050565b6000613ee16019836147ed565b9150613eec82614f71565b602082019050919050565b6000613f04600c836147ed565b9150613f0f82614f9a565b602082019050919050565b6000613f276003836147fe565b9150613f3282614fc3565b600382019050919050565b6000613f4a602c836147ed565b9150613f5582614fec565b604082019050919050565b6000613f6d6038836147ed565b9150613f788261503b565b604082019050919050565b6000613f90600f836147ed565b9150613f9b8261508a565b602082019050919050565b6000613fb3602a836147ed565b9150613fbe826150b3565b604082019050919050565b6000613fd66029836147ed565b9150613fe182615102565b604082019050919050565b6000613ff9601d836147ed565b915061400482615151565b602082019050919050565b600061401c6020836147ed565b91506140278261517a565b602082019050919050565b600061403f6031836147ed565b915061404a826151a3565b604082019050919050565b6000614062602c836147ed565b915061406d826151f2565b604082019050919050565b6000614085602f836147ed565b915061409082615241565b604082019050919050565b60006140a86027836147fe565b91506140b382615290565b602782019050919050565b60006140cb6021836147ed565b91506140d6826152df565b604082019050919050565b60006140ee600d836147fe565b91506140f98261532e565b600d82019050919050565b6000614111601d836147fe565b915061411c82615357565b601d82019050919050565b60006141346031836147ed565b915061413f82615380565b604082019050919050565b60006141576028836147ed565b9150614162826153cf565b604082019050919050565b61417681614b03565b82525050565b61418d61418882614b03565b614c55565b82525050565b600061419f8285613d5e565b6014820191506141af828461417c565b6020820191508190509392505050565b60006141cb8285613dae565b91506141d78284613dae565b91508190509392505050565b60006141ee82613e6b565b91506141f98261409b565b9150614204826140e1565b91506142108284613dae565b915061421b82613f1a565b915081905092915050565b600061423182614104565b915061423d8284613dae565b915081905092915050565b600060208201905061425d6000830184613ce9565b92915050565b60006080820190506142786000830187613ce9565b6142856020830186613ce9565b614292604083018561416d565b81810360608301526142a48184613d25565b905095945050505050565b60006060820190506142c46000830186613ce9565b6142d16020830185613d07565b6142de6040830184613cf8565b949350505050565b60006060820190506142fb6000830186613ce9565b818103602083015261430d8185613d75565b905081810360408301526143218184613d75565b9050949350505050565b600061010082019050614341600083018b613ce9565b61434e602083018a61416d565b61435b6040830189613d07565b6143686060830188613ce9565b6143756080830187613d16565b61438260a083018661416d565b61438f60c083018561416d565b81810360e08301526143a18184613d25565b90509998505050505050505050565b60006060820190506143c56000830186613ce9565b6143d2602083018561416d565b81810360408301526143e48184613d25565b9050949350505050565b60006060820190506144036000830186613ce9565b614410602083018561416d565b81810360408301526144228184613d75565b9050949350505050565b60006020820190506144416000830184613cf8565b92915050565b600060208201905061445c6000830184613d07565b92915050565b6000602082019050818103600083015261447c8184613d75565b905092915050565b6000602082019050818103600083015261449d81613ddf565b9050919050565b600060208201905081810360008301526144bd81613e02565b9050919050565b600060208201905081810360008301526144dd81613e25565b9050919050565b600060208201905081810360008301526144fd81613e48565b9050919050565b6000602082019050818103600083015261451d81613e8e565b9050919050565b6000602082019050818103600083015261453d81613eb1565b9050919050565b6000602082019050818103600083015261455d81613ed4565b9050919050565b6000602082019050818103600083015261457d81613ef7565b9050919050565b6000602082019050818103600083015261459d81613f3d565b9050919050565b600060208201905081810360008301526145bd81613f60565b9050919050565b600060208201905081810360008301526145dd81613f83565b9050919050565b600060208201905081810360008301526145fd81613fa6565b9050919050565b6000602082019050818103600083015261461d81613fc9565b9050919050565b6000602082019050818103600083015261463d81613fec565b9050919050565b6000602082019050818103600083015261465d8161400f565b9050919050565b6000602082019050818103600083015261467d81614032565b9050919050565b6000602082019050818103600083015261469d81614055565b9050919050565b600060208201905081810360008301526146bd81614078565b9050919050565b600060208201905081810360008301526146dd816140be565b9050919050565b600060208201905081810360008301526146fd81614127565b9050919050565b6000602082019050818103600083015261471d8161414a565b9050919050565b6000602082019050614739600083018461416d565b92915050565b600061474961475a565b90506147558282614bb7565b919050565b6000604051905090565b600067ffffffffffffffff82111561477f5761477e614d4c565b5b61478882614d8f565b9050602081019050919050565b600067ffffffffffffffff8211156147b0576147af614d4c565b5b6147b982614d8f565b9050602081019050919050565b600081519050919050565b600081519050919050565b600082825260208201905092915050565b600082825260208201905092915050565b600081905092915050565b600061481482614b03565b915061481f83614b03565b9250827fffffffffffffffffffffffffffffffffffffffffffffffffffffffffffffffff0382111561485457614853614c90565b5b828201905092915050565b600061486a82614b03565b915061487583614b03565b92508261488557614884614cbf565b5b828204905092915050565b6000808291508390505b60018511156148da578086048111156148b6576148b5614c90565b5b60018516156148c55780820291505b80810290506148d385614dad565b945061489a565b94509492505050565b60006148ee82614b03565b91506148f983614b03565b92506149267fffffffffffffffffffffffffffffffffffffffffffffffffffffffffffffffff848461492e565b905092915050565b60008261493e57600190506149fa565b8161494c57600090506149fa565b8160018114614962576002811461496c5761499b565b60019150506149fa565b60ff84111561497e5761497d614c90565b5b8360020a91508482111561499557614994614c90565b5b506149fa565b5060208310610133831016604e8410600b84101617156149d05782820a9050838111156149cb576149ca614c90565b5b6149fa565b6149dd8484846001614890565b925090508184048111156149f4576149f3614c90565b5b81810290505b9392505050565b6000614a0c82614b03565b9150614a1783614b03565b9250817fffffffffffffffffffffffffffffffffffffffffffffffffffffffffffffffff0483118215151615614a5057614a4f614c90565b5b828202905092915050565b6000614a6682614b03565b9150614a7183614b03565b925082821015614a8457614a83614c90565b5b828203905092915050565b6000614a9a82614ae3565b9050919050565b60008115159050919050565b6000819050919050565b60007fffffffff0000000000000000000000000000000000000000000000000000000082169050919050565b600073ffffffffffffffffffffffffffffffffffffffff82169050919050565b6000819050919050565b6000614b1882614b1f565b9050919050565b6000614b2a82614b31565b9050919050565b6000614b3c82614ae3565b9050919050565b82818337600083830152505050565b60005b83811015614b70578082015181840152602081019050614b55565b83811115614b7f576000848401525b50505050565b60006002820490506001821680614b9d57607f821691505b60208210811415614bb157614bb0614cee565b5b50919050565b614bc082614d8f565b810181811067ffffffffffffffff82111715614bdf57614bde614d4c565b5b80604052505050565b6000614bf382614b03565b91507fffffffffffffffffffffffffffffffffffffffffffffffffffffffffffffffff821415614c2657614c25614c90565b5b600182019050919050565b6000614c3c82614c43565b9050919050565b6000614c4e82614da0565b9050919050565b6000819050919050565b6000614c6a82614b03565b9150614c7583614b03565b925082614c8557614c84614cbf565b5b828206905092915050565b7f4e487b7100000000000000000000000000000000000000000000000000000000600052601160045260246000fd5b7f4e487b7100000000000000000000000000000000000000000000000000000000600052601260045260246000fd5b7f4e487b7100000000000000000000000000000000000000000000000000000000600052602260045260246000fd5b7f4e487b7100000000000000000000000000000000000000000000000000000000600052603260045260246000fd5b7f4e487b7100000000000000000000000000000000000000000000000000000000600052604160045260246000fd5b600080fd5b600080fd5b600080fd5b600080fd5b6000601f19601f8301169050919050565b60008160601b9050919050565b60008160011c9050919050565b7f446f6d61696e20616c72656164792076657269666965642e0000000000000000600082015250565b7f4552433732313a207472616e7366657220746f206e6f6e20455243373231526560008201527f63656976657220696d706c656d656e7465720000000000000000000000000000602082015250565b7f4552433732313a207472616e736665722066726f6d20696e636f72726563742060008201527f6f776e6572000000000000000000000000000000000000000000000000000000602082015250565b7f4552433732313a20746f6b656e20616c7265616479206d696e74656400000000600082015250565b7f7b20226e616d65223a22535647204e4654222000000000000000000000000000600082015250565b7f756e61626c6520746f207472616e73666572416e6443616c6c20746f206f726160008201527f636c650000000000000000000000000000000000000000000000000000000000602082015250565b7f4552433732313a207472616e7366657220746f20746865207a65726f2061646460008201527f7265737300000000000000000000000000000000000000000000000000000000602082015250565b7f4552433732313a20617070726f766520746f2063616c6c657200000000000000600082015250565b7f496e76616c69642055524c2e0000000000000000000000000000000000000000600082015250565b7f22207d0000000000000000000000000000000000000000000000000000000000600082015250565b7f4552433732313a206f70657261746f7220717565727920666f72206e6f6e657860008201527f697374656e7420746f6b656e0000000000000000000000000000000000000000602082015250565b7f4552433732313a20617070726f76652063616c6c6572206973206e6f74206f7760008201527f6e6572206e6f7220617070726f76656420666f7220616c6c0000000000000000602082015250565b7f496e76616c696420646f6d61696e2e0000000000000000000000000000000000600082015250565b7f4552433732313a2062616c616e636520717565727920666f7220746865207a6560008201527f726f206164647265737300000000000000000000000000000000000000000000602082015250565b7f4552433732313a206f776e657220717565727920666f72206e6f6e657869737460008201527f656e7420746f6b656e0000000000000000000000000000000000000000000000602082015250565b7f41646472657373206469646e27742076657269667920646f6d61696e2e000000600082015250565b7f4552433732313a206d696e7420746f20746865207a65726f2061646472657373600082015250565b7f45524337323155524953746f726167653a2055524920717565727920666f722060008201527f6e6f6e6578697374656e7420746f6b656e000000000000000000000000000000602082015250565b7f4552433732313a20617070726f76656420717565727920666f72206e6f6e657860008201527f697374656e7420746f6b656e0000000000000000000000000000000000000000602082015250565b7f4552433732314d657461646174613a2055524920717565727920666f72206e6f60008201527f6e6578697374656e7420746f6b656e0000000000000000000000000000000000602082015250565b7f2c20226465736372697074696f6e223a22416e204e4654206261736564206f6e60008201527f2053564721222000000000000000000000000000000000000000000000000000602082015250565b7f4552433732313a20617070726f76616c20746f2063757272656e74206f776e6560008201527f7200000000000000000000000000000000000000000000000000000000000000602082015250565b7f2c2022696d616765223a222c2000000000000000000000000000000000000000600082015250565b7f646174613a6170706c69636174696f6e2f6a736f6e3b6261736536342c000000600082015250565b7f4552433732313a207472616e736665722063616c6c6572206973206e6f74206f60008201527f776e6572206e6f7220617070726f766564000000000000000000000000000000602082015250565b7f536f75726365206d75737420626520746865206f7261636c65206f662074686560008201527f2072657175657374000000000000000000000000000000000000000000000000602082015250565b61542781614a8f565b811461543257600080fd5b50565b61543e81614aa1565b811461544957600080fd5b50565b61545581614aad565b811461546057600080fd5b50565b61546c81614ab7565b811461547757600080fd5b50565b61548381614b03565b811461548e57600080fd5b5056fe446f6d61696e20636f6e7461696e7320696e76616c69642063686172616374657220272f274142434445464748494a4b4c4d4e4f505152535455565758595a6162636465666768696a6b6c6d6e6f707172737475767778797a303132333435363738392b2f446f6d61696e20636f6e7461696e7320746f6f206d616e7920272e272063686172616374657273a2646970667358221220567bbd25e30a352a592d8b107798e176ecfe46d9775795ce8d9cf0c9c43684c464736f6c63430008070033",
  "devdoc": {
    "kind": "dev",
    "methods": {
      "approve(address,uint256)": {
        "details": "See {IERC721-approve}."
      },
      "balanceOf(address)": {
        "details": "See {IERC721-balanceOf}."
      },
      "getApproved(uint256)": {
        "details": "See {IERC721-getApproved}."
      },
      "isApprovedForAll(address,address)": {
        "details": "See {IERC721-isApprovedForAll}."
      },
      "name()": {
        "details": "See {IERC721Metadata-name}."
      },
      "ownerOf(uint256)": {
        "details": "See {IERC721-ownerOf}."
      },
      "safeTransferFrom(address,address,uint256)": {
        "details": "See {IERC721-safeTransferFrom}."
      },
      "safeTransferFrom(address,address,uint256,bytes)": {
        "details": "See {IERC721-safeTransferFrom}."
      },
      "setApprovalForAll(address,bool)": {
        "details": "See {IERC721-setApprovalForAll}."
      },
      "supportsInterface(bytes4)": {
        "details": "See {IERC165-supportsInterface}."
      },
      "symbol()": {
        "details": "See {IERC721Metadata-symbol}."
      },
      "tokenURI(uint256)": {
        "details": "See {IERC721Metadata-tokenURI}."
      },
      "transferFrom(address,address,uint256)": {
        "details": "See {IERC721-transferFrom}."
      }
    },
    "version": 1
  },
  "userdoc": {
    "kind": "user",
    "methods": {},
    "version": 1
  },
  "storageLayout": {
    "storage": [
      {
        "astId": 319,
        "contract": "contracts/PulitzerContract.sol:PulitzerContract",
        "label": "s_ens",
        "offset": 0,
        "slot": "0",
        "type": "t_contract(ENSInterface)974"
      },
      {
        "astId": 321,
        "contract": "contracts/PulitzerContract.sol:PulitzerContract",
        "label": "s_ensNode",
        "offset": 0,
        "slot": "1",
        "type": "t_bytes32"
      },
      {
        "astId": 324,
        "contract": "contracts/PulitzerContract.sol:PulitzerContract",
        "label": "s_link",
        "offset": 0,
        "slot": "2",
        "type": "t_contract(LinkTokenInterface)1069"
      },
      {
        "astId": 327,
        "contract": "contracts/PulitzerContract.sol:PulitzerContract",
        "label": "s_oracle",
        "offset": 0,
        "slot": "3",
        "type": "t_contract(OperatorInterface)1149"
      },
      {
        "astId": 330,
        "contract": "contracts/PulitzerContract.sol:PulitzerContract",
        "label": "s_requestCount",
        "offset": 0,
        "slot": "4",
        "type": "t_uint256"
      },
      {
        "astId": 334,
        "contract": "contracts/PulitzerContract.sol:PulitzerContract",
        "label": "s_pendingRequests",
        "offset": 0,
        "slot": "5",
        "type": "t_mapping(t_bytes32,t_address)"
      },
      {
        "astId": 2201,
        "contract": "contracts/PulitzerContract.sol:PulitzerContract",
        "label": "_name",
        "offset": 0,
        "slot": "6",
        "type": "t_string_storage"
      },
      {
        "astId": 2203,
        "contract": "contracts/PulitzerContract.sol:PulitzerContract",
        "label": "_symbol",
        "offset": 0,
        "slot": "7",
        "type": "t_string_storage"
      },
      {
        "astId": 2207,
        "contract": "contracts/PulitzerContract.sol:PulitzerContract",
        "label": "_owners",
        "offset": 0,
        "slot": "8",
        "type": "t_mapping(t_uint256,t_address)"
      },
      {
        "astId": 2211,
        "contract": "contracts/PulitzerContract.sol:PulitzerContract",
        "label": "_balances",
        "offset": 0,
        "slot": "9",
        "type": "t_mapping(t_address,t_uint256)"
      },
      {
        "astId": 2215,
        "contract": "contracts/PulitzerContract.sol:PulitzerContract",
        "label": "_tokenApprovals",
        "offset": 0,
        "slot": "10",
        "type": "t_mapping(t_uint256,t_address)"
      },
      {
        "astId": 2221,
        "contract": "contracts/PulitzerContract.sol:PulitzerContract",
        "label": "_operatorApprovals",
        "offset": 0,
        "slot": "11",
        "type": "t_mapping(t_address,t_mapping(t_address,t_bool))"
      },
      {
        "astId": 3188,
        "contract": "contracts/PulitzerContract.sol:PulitzerContract",
        "label": "_tokenURIs",
        "offset": 0,
        "slot": "12",
        "type": "t_mapping(t_uint256,t_string_storage)"
      },
      {
        "astId": 3981,
        "contract": "contracts/PulitzerContract.sol:PulitzerContract",
        "label": "verifiedDomains",
        "offset": 0,
        "slot": "13",
        "type": "t_mapping(t_address,t_array(t_bytes32)dyn_storage)"
      },
      {
        "astId": 3986,
        "contract": "contracts/PulitzerContract.sol:PulitzerContract",
        "label": "verificationQueue",
        "offset": 0,
        "slot": "14",
        "type": "t_mapping(t_bytes32,t_struct(DomainRequest)3976_storage)"
      },
      {
        "astId": 3988,
        "contract": "contracts/PulitzerContract.sol:PulitzerContract",
        "label": "oracle",
        "offset": 0,
        "slot": "15",
        "type": "t_address"
      },
      {
        "astId": 3990,
        "contract": "contracts/PulitzerContract.sol:PulitzerContract",
        "label": "jobId",
        "offset": 0,
        "slot": "16",
        "type": "t_bytes32"
      },
      {
        "astId": 3992,
        "contract": "contracts/PulitzerContract.sol:PulitzerContract",
        "label": "fee",
        "offset": 0,
        "slot": "17",
        "type": "t_uint256"
      },
      {
        "astId": 3994,
        "contract": "contracts/PulitzerContract.sol:PulitzerContract",
        "label": "tokenCounter",
        "offset": 0,
        "slot": "18",
        "type": "t_uint256"
      }
    ],
    "types": {
      "t_address": {
        "encoding": "inplace",
        "label": "address",
        "numberOfBytes": "20"
      },
      "t_array(t_bytes32)dyn_storage": {
        "base": "t_bytes32",
        "encoding": "dynamic_array",
        "label": "bytes32[]",
        "numberOfBytes": "32"
      },
      "t_bool": {
        "encoding": "inplace",
        "label": "bool",
        "numberOfBytes": "1"
      },
      "t_bytes32": {
        "encoding": "inplace",
        "label": "bytes32",
        "numberOfBytes": "32"
      },
      "t_contract(ENSInterface)974": {
        "encoding": "inplace",
        "label": "contract ENSInterface",
        "numberOfBytes": "20"
      },
      "t_contract(LinkTokenInterface)1069": {
        "encoding": "inplace",
        "label": "contract LinkTokenInterface",
        "numberOfBytes": "20"
      },
      "t_contract(OperatorInterface)1149": {
        "encoding": "inplace",
        "label": "contract OperatorInterface",
        "numberOfBytes": "20"
      },
      "t_mapping(t_address,t_array(t_bytes32)dyn_storage)": {
        "encoding": "mapping",
        "key": "t_address",
        "label": "mapping(address => bytes32[])",
        "numberOfBytes": "32",
        "value": "t_array(t_bytes32)dyn_storage"
      },
      "t_mapping(t_address,t_bool)": {
        "encoding": "mapping",
        "key": "t_address",
        "label": "mapping(address => bool)",
        "numberOfBytes": "32",
        "value": "t_bool"
      },
      "t_mapping(t_address,t_mapping(t_address,t_bool))": {
        "encoding": "mapping",
        "key": "t_address",
        "label": "mapping(address => mapping(address => bool))",
        "numberOfBytes": "32",
        "value": "t_mapping(t_address,t_bool)"
      },
      "t_mapping(t_address,t_uint256)": {
        "encoding": "mapping",
        "key": "t_address",
        "label": "mapping(address => uint256)",
        "numberOfBytes": "32",
        "value": "t_uint256"
      },
      "t_mapping(t_bytes32,t_address)": {
        "encoding": "mapping",
        "key": "t_bytes32",
        "label": "mapping(bytes32 => address)",
        "numberOfBytes": "32",
        "value": "t_address"
      },
      "t_mapping(t_bytes32,t_struct(DomainRequest)3976_storage)": {
        "encoding": "mapping",
        "key": "t_bytes32",
        "label": "mapping(bytes32 => struct PulitzerContract.DomainRequest)",
        "numberOfBytes": "32",
        "value": "t_struct(DomainRequest)3976_storage"
      },
      "t_mapping(t_uint256,t_address)": {
        "encoding": "mapping",
        "key": "t_uint256",
        "label": "mapping(uint256 => address)",
        "numberOfBytes": "32",
        "value": "t_address"
      },
      "t_mapping(t_uint256,t_string_storage)": {
        "encoding": "mapping",
        "key": "t_uint256",
        "label": "mapping(uint256 => string)",
        "numberOfBytes": "32",
        "value": "t_string_storage"
      },
      "t_string_storage": {
        "encoding": "bytes",
        "label": "string",
        "numberOfBytes": "32"
      },
      "t_struct(DomainRequest)3976_storage": {
        "encoding": "inplace",
        "label": "struct PulitzerContract.DomainRequest",
        "members": [
          {
            "astId": 3973,
            "contract": "contracts/PulitzerContract.sol:PulitzerContract",
            "label": "requester",
            "offset": 0,
            "slot": "0",
            "type": "t_address"
          },
          {
            "astId": 3975,
            "contract": "contracts/PulitzerContract.sol:PulitzerContract",
            "label": "domainHash",
            "offset": 0,
            "slot": "1",
            "type": "t_bytes32"
          }
        ],
        "numberOfBytes": "64"
      },
      "t_uint256": {
        "encoding": "inplace",
        "label": "uint256",
        "numberOfBytes": "32"
      }
    }
  }
}