{
  "address": "0x97fF3c96F228FB1C1e55d63AcBe54E591efca4C9",
  "abi": [
    {
      "inputs": [
        {
          "internalType": "address",
          "name": "_oracle",
          "type": "address"
        },
        {
          "internalType": "address",
          "name": "_linkToken",
          "type": "address"
        },
        {
          "internalType": "bytes32",
          "name": "_jobId",
          "type": "bytes32"
        },
        {
          "internalType": "uint256",
          "name": "_fee",
          "type": "uint256"
        }
      ],
      "stateMutability": "nonpayable",
      "type": "constructor"
    },
    {
      "inputs": [
        {
          "internalType": "string",
          "name": "reason",
          "type": "string"
        }
      ],
      "name": "InvalidSpec",
      "type": "error"
    },
    {
      "anonymous": false,
      "inputs": [
        {
          "indexed": true,
          "internalType": "address",
          "name": "owner",
          "type": "address"
        },
        {
          "indexed": true,
          "internalType": "address",
          "name": "approved",
          "type": "address"
        },
        {
          "indexed": true,
          "internalType": "uint256",
          "name": "tokenId",
          "type": "uint256"
        }
      ],
      "name": "Approval",
      "type": "event"
    },
    {
      "anonymous": false,
      "inputs": [
        {
          "indexed": true,
          "internalType": "address",
          "name": "owner",
          "type": "address"
        },
        {
          "indexed": true,
          "internalType": "address",
          "name": "operator",
          "type": "address"
        },
        {
          "indexed": false,
          "internalType": "bool",
          "name": "approved",
          "type": "bool"
        }
      ],
      "name": "ApprovalForAll",
      "type": "event"
    },
    {
      "anonymous": false,
      "inputs": [
        {
          "indexed": true,
          "internalType": "bytes32",
          "name": "id",
          "type": "bytes32"
        }
      ],
      "name": "ChainlinkCancelled",
      "type": "event"
    },
    {
      "anonymous": false,
      "inputs": [
        {
          "indexed": true,
          "internalType": "bytes32",
          "name": "id",
          "type": "bytes32"
        }
      ],
      "name": "ChainlinkFulfilled",
      "type": "event"
    },
    {
      "anonymous": false,
      "inputs": [
        {
          "indexed": true,
          "internalType": "bytes32",
          "name": "id",
          "type": "bytes32"
        }
      ],
      "name": "ChainlinkRequested",
      "type": "event"
    },
    {
      "anonymous": false,
      "inputs": [
        {
          "indexed": false,
          "internalType": "address",
          "name": "_to",
          "type": "address"
        },
        {
          "indexed": false,
          "internalType": "uint256",
          "name": "_tokenId",
          "type": "uint256"
        },
        {
          "indexed": false,
          "internalType": "string",
          "name": "_uri",
          "type": "string"
        }
      ],
      "name": "TokenMint",
      "type": "event"
    },
    {
      "anonymous": false,
      "inputs": [
        {
          "indexed": true,
          "internalType": "address",
          "name": "from",
          "type": "address"
        },
        {
          "indexed": true,
          "internalType": "address",
          "name": "to",
          "type": "address"
        },
        {
          "indexed": true,
          "internalType": "uint256",
          "name": "tokenId",
          "type": "uint256"
        }
      ],
      "name": "Transfer",
      "type": "event"
    },
    {
      "anonymous": false,
      "inputs": [
        {
          "indexed": false,
          "internalType": "address",
          "name": "requester",
          "type": "address"
        },
        {
          "indexed": false,
          "internalType": "bytes32",
          "name": "domainHash",
          "type": "bytes32"
        },
        {
          "indexed": false,
          "internalType": "bool",
          "name": "result",
          "type": "bool"
        }
      ],
      "name": "VerificationPerformed",
      "type": "event"
    },
    {
      "anonymous": false,
      "inputs": [
        {
          "indexed": false,
          "internalType": "address",
          "name": "requester",
          "type": "address"
        },
        {
          "indexed": false,
          "internalType": "string",
          "name": "domain",
          "type": "string"
        },
        {
          "indexed": false,
          "internalType": "string",
          "name": "proofBody",
          "type": "string"
        }
      ],
      "name": "VerificationRequested",
      "type": "event"
    },
    {
      "inputs": [
        {
          "internalType": "string",
          "name": "url",
          "type": "string"
        }
      ],
      "name": "_extractDomain",
      "outputs": [
        {
          "internalType": "string",
          "name": "",
          "type": "string"
        }
      ],
      "stateMutability": "pure",
      "type": "function"
    },
    {
      "inputs": [
        {
          "internalType": "string",
          "name": "domain",
          "type": "string"
        }
      ],
      "name": "_validateDomain",
      "outputs": [
        {
          "internalType": "bool",
          "name": "",
          "type": "bool"
        }
      ],
      "stateMutability": "view",
      "type": "function"
    },
    {
      "inputs": [
        {
          "internalType": "address",
          "name": "to",
          "type": "address"
        },
        {
          "internalType": "uint256",
          "name": "tokenId",
          "type": "uint256"
        }
      ],
      "name": "approve",
      "outputs": [],
      "stateMutability": "nonpayable",
      "type": "function"
    },
    {
      "inputs": [
        {
          "internalType": "address",
          "name": "owner",
          "type": "address"
        }
      ],
      "name": "balanceOf",
      "outputs": [
        {
          "internalType": "uint256",
          "name": "",
          "type": "uint256"
        }
      ],
      "stateMutability": "view",
      "type": "function"
    },
    {
      "inputs": [
        {
          "internalType": "string",
          "name": "imageURI",
          "type": "string"
        }
      ],
      "name": "formatTokenURI",
      "outputs": [
        {
          "internalType": "string",
          "name": "",
          "type": "string"
        }
      ],
      "stateMutability": "pure",
      "type": "function"
    },
    {
      "inputs": [
        {
          "internalType": "bytes32",
          "name": "_requestId",
          "type": "bytes32"
        },
        {
          "internalType": "bool",
          "name": "_proof",
          "type": "bool"
        }
      ],
      "name": "fulfill",
      "outputs": [],
      "stateMutability": "nonpayable",
      "type": "function"
    },
    {
      "inputs": [
        {
          "internalType": "uint256",
          "name": "tokenId",
          "type": "uint256"
        }
      ],
      "name": "getApproved",
      "outputs": [
        {
          "internalType": "address",
          "name": "",
          "type": "address"
        }
      ],
      "stateMutability": "view",
      "type": "function"
    },
    {
      "inputs": [
        {
          "internalType": "string",
          "name": "url",
          "type": "string"
        }
      ],
      "name": "isAddressApprovedForUrl",
      "outputs": [
        {
          "internalType": "bool",
          "name": "",
          "type": "bool"
        }
      ],
      "stateMutability": "view",
      "type": "function"
    },
    {
      "inputs": [
        {
          "internalType": "address",
          "name": "owner",
          "type": "address"
        },
        {
          "internalType": "address",
          "name": "operator",
          "type": "address"
        }
      ],
      "name": "isApprovedForAll",
      "outputs": [
        {
          "internalType": "bool",
          "name": "",
          "type": "bool"
        }
      ],
      "stateMutability": "view",
      "type": "function"
    },
    {
      "inputs": [
        {
          "internalType": "string",
          "name": "url",
          "type": "string"
        }
      ],
      "name": "mint",
      "outputs": [
        {
          "internalType": "uint256",
          "name": "",
          "type": "uint256"
        }
      ],
      "stateMutability": "nonpayable",
      "type": "function"
    },
    {
      "inputs": [],
      "name": "name",
      "outputs": [
        {
          "internalType": "string",
          "name": "",
          "type": "string"
        }
      ],
      "stateMutability": "view",
      "type": "function"
    },
    {
      "inputs": [
        {
          "internalType": "uint256",
          "name": "tokenId",
          "type": "uint256"
        }
      ],
      "name": "ownerOf",
      "outputs": [
        {
          "internalType": "address",
          "name": "",
          "type": "address"
        }
      ],
      "stateMutability": "view",
      "type": "function"
    },
    {
      "inputs": [
        {
          "internalType": "address",
          "name": "requester",
          "type": "address"
        }
      ],
      "name": "requestProofBody",
      "outputs": [
        {
          "internalType": "string",
          "name": "",
          "type": "string"
        }
      ],
      "stateMutability": "pure",
      "type": "function"
    },
    {
      "inputs": [
        {
          "internalType": "string",
          "name": "_domain",
          "type": "string"
        }
      ],
      "name": "requestProofVerification",
      "outputs": [
        {
          "internalType": "bytes32",
          "name": "requestId",
          "type": "bytes32"
        }
      ],
      "stateMutability": "nonpayable",
      "type": "function"
    },
    {
      "inputs": [
        {
          "internalType": "address",
          "name": "from",
          "type": "address"
        },
        {
          "internalType": "address",
          "name": "to",
          "type": "address"
        },
        {
          "internalType": "uint256",
          "name": "tokenId",
          "type": "uint256"
        }
      ],
      "name": "safeTransferFrom",
      "outputs": [],
      "stateMutability": "nonpayable",
      "type": "function"
    },
    {
      "inputs": [
        {
          "internalType": "address",
          "name": "from",
          "type": "address"
        },
        {
          "internalType": "address",
          "name": "to",
          "type": "address"
        },
        {
          "internalType": "uint256",
          "name": "tokenId",
          "type": "uint256"
        },
        {
          "internalType": "bytes",
          "name": "_data",
          "type": "bytes"
        }
      ],
      "name": "safeTransferFrom",
      "outputs": [],
      "stateMutability": "nonpayable",
      "type": "function"
    },
    {
      "inputs": [
        {
          "internalType": "address",
          "name": "operator",
          "type": "address"
        },
        {
          "internalType": "bool",
          "name": "approved",
          "type": "bool"
        }
      ],
      "name": "setApprovalForAll",
      "outputs": [],
      "stateMutability": "nonpayable",
      "type": "function"
    },
    {
      "inputs": [
        {
          "internalType": "bytes4",
          "name": "interfaceId",
          "type": "bytes4"
        }
      ],
      "name": "supportsInterface",
      "outputs": [
        {
          "internalType": "bool",
          "name": "",
          "type": "bool"
        }
      ],
      "stateMutability": "view",
      "type": "function"
    },
    {
      "inputs": [],
      "name": "symbol",
      "outputs": [
        {
          "internalType": "string",
          "name": "",
          "type": "string"
        }
      ],
      "stateMutability": "view",
      "type": "function"
    },
    {
      "inputs": [],
      "name": "tokenCounter",
      "outputs": [
        {
          "internalType": "uint256",
          "name": "",
          "type": "uint256"
        }
      ],
      "stateMutability": "view",
      "type": "function"
    },
    {
      "inputs": [
        {
          "internalType": "uint256",
          "name": "tokenId",
          "type": "uint256"
        }
      ],
      "name": "tokenURI",
      "outputs": [
        {
          "internalType": "string",
          "name": "",
          "type": "string"
        }
      ],
      "stateMutability": "view",
      "type": "function"
    },
    {
      "inputs": [
        {
          "internalType": "address",
          "name": "from",
          "type": "address"
        },
        {
          "internalType": "address",
          "name": "to",
          "type": "address"
        },
        {
          "internalType": "uint256",
          "name": "tokenId",
          "type": "uint256"
        }
      ],
      "name": "transferFrom",
      "outputs": [],
      "stateMutability": "nonpayable",
      "type": "function"
    },
    {
      "inputs": [
        {
          "internalType": "address",
          "name": "",
          "type": "address"
        },
        {
          "internalType": "uint256",
          "name": "",
          "type": "uint256"
        }
      ],
      "name": "verifiedDomains",
      "outputs": [
        {
          "internalType": "bytes32",
          "name": "",
          "type": "bytes32"
        }
      ],
      "stateMutability": "view",
      "type": "function"
    }
  ],
  "transactionHash": "0x9fbff5346bca83372027f44ed323ec3d9130e4766c8d3774d20a7b7c7cb36b04",
  "args": [
    "0xfF07C97631Ff3bAb5e5e5660Cdf47AdEd8D4d4Fd",
    "0xa36085F69e2889c224210F603D836748e7dC0088",
    {
      "0": 55,
      "1": 57,
      "2": 49,
      "3": 98,
      "4": 100,
      "5": 55,
      "6": 51,
      "7": 99,
      "8": 56,
      "9": 97,
      "10": 49,
      "11": 51,
      "12": 52,
      "13": 57,
      "14": 56,
      "15": 53,
      "16": 57,
      "17": 102,
      "18": 48,
      "19": 57,
      "20": 98,
      "21": 49,
      "22": 99,
      "23": 98,
      "24": 56,
      "25": 55,
      "26": 51,
      "27": 48,
      "28": 52,
      "29": 102,
      "30": 55,
      "31": 49
    },
    "100000000000000000"
  ],
  "numDeployments": 4,
  "solcInputHash": "07348ecc37558dbeb70d51c236be20eb",
  "bytecode": "0x608060405260016004553480156200001657600080fd5b50604051620058d5380380620058d583398181016040528101906200003c9190620003ae565b6040518060400160405280600881526020017f50756c69747a65720000000000000000000000000000000000000000000000008152506040518060400160405280600381526020017f50554c00000000000000000000000000000000000000000000000000000000008152508160069080519060200190620000c092919062000287565b508060079080519060200190620000d992919062000287565b5050506000601281905550600073ffffffffffffffffffffffffffffffffffffffff168373ffffffffffffffffffffffffffffffffffffffff16141562000130576200012a6200019b60201b60201c565b62000142565b62000141836200024360201b60201c565b5b83600f60006101000a81548173ffffffffffffffffffffffffffffffffffffffff021916908373ffffffffffffffffffffffffffffffffffffffff16021790555081601081905550806011819055505050505062000520565b6200024173c89bd4e1632d3a43cb03aaad5262cbe4038bc57173ffffffffffffffffffffffffffffffffffffffff166338cc48316040518163ffffffff1660e01b815260040160206040518083038186803b158015620001fa57600080fd5b505afa1580156200020f573d6000803e3d6000fd5b505050506040513d601f19601f820116820180604052508101906200023591906200037c565b6200024360201b60201c565b565b80600260006101000a81548173ffffffffffffffffffffffffffffffffffffffff021916908373ffffffffffffffffffffffffffffffffffffffff16021790555050565b828054620002959062000468565b90600052602060002090601f016020900481019282620002b9576000855562000305565b82601f10620002d457805160ff191683800117855562000305565b8280016001018555821562000305579182015b8281111562000304578251825591602001919060010190620002e7565b5b50905062000314919062000318565b5090565b5b808211156200033357600081600090555060010162000319565b5090565b6000815190506200034881620004d2565b92915050565b6000815190506200035f81620004ec565b92915050565b600081519050620003768162000506565b92915050565b600060208284031215620003955762000394620004cd565b5b6000620003a58482850162000337565b91505092915050565b60008060008060808587031215620003cb57620003ca620004cd565b5b6000620003db8782880162000337565b9450506020620003ee8782880162000337565b935050604062000401878288016200034e565b9250506060620004148782880162000365565b91505092959194509250565b60006200042d826200043e565b9050919050565b6000819050919050565b600073ffffffffffffffffffffffffffffffffffffffff82169050919050565b6000819050919050565b600060028204905060018216806200048157607f821691505b602082108114156200049857620004976200049e565b5b50919050565b7f4e487b7100000000000000000000000000000000000000000000000000000000600052602260045260246000fd5b600080fd5b620004dd8162000420565b8114620004e957600080fd5b50565b620004f78162000434565b81146200050357600080fd5b50565b62000511816200045e565b81146200051d57600080fd5b50565b6153a580620005306000396000f3fe608060405234801561001057600080fd5b506004361061014d5760003560e01c80638841a241116100c3578063c87b56dd1161007c578063c87b56dd146103fa578063d082e3811461042a578063d85d3d2714610448578063ddd8cc2c14610478578063e985e9c5146104a8578063fd68990a146104d85761014d565b80638841a241146103145780639116dcda1461034457806395d89b4114610374578063a22cb46514610392578063b1afdbdf146103ae578063b88d4fde146103de5761014d565b80633d7b58bb116101155780633d7b58bb1461020857806342842e0e146102385780634831f32d146102545780636352211e1461028457806370a08231146102b457806371aee193146102e45761014d565b806301ffc9a71461015257806306fdde0314610182578063081812fc146101a0578063095ea7b3146101d057806323b872dd146101ec575b600080fd5b61016c60048036038101906101679190613a6b565b6104f4565b604051610179919061427e565b60405180910390f35b61018a6105d6565b60405161019791906142b4565b60405180910390f35b6101ba60048036038101906101b59190613b0e565b610668565b6040516101c7919061409a565b60405180910390f35b6101ea60048036038101906101e591906139be565b6106ed565b005b610206600480360381019061020191906138a8565b610805565b005b610222600480360381019061021d9190613ac5565b610865565b60405161022f919061427e565b60405180910390f35b610252600480360381019061024d91906138a8565b610877565b005b61026e60048036038101906102699190613ac5565b610897565b60405161027b919061427e565b60405180910390f35b61029e60048036038101906102999190613b0e565b6108ba565b6040516102ab919061409a565b60405180910390f35b6102ce60048036038101906102c9919061383b565b61096c565b6040516102db9190614576565b60405180910390f35b6102fe60048036038101906102f99190613ac5565b610a24565b60405161030b91906142b4565b60405180910390f35b61032e60048036038101906103299190613ac5565b610a74565b60405161033b91906142b4565b60405180910390f35b61035e6004803603810190610359919061383b565b610a86565b60405161036b91906142b4565b60405180910390f35b61037c610d89565b60405161038991906142b4565b60405180910390f35b6103ac60048036038101906103a7919061397e565b610e1b565b005b6103c860048036038101906103c391906139be565b610e31565b6040516103d59190614299565b60405180910390f35b6103f860048036038101906103f391906138fb565b610e62565b005b610414600480360381019061040f9190613b0e565b610ec4565b60405161042191906142b4565b60405180910390f35b610432611016565b60405161043f9190614576565b60405180910390f35b610462600480360381019061045d9190613ac5565b61101c565b60405161046f9190614576565b60405180910390f35b610492600480360381019061048d9190613ac5565b6110d3565b60405161049f9190614299565b60405180910390f35b6104c260048036038101906104bd9190613868565b6113ba565b6040516104cf919061427e565b60405180910390f35b6104f260048036038101906104ed9190613a2b565b61144e565b005b60007f80ac58cd000000000000000000000000000000000000000000000000000000007bffffffffffffffffffffffffffffffffffffffffffffffffffffffff1916827bffffffffffffffffffffffffffffffffffffffffffffffffffffffff191614806105bf57507f5b5e139f000000000000000000000000000000000000000000000000000000007bffffffffffffffffffffffffffffffffffffffffffffffffffffffff1916827bffffffffffffffffffffffffffffffffffffffffffffffffffffffff1916145b806105cf57506105ce8261171d565b5b9050919050565b6060600680546105e5906149d7565b80601f0160208091040260200160405190810160405280929190818152602001828054610611906149d7565b801561065e5780601f106106335761010080835404028352916020019161065e565b820191906000526020600020905b81548152906001019060200180831161064157829003601f168201915b5050505050905090565b600061067382611787565b6106b2576040517f08c379a00000000000000000000000000000000000000000000000000000000081526004016106a9906144d6565b60405180910390fd5b600a600083815260200190815260200160002060009054906101000a900473ffffffffffffffffffffffffffffffffffffffff169050919050565b60006106f8826108ba565b90508073ffffffffffffffffffffffffffffffffffffffff168373ffffffffffffffffffffffffffffffffffffffff161415610769576040517f08c379a000000000000000000000000000000000000000000000000000000000815260040161076090614516565b60405180910390fd5b8073ffffffffffffffffffffffffffffffffffffffff166107886117f3565b73ffffffffffffffffffffffffffffffffffffffff1614806107b757506107b6816107b16117f3565b6113ba565b5b6107f6576040517f08c379a00000000000000000000000000000000000000000000000000000000081526004016107ed906143f6565b60405180910390fd5b61080083836117fb565b505050565b6108166108106117f3565b826118b4565b610855576040517f08c379a000000000000000000000000000000000000000000000000000000000815260040161084c90614536565b60405180910390fd5b610860838383611992565b505050565b600061087082611bf9565b9050919050565b61089283838360405180602001604052806000815250610e62565b505050565b60006108b36108ad6108a884610a74565b611d17565b33611d47565b9050919050565b6000806008600084815260200190815260200160002060009054906101000a900473ffffffffffffffffffffffffffffffffffffffff169050600073ffffffffffffffffffffffffffffffffffffffff168173ffffffffffffffffffffffffffffffffffffffff161415610963576040517f08c379a000000000000000000000000000000000000000000000000000000000815260040161095a90614456565b60405180910390fd5b80915050919050565b60008073ffffffffffffffffffffffffffffffffffffffff168273ffffffffffffffffffffffffffffffffffffffff1614156109dd576040517f08c379a00000000000000000000000000000000000000000000000000000000081526004016109d490614436565b60405180910390fd5b600960008373ffffffffffffffffffffffffffffffffffffffff1673ffffffffffffffffffffffffffffffffffffffff168152602001908152602001600020549050919050565b6060610a4e82604051602001610a3a9190614035565b604051602081830303815290604052611e23565b604051602001610a5e9190614078565b6040516020818303038152906040529050919050565b6060610a7f82611f87565b9050919050565b606060008273ffffffffffffffffffffffffffffffffffffffff1660001b905060006040518060400160405280601081526020017f303132333435363738396162636465660000000000000000000000000000000081525090506000602a67ffffffffffffffff811115610afd57610afc614b9e565b5b6040519080825280601f01601f191660200182016040528015610b2f5781602001600182028036833780820191505090505b5090507f300000000000000000000000000000000000000000000000000000000000000081600081518110610b6757610b66614b6f565b5b60200101907effffffffffffffffffffffffffffffffffffffffffffffffffffffffffffff1916908160001a9053507f780000000000000000000000000000000000000000000000000000000000000081600181518110610bcb57610bca614b6f565b5b60200101907effffffffffffffffffffffffffffffffffffffffffffffffffffffffffffff1916908160001a90535060005b6014811015610d7d5782600485600c84610c17919061465b565b60208110610c2857610c27614b6f565b5b1a60f81b7effffffffffffffffffffffffffffffffffffffffffffffffffffffffffffff1916901c60f81c60ff1681518110610c6757610c66614b6f565b5b602001015160f81c60f81b82600283610c809190614853565b6002610c8c919061465b565b81518110610c9d57610c9c614b6f565b5b60200101907effffffffffffffffffffffffffffffffffffffffffffffffffffffffffffff1916908160001a90535082600f60f81b85600c84610ce0919061465b565b60208110610cf157610cf0614b6f565b5b1a60f81b1660f81c60ff1681518110610d0d57610d0c614b6f565b5b602001015160f81c60f81b82600283610d269190614853565b6003610d32919061465b565b81518110610d4357610d42614b6f565b5b60200101907effffffffffffffffffffffffffffffffffffffffffffffffffffffffffffff1916908160001a905350806001019050610bfd565b50809350505050919050565b606060078054610d98906149d7565b80601f0160208091040260200160405190810160405280929190818152602001828054610dc4906149d7565b8015610e115780601f10610de657610100808354040283529160200191610e11565b820191906000526020600020905b815481529060010190602001808311610df457829003601f168201915b5050505050905090565b610e2d610e266117f3565b8383612129565b5050565b600d6020528160005260406000208181548110610e4d57600080fd5b90600052602060002001600091509150505481565b610e73610e6d6117f3565b836118b4565b610eb2576040517f08c379a0000000000000000000000000000000000000000000000000000000008152600401610ea990614536565b60405180910390fd5b610ebe84848484612296565b50505050565b6060610ecf82611787565b610f0e576040517f08c379a0000000000000000000000000000000000000000000000000000000008152600401610f05906144b6565b60405180910390fd5b6000600c60008481526020019081526020016000208054610f2e906149d7565b80601f0160208091040260200160405190810160405280929190818152602001828054610f5a906149d7565b8015610fa75780601f10610f7c57610100808354040283529160200191610fa7565b820191906000526020600020905b815481529060010190602001808311610f8a57829003601f168201915b505050505090506000610fb86122f2565b9050600081511415610fce578192505050611011565b600082511115611003578082604051602001610feb929190614011565b60405160208183030381529060405292505050611011565b61100c84612309565b925050505b919050565b60125481565b600061102782610897565b611066576040517f08c379a000000000000000000000000000000000000000000000000000000000815260040161105d90614476565b60405180910390fd5b6000601254905061107733826123b0565b7f0ba9941cdcb2c0287940b5f6ab7e4f7c6752775fca32397f9c2083b2ccc03aa23382856040516110aa93929190614240565b60405180910390a1601260008154809291906110c590614a3a565b919050555080915050919050565b60006110de82610865565b61111d576040517f08c379a000000000000000000000000000000000000000000000000000000000815260040161111490614416565b60405180910390fd5b600061112883611d17565b90506111348133611d47565b15611174576040517f08c379a000000000000000000000000000000000000000000000000000000000815260040161116b906142d6565b60405180910390fd5b600061118a6010543063fd68990a60e01b6123ce565b905061120b6040518060400160405280600481526020017f74797065000000000000000000000000000000000000000000000000000000008152506040518060400160405280600381526020017f5458540000000000000000000000000000000000000000000000000000000000815250836123ff9092919063ffffffff16565b6112556040518060400160405280600481526020017f6e616d650000000000000000000000000000000000000000000000000000000081525085836123ff9092919063ffffffff16565b6112a76040518060400160405280600681526020017f7265636f7264000000000000000000000000000000000000000000000000000081525061129733610a86565b836123ff9092919063ffffffff16565b60006112d8600f60009054906101000a900473ffffffffffffffffffffffffffffffffffffffff1683601154612432565b905060405180604001604052803373ffffffffffffffffffffffffffffffffffffffff16815260200184815250600e600083815260200190815260200160002060008201518160000160006101000a81548173ffffffffffffffffffffffffffffffffffffffff021916908373ffffffffffffffffffffffffffffffffffffffff160217905550602082015181600101559050507f2d704ba7fe0dd3ed1e983912865668cf7f26e752ae41102d378b3f76838c5acc338661139833610a86565b6040516113a793929190614138565b60405180910390a1809350505050919050565b6000600b60008473ffffffffffffffffffffffffffffffffffffffff1673ffffffffffffffffffffffffffffffffffffffff16815260200190815260200160002060008373ffffffffffffffffffffffffffffffffffffffff1673ffffffffffffffffffffffffffffffffffffffff16815260200190815260200160002060009054906101000a900460ff16905092915050565b816005600082815260200190815260200160002060009054906101000a900473ffffffffffffffffffffffffffffffffffffffff1673ffffffffffffffffffffffffffffffffffffffff163373ffffffffffffffffffffffffffffffffffffffff16146114f0576040517f08c379a00000000000000000000000000000000000000000000000000000000081526004016114e790614556565b60405180910390fd5b6005600082815260200190815260200160002060006101000a81549073ffffffffffffffffffffffffffffffffffffffff0219169055807f7cc135e0cebb02c3480ae5d74d377283180a2601f8f644edf7987b009316c63a60405160405180910390a28115611692576000600e60008581526020019081526020016000206040518060400160405290816000820160009054906101000a900473ffffffffffffffffffffffffffffffffffffffff1673ffffffffffffffffffffffffffffffffffffffff1673ffffffffffffffffffffffffffffffffffffffff1681526020016001820154815250509050600d6000826000015173ffffffffffffffffffffffffffffffffffffffff1673ffffffffffffffffffffffffffffffffffffffff168152602001908152602001600020816020015190806001815401808255809150506001900390600052602060002001600090919091909150557f1cde586e41a7124b5b326865fb52a05494a4c703975f8401f573287f5dab2703816000015182602001518560405161168493929190614101565b60405180910390a1506116d3565b7f1cde586e41a7124b5b326865fb52a05494a4c703975f8401f573287f5dab270360008060001b60006040516116ca93929190614101565b60405180910390a15b600e6000848152602001908152602001600020600080820160006101000a81549073ffffffffffffffffffffffffffffffffffffffff021916905560018201600090555050505050565b60007f01ffc9a7000000000000000000000000000000000000000000000000000000007bffffffffffffffffffffffffffffffffffffffffffffffffffffffff1916827bffffffffffffffffffffffffffffffffffffffffffffffffffffffff1916149050919050565b60008073ffffffffffffffffffffffffffffffffffffffff166008600084815260200190815260200160002060009054906101000a900473ffffffffffffffffffffffffffffffffffffffff1673ffffffffffffffffffffffffffffffffffffffff1614159050919050565b600033905090565b81600a600083815260200190815260200160002060006101000a81548173ffffffffffffffffffffffffffffffffffffffff021916908373ffffffffffffffffffffffffffffffffffffffff160217905550808273ffffffffffffffffffffffffffffffffffffffff1661186e836108ba565b73ffffffffffffffffffffffffffffffffffffffff167f8c5be1e5ebec7d5bd14f71427d1e84f3dd0314c0f7b2291e5b200ac8c7c3b92560405160405180910390a45050565b60006118bf82611787565b6118fe576040517f08c379a00000000000000000000000000000000000000000000000000000000081526004016118f5906143d6565b60405180910390fd5b6000611909836108ba565b90508073ffffffffffffffffffffffffffffffffffffffff168473ffffffffffffffffffffffffffffffffffffffff16148061197857508373ffffffffffffffffffffffffffffffffffffffff1661196084610668565b73ffffffffffffffffffffffffffffffffffffffff16145b80611989575061198881856113ba565b5b91505092915050565b8273ffffffffffffffffffffffffffffffffffffffff166119b2826108ba565b73ffffffffffffffffffffffffffffffffffffffff1614611a08576040517f08c379a00000000000000000000000000000000000000000000000000000000081526004016119ff90614316565b60405180910390fd5b600073ffffffffffffffffffffffffffffffffffffffff168273ffffffffffffffffffffffffffffffffffffffff161415611a78576040517f08c379a0000000000000000000000000000000000000000000000000000000008152600401611a6f90614376565b60405180910390fd5b611a838383836124fe565b611a8e6000826117fb565b6001600960008573ffffffffffffffffffffffffffffffffffffffff1673ffffffffffffffffffffffffffffffffffffffff1681526020019081526020016000206000828254611ade91906148ad565b925050819055506001600960008473ffffffffffffffffffffffffffffffffffffffff1673ffffffffffffffffffffffffffffffffffffffff1681526020019081526020016000206000828254611b35919061465b565b92505081905550816008600083815260200190815260200160002060006101000a81548173ffffffffffffffffffffffffffffffffffffffff021916908373ffffffffffffffffffffffffffffffffffffffff160217905550808273ffffffffffffffffffffffffffffffffffffffff168473ffffffffffffffffffffffffffffffffffffffff167fddf252ad1be2c89b69c2b068fc378daa952ba7f163c4a11628f55a4df523b3ef60405160405180910390a4611bf4838383612503565b505050565b600080611c0583612508565b90506000611c59611c4a6040518060400160405280600181526020017f2f00000000000000000000000000000000000000000000000000000000000000815250612508565b8361253690919063ffffffff16565b14611c8957611c7f6040518060600160405280602581526020016152e4602591396125de565b6000915050611d12565b6001611cdb611ccc6040518060400160405280600181526020017f2e00000000000000000000000000000000000000000000000000000000000000815250612508565b8361253690919063ffffffff16565b1115611d0c57611d02604051806060016040528060278152602001615349602791396125de565b6000915050611d12565b60019150505b919050565b600081604051602001611d2a91906142b4565b604051602081830303815290604052805190602001209050919050565b600080600090506000600d60008573ffffffffffffffffffffffffffffffffffffffff1673ffffffffffffffffffffffffffffffffffffffff16815260200190815260200160002080549050905060005b81811015611e175785600d60008773ffffffffffffffffffffffffffffffffffffffff1673ffffffffffffffffffffffffffffffffffffffff1681526020019081526020016000208281548110611df257611df1614b6f565b5b90600052602060002001541415611e0c5760019250611e17565b806001019050611d98565b50819250505092915050565b6060600082511415611e4657604051806020016040528060008152509050611f82565b60006040518060600160405280604081526020016153096040913990506000600360028551611e75919061465b565b611e7f91906146b1565b6004611e8b9190614853565b67ffffffffffffffff811115611ea457611ea3614b9e565b5b6040519080825280601f01601f191660200182016040528015611ed65781602001600182028036833780820191505090505b509050600182016020820185865187015b80821015611f42576003820191508151603f8160121c168501518453600184019350603f81600c1c168501518453600184019350603f8160061c168501518453600184019350603f8116850151845360018401935050611ee7565b5050600386510660018114611f5e5760028114611f7157611f79565b603d6001830353603d6002830353611f79565b603d60018303535b50505080925050505b919050565b60606000611f9483612508565b90506000611fd66040518060400160405280600381526020017f3a2f2f0000000000000000000000000000000000000000000000000000000000815250612508565b90506001611fed828461253690919063ffffffff16565b1461202d576040517faf64694e000000000000000000000000000000000000000000000000000000008152600401612024906143b6565b60405180910390fd5b612035613627565b61204a8282856126779092919063ffffffff16565b5061209d61208c6040518060400160405280600181526020017f2f00000000000000000000000000000000000000000000000000000000000000815250612508565b82856126779092919063ffffffff16565b5060006120de6040518060400160405280600181526020017f2e00000000000000000000000000000000000000000000000000000000000000815250612508565b90505b60016120f6828461253690919063ffffffff16565b11156121155761210f818361274290919063ffffffff16565b506120e1565b61211e8261275c565b945050505050919050565b8173ffffffffffffffffffffffffffffffffffffffff168373ffffffffffffffffffffffffffffffffffffffff161415612198576040517f08c379a000000000000000000000000000000000000000000000000000000000815260040161218f90614396565b60405180910390fd5b80600b60008573ffffffffffffffffffffffffffffffffffffffff1673ffffffffffffffffffffffffffffffffffffffff16815260200190815260200160002060008473ffffffffffffffffffffffffffffffffffffffff1673ffffffffffffffffffffffffffffffffffffffff16815260200190815260200160002060006101000a81548160ff0219169083151502179055508173ffffffffffffffffffffffffffffffffffffffff168373ffffffffffffffffffffffffffffffffffffffff167f17307eab39ab6107e8899845ad3d59bd9653f200f220920489ca2b5937696c3183604051612289919061427e565b60405180910390a3505050565b6122a1848484611992565b6122ad848484846127d8565b6122ec576040517f08c379a00000000000000000000000000000000000000000000000000000000081526004016122e3906142f6565b60405180910390fd5b50505050565b606060405180602001604052806000815250905090565b606061231482611787565b612353576040517f08c379a000000000000000000000000000000000000000000000000000000000815260040161234a906144f6565b60405180910390fd5b600061235d6122f2565b9050600081511161237d57604051806020016040528060008152506123a8565b806123878461296f565b604051602001612398929190614011565b6040516020818303038152906040525b915050919050565b6123ca828260405180602001604052806000815250612ad0565b5050565b6123d6613641565b6123de613641565b6123f585858584612b2b909392919063ffffffff16565b9150509392505050565b612416828460800151612bdb90919063ffffffff16565b61242d818460800151612bdb90919063ffffffff16565b505050565b6000806004549050600181612447919061465b565b6004819055506000634042994660e01b60008087600001513089604001518760018c608001516000015160405160240161248898979695949392919061417d565b604051602081830303815290604052907bffffffffffffffffffffffffffffffffffffffffffffffffffffffff19166020820180517bffffffffffffffffffffffffffffffffffffffffffffffffffffffff838183161783525050505090506124f386838684612c00565b925050509392505050565b505050565b505050565b612510613627565b600060208301905060405180604001604052808451815260200182815250915050919050565b600080826000015161255a8560000151866020015186600001518760200151612da4565b612564919061465b565b90505b8360000151846020015161257b919061465b565b81116125d757818061258c90614a3a565b92505082600001516125c68560200151836125a791906148ad565b86600001516125b691906148ad565b8386600001518760200151612da4565b6125d0919061465b565b9050612567565b5092915050565b612674816040516024016125f291906142b4565b6040516020818303038152906040527f41304fac000000000000000000000000000000000000000000000000000000007bffffffffffffffffffffffffffffffffffffffffffffffffffffffff19166020820180517bffffffffffffffffffffffffffffffffffffffffffffffffffffffff8381831617835250505050612eee565b50565b61267f613627565b600061269d8560000151866020015186600001518760200151612da4565b905084602001518360200181815250508460200151816126bd91906148ad565b836000018181525050846000015185602001516126da919061465b565b8114156126f1576000856000018181525050612737565b83600001518360000151612705919061465b565b8560000181815161271691906148ad565b9150818152505083600001518161272d919061465b565b8560200181815250505b829150509392505050565b61274a613627565b612755838383612677565b5092915050565b60606000826000015167ffffffffffffffff81111561277e5761277d614b9e565b5b6040519080825280601f01601f1916602001820160405280156127b05781602001600182028036833780820191505090505b50905060006020820190506127ce8185602001518660000151612f17565b8192505050919050565b60006127f98473ffffffffffffffffffffffffffffffffffffffff16612fc3565b15612962578373ffffffffffffffffffffffffffffffffffffffff1663150b7a026128226117f3565b8786866040518563ffffffff1660e01b815260040161284494939291906140b5565b602060405180830381600087803b15801561285e57600080fd5b505af192505050801561288f57506040513d601f19601f8201168201806040525081019061288c9190613a98565b60015b612912573d80600081146128bf576040519150601f19603f3d011682016040523d82523d6000602084013e6128c4565b606091505b5060008151141561290a576040517f08c379a0000000000000000000000000000000000000000000000000000000008152600401612901906142f6565b60405180910390fd5b805181602001fd5b63150b7a0260e01b7bffffffffffffffffffffffffffffffffffffffffffffffffffffffff1916817bffffffffffffffffffffffffffffffffffffffffffffffffffffffff191614915050612967565b600190505b949350505050565b606060008214156129b7576040518060400160405280600181526020017f30000000000000000000000000000000000000000000000000000000000000008152509050612acb565b600082905060005b600082146129e95780806129d290614a3a565b915050600a826129e291906146b1565b91506129bf565b60008167ffffffffffffffff811115612a0557612a04614b9e565b5b6040519080825280601f01601f191660200182016040528015612a375781602001600182028036833780820191505090505b5090505b60008514612ac457600182612a5091906148ad565b9150600a85612a5f9190614ab1565b6030612a6b919061465b565b60f81b818381518110612a8157612a80614b6f565b5b60200101907effffffffffffffffffffffffffffffffffffffffffffffffffffffffffffff1916908160001a905350600a85612abd91906146b1565b9450612a3b565b8093505050505b919050565b612ada8383612fe6565b612ae760008484846127d8565b612b26576040517f08c379a0000000000000000000000000000000000000000000000000000000008152600401612b1d906142f6565b60405180910390fd5b505050565b612b33613641565b612b4385608001516101006131c0565b508385600001818152505082856020019073ffffffffffffffffffffffffffffffffffffffff16908173ffffffffffffffffffffffffffffffffffffffff16815250508185604001907bffffffffffffffffffffffffffffffffffffffffffffffffffffffff191690817bffffffffffffffffffffffffffffffffffffffffffffffffffffffff191681525050849050949350505050565b612be8826003835161322a565b612bfb81836133af90919063ffffffff16565b505050565b60003084604051602001612c15929190613fe5565b604051602081830303815290604052805190602001209050846005600083815260200190815260200160002060006101000a81548173ffffffffffffffffffffffffffffffffffffffff021916908373ffffffffffffffffffffffffffffffffffffffff160217905550807fb5e6e01e79f91267dc17b4e6314d5d4d03593d2ceee0fbb452b750bd70ea5af960405160405180910390a2600260009054906101000a900473ffffffffffffffffffffffffffffffffffffffff1673ffffffffffffffffffffffffffffffffffffffff16634000aea08685856040518463ffffffff1660e01b8152600401612d0b93929190614202565b602060405180830381600087803b158015612d2557600080fd5b505af1158015612d39573d6000803e3d6000fd5b505050506040513d601f19601f82011682018060405250810190612d5d91906139fe565b612d9c576040517f08c379a0000000000000000000000000000000000000000000000000000000008152600401612d9390614356565b60405180910390fd5b949350505050565b6000808490506000868511612ed55760208511612e7757600080861115612dfd576001866020612dd491906148ad565b6008612de09190614853565b6002612dec9190614735565b612df691906148ad565b1960001b90505b60008186511690506000878a8a612e14919061465b565b612e1e91906148ad565b905060008386511690505b828114612e6957818610612e50578a8a612e43919061465b565b9650505050505050612ee6565b8580612e5b90614a3a565b965050838651169050612e29565b859650505050505050612ee6565b60008585209050600091505b8588612e8f91906148ad565b8211612ed3576000868420905080821415612eb05783945050505050612ee6565b600184612ebd919061465b565b9350508180612ecb90614a3a565b925050612e83565b505b8686612ee1919061465b565b925050505b949350505050565b60008151905060006a636f6e736f6c652e6c6f679050602083016000808483855afa5050505050565b5b60208110612f565781518352602083612f31919061465b565b9250602082612f40919061465b565b9150602081612f4f91906148ad565b9050612f18565b60007fffffffffffffffffffffffffffffffffffffffffffffffffffffffffffffffff90506000821115612fad576001826020612f9391906148ad565b610100612fa09190614735565b612faa91906148ad565b90505b8019835116818551168181178652505050505050565b6000808273ffffffffffffffffffffffffffffffffffffffff163b119050919050565b600073ffffffffffffffffffffffffffffffffffffffff168273ffffffffffffffffffffffffffffffffffffffff161415613056576040517f08c379a000000000000000000000000000000000000000000000000000000000815260040161304d90614496565b60405180910390fd5b61305f81611787565b1561309f576040517f08c379a000000000000000000000000000000000000000000000000000000000815260040161309690614336565b60405180910390fd5b6130ab600083836124fe565b6001600960008473ffffffffffffffffffffffffffffffffffffffff1673ffffffffffffffffffffffffffffffffffffffff16815260200190815260200160002060008282546130fb919061465b565b92505081905550816008600083815260200190815260200160002060006101000a81548173ffffffffffffffffffffffffffffffffffffffff021916908373ffffffffffffffffffffffffffffffffffffffff160217905550808273ffffffffffffffffffffffffffffffffffffffff16600073ffffffffffffffffffffffffffffffffffffffff167fddf252ad1be2c89b69c2b068fc378daa952ba7f163c4a11628f55a4df523b3ef60405160405180910390a46131bc60008383612503565b5050565b6131c86136ae565b60006020836131d79190614ab1565b14613203576020826131e99190614ab1565b60206131f591906148ad565b82613200919061465b565b91505b81836020018181525050604051808452600081528281016020016040525082905092915050565b60178167ffffffffffffffff16116132615761325b8160058460ff16901b60ff1617846133d190919063ffffffff16565b506133aa565b60ff8167ffffffffffffffff16116132b757613290601860058460ff16901b17846133d190919063ffffffff16565b506132b18167ffffffffffffffff166001856133f19092919063ffffffff16565b506133a9565b61ffff8167ffffffffffffffff161161330e576132e7601960058460ff16901b17846133d190919063ffffffff16565b506133088167ffffffffffffffff166002856133f19092919063ffffffff16565b506133a8565b63ffffffff8167ffffffffffffffff161161336757613340601a60058460ff16901b17846133d190919063ffffffff16565b506133618167ffffffffffffffff166004856133f19092919063ffffffff16565b506133a7565b613384601b60058460ff16901b17846133d190919063ffffffff16565b506133a58167ffffffffffffffff166008856133f19092919063ffffffff16565b505b5b5b5b505050565b6133b76136ae565b6133c983846000015151848551613413565b905092915050565b6133d96136ae565b6133e98384600001515184613502565b905092915050565b6133f96136ae565b61340a848560000151518585613559565b90509392505050565b61341b6136ae565b825182111561342957600080fd5b8460200151828561343a919061465b565b111561346f5761346e85600261345f8860200151888761345a919061465b565b6135e7565b6134699190614853565b613603565b5b60008086518051876020830101935080888701111561348e5787860182525b60208701925050505b602084106134d557805182526020826134b0919061465b565b91506020816134bf919061465b565b90506020846134ce91906148ad565b9350613497565b60006001856020036101000a03905080198251168184511681811785525050508692505050949350505050565b61350a6136ae565b836020015183106135305761352f846002866020015161352a9190614853565b613603565b5b835180516020858301018481538186141561354c576001820183525b5050508390509392505050565b6135616136ae565b84602001518483613572919061465b565b111561359a57613599856002868561358a919061465b565b6135949190614853565b613603565b5b60006001836101006135ac9190614735565b6135b691906148ad565b905085518386820101858319825116178152815185880111156135d95784870182525b505085915050949350505050565b6000818311156135f9578290506135fd565b8190505b92915050565b60008260000151905061361683836131c0565b5061362183826133af565b50505050565b604051806040016040528060008152602001600081525090565b6040518060a0016040528060008019168152602001600073ffffffffffffffffffffffffffffffffffffffff16815260200160007bffffffffffffffffffffffffffffffffffffffffffffffffffffffff19168152602001600081526020016136a86136ae565b81525090565b604051806040016040528060608152602001600081525090565b60006136db6136d6846145b6565b614591565b9050828152602081018484840111156136f7576136f6614bd2565b5b613702848285614995565b509392505050565b600061371d613718846145e7565b614591565b90508281526020810184848401111561373957613738614bd2565b5b613744848285614995565b509392505050565b60008135905061375b81615270565b92915050565b60008135905061377081615287565b92915050565b60008151905061378581615287565b92915050565b60008135905061379a8161529e565b92915050565b6000813590506137af816152b5565b92915050565b6000815190506137c4816152b5565b92915050565b600082601f8301126137df576137de614bcd565b5b81356137ef8482602086016136c8565b91505092915050565b600082601f83011261380d5761380c614bcd565b5b813561381d84826020860161370a565b91505092915050565b600081359050613835816152cc565b92915050565b60006020828403121561385157613850614bdc565b5b600061385f8482850161374c565b91505092915050565b6000806040838503121561387f5761387e614bdc565b5b600061388d8582860161374c565b925050602061389e8582860161374c565b9150509250929050565b6000806000606084860312156138c1576138c0614bdc565b5b60006138cf8682870161374c565b93505060206138e08682870161374c565b92505060406138f186828701613826565b9150509250925092565b6000806000806080858703121561391557613914614bdc565b5b60006139238782880161374c565b94505060206139348782880161374c565b935050604061394587828801613826565b925050606085013567ffffffffffffffff81111561396657613965614bd7565b5b613972878288016137ca565b91505092959194509250565b6000806040838503121561399557613994614bdc565b5b60006139a38582860161374c565b92505060206139b485828601613761565b9150509250929050565b600080604083850312156139d5576139d4614bdc565b5b60006139e38582860161374c565b92505060206139f485828601613826565b9150509250929050565b600060208284031215613a1457613a13614bdc565b5b6000613a2284828501613776565b91505092915050565b60008060408385031215613a4257613a41614bdc565b5b6000613a508582860161378b565b9250506020613a6185828601613761565b9150509250929050565b600060208284031215613a8157613a80614bdc565b5b6000613a8f848285016137a0565b91505092915050565b600060208284031215613aae57613aad614bdc565b5b6000613abc848285016137b5565b91505092915050565b600060208284031215613adb57613ada614bdc565b5b600082013567ffffffffffffffff811115613af957613af8614bd7565b5b613b05848285016137f8565b91505092915050565b600060208284031215613b2457613b23614bdc565b5b6000613b3284828501613826565b91505092915050565b613b44816148e1565b82525050565b613b53816148f3565b82525050565b613b62816148ff565b82525050565b613b7181614909565b82525050565b6000613b8282614618565b613b8c818561462e565b9350613b9c8185602086016149a4565b613ba581614be1565b840191505092915050565b613bc1613bbc8261495f565b614a83565b82525050565b6000613bd282614623565b613bdc818561463f565b9350613bec8185602086016149a4565b613bf581614be1565b840191505092915050565b6000613c0b82614623565b613c158185614650565b9350613c258185602086016149a4565b80840191505092915050565b6000613c3e60188361463f565b9150613c4982614c0c565b602082019050919050565b6000613c6160328361463f565b9150613c6c82614c35565b604082019050919050565b6000613c8460258361463f565b9150613c8f82614c84565b604082019050919050565b6000613ca7601c8361463f565b9150613cb282614cd3565b602082019050919050565b6000613cca601383614650565b9150613cd582614cfc565b601382019050919050565b6000613ced60238361463f565b9150613cf882614d25565b604082019050919050565b6000613d1060248361463f565b9150613d1b82614d74565b604082019050919050565b6000613d3360198361463f565b9150613d3e82614dc3565b602082019050919050565b6000613d56600c8361463f565b9150613d6182614dec565b602082019050919050565b6000613d79600383614650565b9150613d8482614e15565b600382019050919050565b6000613d9c602c8361463f565b9150613da782614e3e565b604082019050919050565b6000613dbf60388361463f565b9150613dca82614e8d565b604082019050919050565b6000613de2600f8361463f565b9150613ded82614edc565b602082019050919050565b6000613e05602a8361463f565b9150613e1082614f05565b604082019050919050565b6000613e2860298361463f565b9150613e3382614f54565b604082019050919050565b6000613e4b601d8361463f565b9150613e5682614fa3565b602082019050919050565b6000613e6e60208361463f565b9150613e7982614fcc565b602082019050919050565b6000613e9160318361463f565b9150613e9c82614ff5565b604082019050919050565b6000613eb4602c8361463f565b9150613ebf82615044565b604082019050919050565b6000613ed7602f8361463f565b9150613ee282615093565b604082019050919050565b6000613efa602783614650565b9150613f05826150e2565b602782019050919050565b6000613f1d60218361463f565b9150613f2882615131565b604082019050919050565b6000613f40600d83614650565b9150613f4b82615180565b600d82019050919050565b6000613f63601d83614650565b9150613f6e826151a9565b601d82019050919050565b6000613f8660318361463f565b9150613f91826151d2565b604082019050919050565b6000613fa960288361463f565b9150613fb482615221565b604082019050919050565b613fc881614955565b82525050565b613fdf613fda82614955565b614aa7565b82525050565b6000613ff18285613bb0565b6014820191506140018284613fce565b6020820191508190509392505050565b600061401d8285613c00565b91506140298284613c00565b91508190509392505050565b600061404082613cbd565b915061404b82613eed565b915061405682613f33565b91506140628284613c00565b915061406d82613d6c565b915081905092915050565b600061408382613f56565b915061408f8284613c00565b915081905092915050565b60006020820190506140af6000830184613b3b565b92915050565b60006080820190506140ca6000830187613b3b565b6140d76020830186613b3b565b6140e46040830185613fbf565b81810360608301526140f68184613b77565b905095945050505050565b60006060820190506141166000830186613b3b565b6141236020830185613b59565b6141306040830184613b4a565b949350505050565b600060608201905061414d6000830186613b3b565b818103602083015261415f8185613bc7565b905081810360408301526141738184613bc7565b9050949350505050565b600061010082019050614193600083018b613b3b565b6141a0602083018a613fbf565b6141ad6040830189613b59565b6141ba6060830188613b3b565b6141c76080830187613b68565b6141d460a0830186613fbf565b6141e160c0830185613fbf565b81810360e08301526141f38184613b77565b90509998505050505050505050565b60006060820190506142176000830186613b3b565b6142246020830185613fbf565b81810360408301526142368184613b77565b9050949350505050565b60006060820190506142556000830186613b3b565b6142626020830185613fbf565b81810360408301526142748184613bc7565b9050949350505050565b60006020820190506142936000830184613b4a565b92915050565b60006020820190506142ae6000830184613b59565b92915050565b600060208201905081810360008301526142ce8184613bc7565b905092915050565b600060208201905081810360008301526142ef81613c31565b9050919050565b6000602082019050818103600083015261430f81613c54565b9050919050565b6000602082019050818103600083015261432f81613c77565b9050919050565b6000602082019050818103600083015261434f81613c9a565b9050919050565b6000602082019050818103600083015261436f81613ce0565b9050919050565b6000602082019050818103600083015261438f81613d03565b9050919050565b600060208201905081810360008301526143af81613d26565b9050919050565b600060208201905081810360008301526143cf81613d49565b9050919050565b600060208201905081810360008301526143ef81613d8f565b9050919050565b6000602082019050818103600083015261440f81613db2565b9050919050565b6000602082019050818103600083015261442f81613dd5565b9050919050565b6000602082019050818103600083015261444f81613df8565b9050919050565b6000602082019050818103600083015261446f81613e1b565b9050919050565b6000602082019050818103600083015261448f81613e3e565b9050919050565b600060208201905081810360008301526144af81613e61565b9050919050565b600060208201905081810360008301526144cf81613e84565b9050919050565b600060208201905081810360008301526144ef81613ea7565b9050919050565b6000602082019050818103600083015261450f81613eca565b9050919050565b6000602082019050818103600083015261452f81613f10565b9050919050565b6000602082019050818103600083015261454f81613f79565b9050919050565b6000602082019050818103600083015261456f81613f9c565b9050919050565b600060208201905061458b6000830184613fbf565b92915050565b600061459b6145ac565b90506145a78282614a09565b919050565b6000604051905090565b600067ffffffffffffffff8211156145d1576145d0614b9e565b5b6145da82614be1565b9050602081019050919050565b600067ffffffffffffffff82111561460257614601614b9e565b5b61460b82614be1565b9050602081019050919050565b600081519050919050565b600081519050919050565b600082825260208201905092915050565b600082825260208201905092915050565b600081905092915050565b600061466682614955565b915061467183614955565b9250827fffffffffffffffffffffffffffffffffffffffffffffffffffffffffffffffff038211156146a6576146a5614ae2565b5b828201905092915050565b60006146bc82614955565b91506146c783614955565b9250826146d7576146d6614b11565b5b828204905092915050565b6000808291508390505b600185111561472c5780860481111561470857614707614ae2565b5b60018516156147175780820291505b808102905061472585614bff565b94506146ec565b94509492505050565b600061474082614955565b915061474b83614955565b92506147787fffffffffffffffffffffffffffffffffffffffffffffffffffffffffffffffff8484614780565b905092915050565b600082614790576001905061484c565b8161479e576000905061484c565b81600181146147b457600281146147be576147ed565b600191505061484c565b60ff8411156147d0576147cf614ae2565b5b8360020a9150848211156147e7576147e6614ae2565b5b5061484c565b5060208310610133831016604e8410600b84101617156148225782820a90508381111561481d5761481c614ae2565b5b61484c565b61482f84848460016146e2565b9250905081840481111561484657614845614ae2565b5b81810290505b9392505050565b600061485e82614955565b915061486983614955565b9250817fffffffffffffffffffffffffffffffffffffffffffffffffffffffffffffffff04831182151516156148a2576148a1614ae2565b5b828202905092915050565b60006148b882614955565b91506148c383614955565b9250828210156148d6576148d5614ae2565b5b828203905092915050565b60006148ec82614935565b9050919050565b60008115159050919050565b6000819050919050565b60007fffffffff0000000000000000000000000000000000000000000000000000000082169050919050565b600073ffffffffffffffffffffffffffffffffffffffff82169050919050565b6000819050919050565b600061496a82614971565b9050919050565b600061497c82614983565b9050919050565b600061498e82614935565b9050919050565b82818337600083830152505050565b60005b838110156149c25780820151818401526020810190506149a7565b838111156149d1576000848401525b50505050565b600060028204905060018216806149ef57607f821691505b60208210811415614a0357614a02614b40565b5b50919050565b614a1282614be1565b810181811067ffffffffffffffff82111715614a3157614a30614b9e565b5b80604052505050565b6000614a4582614955565b91507fffffffffffffffffffffffffffffffffffffffffffffffffffffffffffffffff821415614a7857614a77614ae2565b5b600182019050919050565b6000614a8e82614a95565b9050919050565b6000614aa082614bf2565b9050919050565b6000819050919050565b6000614abc82614955565b9150614ac783614955565b925082614ad757614ad6614b11565b5b828206905092915050565b7f4e487b7100000000000000000000000000000000000000000000000000000000600052601160045260246000fd5b7f4e487b7100000000000000000000000000000000000000000000000000000000600052601260045260246000fd5b7f4e487b7100000000000000000000000000000000000000000000000000000000600052602260045260246000fd5b7f4e487b7100000000000000000000000000000000000000000000000000000000600052603260045260246000fd5b7f4e487b7100000000000000000000000000000000000000000000000000000000600052604160045260246000fd5b600080fd5b600080fd5b600080fd5b600080fd5b6000601f19601f8301169050919050565b60008160601b9050919050565b60008160011c9050919050565b7f446f6d61696e20616c72656164792076657269666965642e0000000000000000600082015250565b7f4552433732313a207472616e7366657220746f206e6f6e20455243373231526560008201527f63656976657220696d706c656d656e7465720000000000000000000000000000602082015250565b7f4552433732313a207472616e736665722066726f6d20696e636f72726563742060008201527f6f776e6572000000000000000000000000000000000000000000000000000000602082015250565b7f4552433732313a20746f6b656e20616c7265616479206d696e74656400000000600082015250565b7f7b20226e616d65223a22535647204e4654222000000000000000000000000000600082015250565b7f756e61626c6520746f207472616e73666572416e6443616c6c20746f206f726160008201527f636c650000000000000000000000000000000000000000000000000000000000602082015250565b7f4552433732313a207472616e7366657220746f20746865207a65726f2061646460008201527f7265737300000000000000000000000000000000000000000000000000000000602082015250565b7f4552433732313a20617070726f766520746f2063616c6c657200000000000000600082015250565b7f496e76616c69642055524c2e0000000000000000000000000000000000000000600082015250565b7f22207d0000000000000000000000000000000000000000000000000000000000600082015250565b7f4552433732313a206f70657261746f7220717565727920666f72206e6f6e657860008201527f697374656e7420746f6b656e0000000000000000000000000000000000000000602082015250565b7f4552433732313a20617070726f76652063616c6c6572206973206e6f74206f7760008201527f6e6572206e6f7220617070726f76656420666f7220616c6c0000000000000000602082015250565b7f496e76616c696420646f6d61696e2e0000000000000000000000000000000000600082015250565b7f4552433732313a2062616c616e636520717565727920666f7220746865207a6560008201527f726f206164647265737300000000000000000000000000000000000000000000602082015250565b7f4552433732313a206f776e657220717565727920666f72206e6f6e657869737460008201527f656e7420746f6b656e0000000000000000000000000000000000000000000000602082015250565b7f41646472657373206469646e27742076657269667920646f6d61696e2e000000600082015250565b7f4552433732313a206d696e7420746f20746865207a65726f2061646472657373600082015250565b7f45524337323155524953746f726167653a2055524920717565727920666f722060008201527f6e6f6e6578697374656e7420746f6b656e000000000000000000000000000000602082015250565b7f4552433732313a20617070726f76656420717565727920666f72206e6f6e657860008201527f697374656e7420746f6b656e0000000000000000000000000000000000000000602082015250565b7f4552433732314d657461646174613a2055524920717565727920666f72206e6f60008201527f6e6578697374656e7420746f6b656e0000000000000000000000000000000000602082015250565b7f2c20226465736372697074696f6e223a22416e204e4654206261736564206f6e60008201527f2053564721222000000000000000000000000000000000000000000000000000602082015250565b7f4552433732313a20617070726f76616c20746f2063757272656e74206f776e6560008201527f7200000000000000000000000000000000000000000000000000000000000000602082015250565b7f2c2022696d616765223a222c2000000000000000000000000000000000000000600082015250565b7f646174613a6170706c69636174696f6e2f6a736f6e3b6261736536342c000000600082015250565b7f4552433732313a207472616e736665722063616c6c6572206973206e6f74206f60008201527f776e6572206e6f7220617070726f766564000000000000000000000000000000602082015250565b7f536f75726365206d75737420626520746865206f7261636c65206f662074686560008201527f2072657175657374000000000000000000000000000000000000000000000000602082015250565b615279816148e1565b811461528457600080fd5b50565b615290816148f3565b811461529b57600080fd5b50565b6152a7816148ff565b81146152b257600080fd5b50565b6152be81614909565b81146152c957600080fd5b50565b6152d581614955565b81146152e057600080fd5b5056fe446f6d61696e20636f6e7461696e7320696e76616c69642063686172616374657220272f274142434445464748494a4b4c4d4e4f505152535455565758595a6162636465666768696a6b6c6d6e6f707172737475767778797a303132333435363738392b2f446f6d61696e20636f6e7461696e7320746f6f206d616e7920272e272063686172616374657273a264697066735822122075ed4197f7b1cde6046ca1ab5077be70d61a3c90460861d41eb0f88295ad397264736f6c63430008070033",
  "devdoc": {
    "kind": "dev",
    "methods": {
      "approve(address,uint256)": {
        "details": "See {IERC721-approve}."
      },
      "balanceOf(address)": {
        "details": "See {IERC721-balanceOf}."
      },
      "getApproved(uint256)": {
        "details": "See {IERC721-getApproved}."
      },
      "isApprovedForAll(address,address)": {
        "details": "See {IERC721-isApprovedForAll}."
      },
      "name()": {
        "details": "See {IERC721Metadata-name}."
      },
      "ownerOf(uint256)": {
        "details": "See {IERC721-ownerOf}."
      },
      "safeTransferFrom(address,address,uint256)": {
        "details": "See {IERC721-safeTransferFrom}."
      },
      "safeTransferFrom(address,address,uint256,bytes)": {
        "details": "See {IERC721-safeTransferFrom}."
      },
      "setApprovalForAll(address,bool)": {
        "details": "See {IERC721-setApprovalForAll}."
      },
      "supportsInterface(bytes4)": {
        "details": "See {IERC165-supportsInterface}."
      },
      "symbol()": {
        "details": "See {IERC721Metadata-symbol}."
      },
      "tokenURI(uint256)": {
        "details": "See {IERC721Metadata-tokenURI}."
      },
      "transferFrom(address,address,uint256)": {
        "details": "See {IERC721-transferFrom}."
      }
    },
    "version": 1
  },
  "userdoc": {
    "kind": "user",
    "methods": {},
    "version": 1
  },
  "storageLayout": {
    "storage": [
      {
        "astId": 319,
        "contract": "contracts/PulitzerContract.sol:PulitzerContract",
        "label": "s_ens",
        "offset": 0,
        "slot": "0",
        "type": "t_contract(ENSInterface)974"
      },
      {
        "astId": 321,
        "contract": "contracts/PulitzerContract.sol:PulitzerContract",
        "label": "s_ensNode",
        "offset": 0,
        "slot": "1",
        "type": "t_bytes32"
      },
      {
        "astId": 324,
        "contract": "contracts/PulitzerContract.sol:PulitzerContract",
        "label": "s_link",
        "offset": 0,
        "slot": "2",
        "type": "t_contract(LinkTokenInterface)1069"
      },
      {
        "astId": 327,
        "contract": "contracts/PulitzerContract.sol:PulitzerContract",
        "label": "s_oracle",
        "offset": 0,
        "slot": "3",
        "type": "t_contract(OperatorInterface)1149"
      },
      {
        "astId": 330,
        "contract": "contracts/PulitzerContract.sol:PulitzerContract",
        "label": "s_requestCount",
        "offset": 0,
        "slot": "4",
        "type": "t_uint256"
      },
      {
        "astId": 334,
        "contract": "contracts/PulitzerContract.sol:PulitzerContract",
        "label": "s_pendingRequests",
        "offset": 0,
        "slot": "5",
        "type": "t_mapping(t_bytes32,t_address)"
      },
      {
        "astId": 2201,
        "contract": "contracts/PulitzerContract.sol:PulitzerContract",
        "label": "_name",
        "offset": 0,
        "slot": "6",
        "type": "t_string_storage"
      },
      {
        "astId": 2203,
        "contract": "contracts/PulitzerContract.sol:PulitzerContract",
        "label": "_symbol",
        "offset": 0,
        "slot": "7",
        "type": "t_string_storage"
      },
      {
        "astId": 2207,
        "contract": "contracts/PulitzerContract.sol:PulitzerContract",
        "label": "_owners",
        "offset": 0,
        "slot": "8",
        "type": "t_mapping(t_uint256,t_address)"
      },
      {
        "astId": 2211,
        "contract": "contracts/PulitzerContract.sol:PulitzerContract",
        "label": "_balances",
        "offset": 0,
        "slot": "9",
        "type": "t_mapping(t_address,t_uint256)"
      },
      {
        "astId": 2215,
        "contract": "contracts/PulitzerContract.sol:PulitzerContract",
        "label": "_tokenApprovals",
        "offset": 0,
        "slot": "10",
        "type": "t_mapping(t_uint256,t_address)"
      },
      {
        "astId": 2221,
        "contract": "contracts/PulitzerContract.sol:PulitzerContract",
        "label": "_operatorApprovals",
        "offset": 0,
        "slot": "11",
        "type": "t_mapping(t_address,t_mapping(t_address,t_bool))"
      },
      {
        "astId": 3188,
        "contract": "contracts/PulitzerContract.sol:PulitzerContract",
        "label": "_tokenURIs",
        "offset": 0,
        "slot": "12",
        "type": "t_mapping(t_uint256,t_string_storage)"
      },
      {
        "astId": 3981,
        "contract": "contracts/PulitzerContract.sol:PulitzerContract",
        "label": "verifiedDomains",
        "offset": 0,
        "slot": "13",
        "type": "t_mapping(t_address,t_array(t_bytes32)dyn_storage)"
      },
      {
        "astId": 3986,
        "contract": "contracts/PulitzerContract.sol:PulitzerContract",
        "label": "verificationQueue",
        "offset": 0,
        "slot": "14",
        "type": "t_mapping(t_bytes32,t_struct(DomainRequest)3976_storage)"
      },
      {
        "astId": 3988,
        "contract": "contracts/PulitzerContract.sol:PulitzerContract",
        "label": "oracle",
        "offset": 0,
        "slot": "15",
        "type": "t_address"
      },
      {
        "astId": 3990,
        "contract": "contracts/PulitzerContract.sol:PulitzerContract",
        "label": "jobId",
        "offset": 0,
        "slot": "16",
        "type": "t_bytes32"
      },
      {
        "astId": 3992,
        "contract": "contracts/PulitzerContract.sol:PulitzerContract",
        "label": "fee",
        "offset": 0,
        "slot": "17",
        "type": "t_uint256"
      },
      {
        "astId": 3994,
        "contract": "contracts/PulitzerContract.sol:PulitzerContract",
        "label": "tokenCounter",
        "offset": 0,
        "slot": "18",
        "type": "t_uint256"
      }
    ],
    "types": {
      "t_address": {
        "encoding": "inplace",
        "label": "address",
        "numberOfBytes": "20"
      },
      "t_array(t_bytes32)dyn_storage": {
        "base": "t_bytes32",
        "encoding": "dynamic_array",
        "label": "bytes32[]",
        "numberOfBytes": "32"
      },
      "t_bool": {
        "encoding": "inplace",
        "label": "bool",
        "numberOfBytes": "1"
      },
      "t_bytes32": {
        "encoding": "inplace",
        "label": "bytes32",
        "numberOfBytes": "32"
      },
      "t_contract(ENSInterface)974": {
        "encoding": "inplace",
        "label": "contract ENSInterface",
        "numberOfBytes": "20"
      },
      "t_contract(LinkTokenInterface)1069": {
        "encoding": "inplace",
        "label": "contract LinkTokenInterface",
        "numberOfBytes": "20"
      },
      "t_contract(OperatorInterface)1149": {
        "encoding": "inplace",
        "label": "contract OperatorInterface",
        "numberOfBytes": "20"
      },
      "t_mapping(t_address,t_array(t_bytes32)dyn_storage)": {
        "encoding": "mapping",
        "key": "t_address",
        "label": "mapping(address => bytes32[])",
        "numberOfBytes": "32",
        "value": "t_array(t_bytes32)dyn_storage"
      },
      "t_mapping(t_address,t_bool)": {
        "encoding": "mapping",
        "key": "t_address",
        "label": "mapping(address => bool)",
        "numberOfBytes": "32",
        "value": "t_bool"
      },
      "t_mapping(t_address,t_mapping(t_address,t_bool))": {
        "encoding": "mapping",
        "key": "t_address",
        "label": "mapping(address => mapping(address => bool))",
        "numberOfBytes": "32",
        "value": "t_mapping(t_address,t_bool)"
      },
      "t_mapping(t_address,t_uint256)": {
        "encoding": "mapping",
        "key": "t_address",
        "label": "mapping(address => uint256)",
        "numberOfBytes": "32",
        "value": "t_uint256"
      },
      "t_mapping(t_bytes32,t_address)": {
        "encoding": "mapping",
        "key": "t_bytes32",
        "label": "mapping(bytes32 => address)",
        "numberOfBytes": "32",
        "value": "t_address"
      },
      "t_mapping(t_bytes32,t_struct(DomainRequest)3976_storage)": {
        "encoding": "mapping",
        "key": "t_bytes32",
        "label": "mapping(bytes32 => struct PulitzerContract.DomainRequest)",
        "numberOfBytes": "32",
        "value": "t_struct(DomainRequest)3976_storage"
      },
      "t_mapping(t_uint256,t_address)": {
        "encoding": "mapping",
        "key": "t_uint256",
        "label": "mapping(uint256 => address)",
        "numberOfBytes": "32",
        "value": "t_address"
      },
      "t_mapping(t_uint256,t_string_storage)": {
        "encoding": "mapping",
        "key": "t_uint256",
        "label": "mapping(uint256 => string)",
        "numberOfBytes": "32",
        "value": "t_string_storage"
      },
      "t_string_storage": {
        "encoding": "bytes",
        "label": "string",
        "numberOfBytes": "32"
      },
      "t_struct(DomainRequest)3976_storage": {
        "encoding": "inplace",
        "label": "struct PulitzerContract.DomainRequest",
        "members": [
          {
            "astId": 3973,
            "contract": "contracts/PulitzerContract.sol:PulitzerContract",
            "label": "requester",
            "offset": 0,
            "slot": "0",
            "type": "t_address"
          },
          {
            "astId": 3975,
            "contract": "contracts/PulitzerContract.sol:PulitzerContract",
            "label": "domainHash",
            "offset": 0,
            "slot": "1",
            "type": "t_bytes32"
          }
        ],
        "numberOfBytes": "64"
      },
      "t_uint256": {
        "encoding": "inplace",
        "label": "uint256",
        "numberOfBytes": "32"
      }
    }
  }
}