{
  "address": "0xC84DfD589dC496FE83a3923B072711f7D9F32918",
  "abi": [
    {
      "inputs": [
        {
          "internalType": "address",
          "name": "_oracle",
          "type": "address"
        },
        {
          "internalType": "address",
          "name": "_linkToken",
          "type": "address"
        },
        {
          "internalType": "bytes32",
          "name": "_jobId",
          "type": "bytes32"
        },
        {
          "internalType": "uint256",
          "name": "_fee",
          "type": "uint256"
        }
      ],
      "stateMutability": "nonpayable",
      "type": "constructor"
    },
    {
      "inputs": [
        {
          "internalType": "string",
          "name": "reason",
          "type": "string"
        }
      ],
      "name": "InvalidSpec",
      "type": "error"
    },
    {
      "anonymous": false,
      "inputs": [
        {
          "indexed": true,
          "internalType": "address",
          "name": "owner",
          "type": "address"
        },
        {
          "indexed": true,
          "internalType": "address",
          "name": "approved",
          "type": "address"
        },
        {
          "indexed": true,
          "internalType": "uint256",
          "name": "tokenId",
          "type": "uint256"
        }
      ],
      "name": "Approval",
      "type": "event"
    },
    {
      "anonymous": false,
      "inputs": [
        {
          "indexed": true,
          "internalType": "address",
          "name": "owner",
          "type": "address"
        },
        {
          "indexed": true,
          "internalType": "address",
          "name": "operator",
          "type": "address"
        },
        {
          "indexed": false,
          "internalType": "bool",
          "name": "approved",
          "type": "bool"
        }
      ],
      "name": "ApprovalForAll",
      "type": "event"
    },
    {
      "anonymous": false,
      "inputs": [
        {
          "indexed": true,
          "internalType": "bytes32",
          "name": "id",
          "type": "bytes32"
        }
      ],
      "name": "ChainlinkCancelled",
      "type": "event"
    },
    {
      "anonymous": false,
      "inputs": [
        {
          "indexed": true,
          "internalType": "bytes32",
          "name": "id",
          "type": "bytes32"
        }
      ],
      "name": "ChainlinkFulfilled",
      "type": "event"
    },
    {
      "anonymous": false,
      "inputs": [
        {
          "indexed": true,
          "internalType": "bytes32",
          "name": "id",
          "type": "bytes32"
        }
      ],
      "name": "ChainlinkRequested",
      "type": "event"
    },
    {
      "anonymous": false,
      "inputs": [
        {
          "indexed": false,
          "internalType": "address",
          "name": "_to",
          "type": "address"
        },
        {
          "indexed": false,
          "internalType": "uint256",
          "name": "_tokenId",
          "type": "uint256"
        },
        {
          "indexed": false,
          "internalType": "string",
          "name": "_uri",
          "type": "string"
        }
      ],
      "name": "TokenMint",
      "type": "event"
    },
    {
      "anonymous": false,
      "inputs": [
        {
          "indexed": true,
          "internalType": "address",
          "name": "from",
          "type": "address"
        },
        {
          "indexed": true,
          "internalType": "address",
          "name": "to",
          "type": "address"
        },
        {
          "indexed": true,
          "internalType": "uint256",
          "name": "tokenId",
          "type": "uint256"
        }
      ],
      "name": "Transfer",
      "type": "event"
    },
    {
      "anonymous": false,
      "inputs": [
        {
          "indexed": false,
          "internalType": "address",
          "name": "requester",
          "type": "address"
        },
        {
          "indexed": false,
          "internalType": "bytes32",
          "name": "domainHash",
          "type": "bytes32"
        },
        {
          "indexed": false,
          "internalType": "bool",
          "name": "result",
          "type": "bool"
        }
      ],
      "name": "VerificationPerformed",
      "type": "event"
    },
    {
      "anonymous": false,
      "inputs": [
        {
          "indexed": false,
          "internalType": "address",
          "name": "requester",
          "type": "address"
        },
        {
          "indexed": false,
          "internalType": "string",
          "name": "domain",
          "type": "string"
        },
        {
          "indexed": false,
          "internalType": "string",
          "name": "proofBody",
          "type": "string"
        }
      ],
      "name": "VerificationRequested",
      "type": "event"
    },
    {
      "inputs": [
        {
          "internalType": "string",
          "name": "url",
          "type": "string"
        }
      ],
      "name": "_extractDomain",
      "outputs": [
        {
          "internalType": "string",
          "name": "",
          "type": "string"
        }
      ],
      "stateMutability": "pure",
      "type": "function"
    },
    {
      "inputs": [
        {
          "internalType": "string",
          "name": "domain",
          "type": "string"
        }
      ],
      "name": "_validateDomain",
      "outputs": [
        {
          "internalType": "bool",
          "name": "",
          "type": "bool"
        }
      ],
      "stateMutability": "view",
      "type": "function"
    },
    {
      "inputs": [
        {
          "internalType": "address",
          "name": "to",
          "type": "address"
        },
        {
          "internalType": "uint256",
          "name": "tokenId",
          "type": "uint256"
        }
      ],
      "name": "approve",
      "outputs": [],
      "stateMutability": "nonpayable",
      "type": "function"
    },
    {
      "inputs": [
        {
          "internalType": "address",
          "name": "owner",
          "type": "address"
        }
      ],
      "name": "balanceOf",
      "outputs": [
        {
          "internalType": "uint256",
          "name": "",
          "type": "uint256"
        }
      ],
      "stateMutability": "view",
      "type": "function"
    },
    {
      "inputs": [
        {
          "internalType": "string",
          "name": "imageURI",
          "type": "string"
        }
      ],
      "name": "formatTokenURI",
      "outputs": [
        {
          "internalType": "string",
          "name": "",
          "type": "string"
        }
      ],
      "stateMutability": "pure",
      "type": "function"
    },
    {
      "inputs": [
        {
          "internalType": "bytes32",
          "name": "_requestId",
          "type": "bytes32"
        },
        {
          "internalType": "bool",
          "name": "_proof",
          "type": "bool"
        }
      ],
      "name": "fulfill",
      "outputs": [],
      "stateMutability": "nonpayable",
      "type": "function"
    },
    {
      "inputs": [
        {
          "internalType": "uint256",
          "name": "tokenId",
          "type": "uint256"
        }
      ],
      "name": "getApproved",
      "outputs": [
        {
          "internalType": "address",
          "name": "",
          "type": "address"
        }
      ],
      "stateMutability": "view",
      "type": "function"
    },
    {
      "inputs": [
        {
          "internalType": "string",
          "name": "url",
          "type": "string"
        }
      ],
      "name": "isAddressApprovedForUrl",
      "outputs": [
        {
          "internalType": "bool",
          "name": "",
          "type": "bool"
        }
      ],
      "stateMutability": "view",
      "type": "function"
    },
    {
      "inputs": [
        {
          "internalType": "address",
          "name": "owner",
          "type": "address"
        },
        {
          "internalType": "address",
          "name": "operator",
          "type": "address"
        }
      ],
      "name": "isApprovedForAll",
      "outputs": [
        {
          "internalType": "bool",
          "name": "",
          "type": "bool"
        }
      ],
      "stateMutability": "view",
      "type": "function"
    },
    {
      "inputs": [
        {
          "internalType": "string",
          "name": "url",
          "type": "string"
        }
      ],
      "name": "mint",
      "outputs": [
        {
          "internalType": "uint256",
          "name": "",
          "type": "uint256"
        }
      ],
      "stateMutability": "nonpayable",
      "type": "function"
    },
    {
      "inputs": [],
      "name": "name",
      "outputs": [
        {
          "internalType": "string",
          "name": "",
          "type": "string"
        }
      ],
      "stateMutability": "view",
      "type": "function"
    },
    {
      "inputs": [
        {
          "internalType": "uint256",
          "name": "tokenId",
          "type": "uint256"
        }
      ],
      "name": "ownerOf",
      "outputs": [
        {
          "internalType": "address",
          "name": "",
          "type": "address"
        }
      ],
      "stateMutability": "view",
      "type": "function"
    },
    {
      "inputs": [
        {
          "internalType": "address",
          "name": "requester",
          "type": "address"
        }
      ],
      "name": "requestProofBody",
      "outputs": [
        {
          "internalType": "string",
          "name": "",
          "type": "string"
        }
      ],
      "stateMutability": "pure",
      "type": "function"
    },
    {
      "inputs": [
        {
          "internalType": "string",
          "name": "_domain",
          "type": "string"
        }
      ],
      "name": "requestProofVerification",
      "outputs": [
        {
          "internalType": "bytes32",
          "name": "requestId",
          "type": "bytes32"
        }
      ],
      "stateMutability": "nonpayable",
      "type": "function"
    },
    {
      "inputs": [
        {
          "internalType": "address",
          "name": "from",
          "type": "address"
        },
        {
          "internalType": "address",
          "name": "to",
          "type": "address"
        },
        {
          "internalType": "uint256",
          "name": "tokenId",
          "type": "uint256"
        }
      ],
      "name": "safeTransferFrom",
      "outputs": [],
      "stateMutability": "nonpayable",
      "type": "function"
    },
    {
      "inputs": [
        {
          "internalType": "address",
          "name": "from",
          "type": "address"
        },
        {
          "internalType": "address",
          "name": "to",
          "type": "address"
        },
        {
          "internalType": "uint256",
          "name": "tokenId",
          "type": "uint256"
        },
        {
          "internalType": "bytes",
          "name": "_data",
          "type": "bytes"
        }
      ],
      "name": "safeTransferFrom",
      "outputs": [],
      "stateMutability": "nonpayable",
      "type": "function"
    },
    {
      "inputs": [
        {
          "internalType": "address",
          "name": "operator",
          "type": "address"
        },
        {
          "internalType": "bool",
          "name": "approved",
          "type": "bool"
        }
      ],
      "name": "setApprovalForAll",
      "outputs": [],
      "stateMutability": "nonpayable",
      "type": "function"
    },
    {
      "inputs": [
        {
          "internalType": "bytes4",
          "name": "interfaceId",
          "type": "bytes4"
        }
      ],
      "name": "supportsInterface",
      "outputs": [
        {
          "internalType": "bool",
          "name": "",
          "type": "bool"
        }
      ],
      "stateMutability": "view",
      "type": "function"
    },
    {
      "inputs": [],
      "name": "symbol",
      "outputs": [
        {
          "internalType": "string",
          "name": "",
          "type": "string"
        }
      ],
      "stateMutability": "view",
      "type": "function"
    },
    {
      "inputs": [],
      "name": "tokenCounter",
      "outputs": [
        {
          "internalType": "uint256",
          "name": "",
          "type": "uint256"
        }
      ],
      "stateMutability": "view",
      "type": "function"
    },
    {
      "inputs": [
        {
          "internalType": "uint256",
          "name": "tokenId",
          "type": "uint256"
        }
      ],
      "name": "tokenURI",
      "outputs": [
        {
          "internalType": "string",
          "name": "",
          "type": "string"
        }
      ],
      "stateMutability": "view",
      "type": "function"
    },
    {
      "inputs": [
        {
          "internalType": "address",
          "name": "from",
          "type": "address"
        },
        {
          "internalType": "address",
          "name": "to",
          "type": "address"
        },
        {
          "internalType": "uint256",
          "name": "tokenId",
          "type": "uint256"
        }
      ],
      "name": "transferFrom",
      "outputs": [],
      "stateMutability": "nonpayable",
      "type": "function"
    },
    {
      "inputs": [
        {
          "internalType": "address",
          "name": "",
          "type": "address"
        },
        {
          "internalType": "uint256",
          "name": "",
          "type": "uint256"
        }
      ],
      "name": "verifiedDomains",
      "outputs": [
        {
          "internalType": "bytes32",
          "name": "",
          "type": "bytes32"
        }
      ],
      "stateMutability": "view",
      "type": "function"
    }
  ],
  "transactionHash": "0xe45f6cdf2cd369aaff1a25e8d001449c6b9487fd7894c73a9fa3defb059d20fb",
  "args": [
    "0xff07c97631ff3bab5e5e5660cdf47aded8d4d4fd",
    "0xa36085F69e2889c224210F603D836748e7dC0088",
    {
      "0": 55,
      "1": 57,
      "2": 49,
      "3": 98,
      "4": 100,
      "5": 55,
      "6": 51,
      "7": 99,
      "8": 56,
      "9": 97,
      "10": 49,
      "11": 51,
      "12": 52,
      "13": 57,
      "14": 56,
      "15": 53,
      "16": 57,
      "17": 102,
      "18": 48,
      "19": 57,
      "20": 98,
      "21": 49,
      "22": 99,
      "23": 98,
      "24": 56,
      "25": 55,
      "26": 51,
      "27": 48,
      "28": 52,
      "29": 102,
      "30": 55,
      "31": 49
    },
    "100000000000000000"
  ],
  "numDeployments": 3,
  "solcInputHash": "2584bfa286245c5d2ca2ce752cbc7648",
  "bytecode": "0x608060405260016004553480156200001657600080fd5b50604051620056153803806200561583398181016040528101906200003c9190620003ae565b6040518060400160405280600881526020017f50756c69747a65720000000000000000000000000000000000000000000000008152506040518060400160405280600381526020017f50554c00000000000000000000000000000000000000000000000000000000008152508160069080519060200190620000c092919062000287565b508060079080519060200190620000d992919062000287565b5050506000601281905550600073ffffffffffffffffffffffffffffffffffffffff168373ffffffffffffffffffffffffffffffffffffffff16141562000130576200012a6200019b60201b60201c565b62000142565b62000141836200024360201b60201c565b5b83600f60006101000a81548173ffffffffffffffffffffffffffffffffffffffff021916908373ffffffffffffffffffffffffffffffffffffffff16021790555081601081905550806011819055505050505062000520565b6200024173c89bd4e1632d3a43cb03aaad5262cbe4038bc57173ffffffffffffffffffffffffffffffffffffffff166338cc48316040518163ffffffff1660e01b815260040160206040518083038186803b158015620001fa57600080fd5b505afa1580156200020f573d6000803e3d6000fd5b505050506040513d601f19601f820116820180604052508101906200023591906200037c565b6200024360201b60201c565b565b80600260006101000a81548173ffffffffffffffffffffffffffffffffffffffff021916908373ffffffffffffffffffffffffffffffffffffffff16021790555050565b828054620002959062000468565b90600052602060002090601f016020900481019282620002b9576000855562000305565b82601f10620002d457805160ff191683800117855562000305565b8280016001018555821562000305579182015b8281111562000304578251825591602001919060010190620002e7565b5b50905062000314919062000318565b5090565b5b808211156200033357600081600090555060010162000319565b5090565b6000815190506200034881620004d2565b92915050565b6000815190506200035f81620004ec565b92915050565b600081519050620003768162000506565b92915050565b600060208284031215620003955762000394620004cd565b5b6000620003a58482850162000337565b91505092915050565b60008060008060808587031215620003cb57620003ca620004cd565b5b6000620003db8782880162000337565b9450506020620003ee8782880162000337565b935050604062000401878288016200034e565b9250506060620004148782880162000365565b91505092959194509250565b60006200042d826200043e565b9050919050565b6000819050919050565b600073ffffffffffffffffffffffffffffffffffffffff82169050919050565b6000819050919050565b600060028204905060018216806200048157607f821691505b602082108114156200049857620004976200049e565b5b50919050565b7f4e487b7100000000000000000000000000000000000000000000000000000000600052602260045260246000fd5b600080fd5b620004dd8162000420565b8114620004e957600080fd5b50565b620004f78162000434565b81146200050357600080fd5b50565b62000511816200045e565b81146200051d57600080fd5b50565b6150e580620005306000396000f3fe608060405234801561001057600080fd5b506004361061014d5760003560e01c80638841a241116100c3578063c87b56dd1161007c578063c87b56dd146103fa578063d082e3811461042a578063d85d3d2714610448578063ddd8cc2c14610478578063e985e9c5146104a8578063fd68990a146104d85761014d565b80638841a241146103145780639116dcda1461034457806395d89b4114610374578063a22cb46514610392578063b1afdbdf146103ae578063b88d4fde146103de5761014d565b80633d7b58bb116101155780633d7b58bb1461020857806342842e0e146102385780634831f32d146102545780636352211e1461028457806370a08231146102b457806371aee193146102e45761014d565b806301ffc9a71461015257806306fdde0314610182578063081812fc146101a0578063095ea7b3146101d057806323b872dd146101ec575b600080fd5b61016c600480360381019061016791906137ab565b6104f4565b6040516101799190613fbe565b60405180910390f35b61018a6105d6565b6040516101979190613ff4565b60405180910390f35b6101ba60048036038101906101b5919061384e565b610668565b6040516101c79190613dda565b60405180910390f35b6101ea60048036038101906101e591906136fe565b6106ed565b005b610206600480360381019061020191906135e8565b610805565b005b610222600480360381019061021d9190613805565b610865565b60405161022f9190613fbe565b60405180910390f35b610252600480360381019061024d91906135e8565b610877565b005b61026e60048036038101906102699190613805565b610897565b60405161027b9190613fbe565b60405180910390f35b61029e6004803603810190610299919061384e565b6108ba565b6040516102ab9190613dda565b60405180910390f35b6102ce60048036038101906102c9919061357b565b61096c565b6040516102db91906142b6565b60405180910390f35b6102fe60048036038101906102f99190613805565b610a24565b60405161030b9190613ff4565b60405180910390f35b61032e60048036038101906103299190613805565b610a74565b60405161033b9190613ff4565b60405180910390f35b61035e6004803603810190610359919061357b565b610a86565b60405161036b9190613ff4565b60405180910390f35b61037c610a98565b6040516103899190613ff4565b60405180910390f35b6103ac60048036038101906103a791906136be565b610b2a565b005b6103c860048036038101906103c391906136fe565b610b40565b6040516103d59190613fd9565b60405180910390f35b6103f860048036038101906103f3919061363b565b610b71565b005b610414600480360381019061040f919061384e565b610bd3565b6040516104219190613ff4565b60405180910390f35b610432610d25565b60405161043f91906142b6565b60405180910390f35b610462600480360381019061045d9190613805565b610d2b565b60405161046f91906142b6565b60405180910390f35b610492600480360381019061048d9190613805565b610de2565b60405161049f9190613fd9565b60405180910390f35b6104c260048036038101906104bd91906135a8565b6110c9565b6040516104cf9190613fbe565b60405180910390f35b6104f260048036038101906104ed919061376b565b61115d565b005b60007f80ac58cd000000000000000000000000000000000000000000000000000000007bffffffffffffffffffffffffffffffffffffffffffffffffffffffff1916827bffffffffffffffffffffffffffffffffffffffffffffffffffffffff191614806105bf57507f5b5e139f000000000000000000000000000000000000000000000000000000007bffffffffffffffffffffffffffffffffffffffffffffffffffffffff1916827bffffffffffffffffffffffffffffffffffffffffffffffffffffffff1916145b806105cf57506105ce8261142c565b5b9050919050565b6060600680546105e590614717565b80601f016020809104026020016040519081016040528092919081815260200182805461061190614717565b801561065e5780601f106106335761010080835404028352916020019161065e565b820191906000526020600020905b81548152906001019060200180831161064157829003601f168201915b5050505050905090565b600061067382611496565b6106b2576040517f08c379a00000000000000000000000000000000000000000000000000000000081526004016106a990614216565b60405180910390fd5b600a600083815260200190815260200160002060009054906101000a900473ffffffffffffffffffffffffffffffffffffffff169050919050565b60006106f8826108ba565b90508073ffffffffffffffffffffffffffffffffffffffff168373ffffffffffffffffffffffffffffffffffffffff161415610769576040517f08c379a000000000000000000000000000000000000000000000000000000000815260040161076090614256565b60405180910390fd5b8073ffffffffffffffffffffffffffffffffffffffff16610788611502565b73ffffffffffffffffffffffffffffffffffffffff1614806107b757506107b6816107b1611502565b6110c9565b5b6107f6576040517f08c379a00000000000000000000000000000000000000000000000000000000081526004016107ed90614136565b60405180910390fd5b610800838361150a565b505050565b610816610810611502565b826115c3565b610855576040517f08c379a000000000000000000000000000000000000000000000000000000000815260040161084c90614276565b60405180910390fd5b6108608383836116a1565b505050565b600061087082611908565b9050919050565b61089283838360405180602001604052806000815250610b71565b505050565b60006108b36108ad6108a884610a74565b611a26565b33611a56565b9050919050565b6000806008600084815260200190815260200160002060009054906101000a900473ffffffffffffffffffffffffffffffffffffffff169050600073ffffffffffffffffffffffffffffffffffffffff168173ffffffffffffffffffffffffffffffffffffffff161415610963576040517f08c379a000000000000000000000000000000000000000000000000000000000815260040161095a90614196565b60405180910390fd5b80915050919050565b60008073ffffffffffffffffffffffffffffffffffffffff168273ffffffffffffffffffffffffffffffffffffffff1614156109dd576040517f08c379a00000000000000000000000000000000000000000000000000000000081526004016109d490614176565b60405180910390fd5b600960008373ffffffffffffffffffffffffffffffffffffffff1673ffffffffffffffffffffffffffffffffffffffff168152602001908152602001600020549050919050565b6060610a4e82604051602001610a3a9190613d75565b604051602081830303815290604052611b32565b604051602001610a5e9190613db8565b6040516020818303038152906040529050919050565b6060610a7f82611c96565b9050919050565b6060610a9182611e38565b9050919050565b606060078054610aa790614717565b80601f0160208091040260200160405190810160405280929190818152602001828054610ad390614717565b8015610b205780601f10610af557610100808354040283529160200191610b20565b820191906000526020600020905b815481529060010190602001808311610b0357829003601f168201915b5050505050905090565b610b3c610b35611502565b8383611e69565b5050565b600d6020528160005260406000208181548110610b5c57600080fd5b90600052602060002001600091509150505481565b610b82610b7c611502565b836115c3565b610bc1576040517f08c379a0000000000000000000000000000000000000000000000000000000008152600401610bb890614276565b60405180910390fd5b610bcd84848484611fd6565b50505050565b6060610bde82611496565b610c1d576040517f08c379a0000000000000000000000000000000000000000000000000000000008152600401610c14906141f6565b60405180910390fd5b6000600c60008481526020019081526020016000208054610c3d90614717565b80601f0160208091040260200160405190810160405280929190818152602001828054610c6990614717565b8015610cb65780601f10610c8b57610100808354040283529160200191610cb6565b820191906000526020600020905b815481529060010190602001808311610c9957829003601f168201915b505050505090506000610cc7612032565b9050600081511415610cdd578192505050610d20565b600082511115610d12578082604051602001610cfa929190613d51565b60405160208183030381529060405292505050610d20565b610d1b84612049565b925050505b919050565b60125481565b6000610d3682610897565b610d75576040517f08c379a0000000000000000000000000000000000000000000000000000000008152600401610d6c906141b6565b60405180910390fd5b60006012549050610d8633826120f0565b7f0ba9941cdcb2c0287940b5f6ab7e4f7c6752775fca32397f9c2083b2ccc03aa2338285604051610db993929190613f80565b60405180910390a160126000815480929190610dd49061477a565b919050555080915050919050565b6000610ded82610865565b610e2c576040517f08c379a0000000000000000000000000000000000000000000000000000000008152600401610e2390614156565b60405180910390fd5b6000610e3783611a26565b9050610e438133611a56565b15610e83576040517f08c379a0000000000000000000000000000000000000000000000000000000008152600401610e7a90614016565b60405180910390fd5b6000610e996010543063fd68990a60e01b61210e565b9050610f1a6040518060400160405280600481526020017f74797065000000000000000000000000000000000000000000000000000000008152506040518060400160405280600381526020017f54585400000000000000000000000000000000000000000000000000000000008152508361213f9092919063ffffffff16565b610f646040518060400160405280600481526020017f6e616d6500000000000000000000000000000000000000000000000000000000815250858361213f9092919063ffffffff16565b610fb66040518060400160405280600681526020017f7265636f72640000000000000000000000000000000000000000000000000000815250610fa633610a86565b8361213f9092919063ffffffff16565b6000610fe7600f60009054906101000a900473ffffffffffffffffffffffffffffffffffffffff1683601154612172565b905060405180604001604052803373ffffffffffffffffffffffffffffffffffffffff16815260200184815250600e600083815260200190815260200160002060008201518160000160006101000a81548173ffffffffffffffffffffffffffffffffffffffff021916908373ffffffffffffffffffffffffffffffffffffffff160217905550602082015181600101559050507f2d704ba7fe0dd3ed1e983912865668cf7f26e752ae41102d378b3f76838c5acc33866110a733610a86565b6040516110b693929190613e78565b60405180910390a1809350505050919050565b6000600b60008473ffffffffffffffffffffffffffffffffffffffff1673ffffffffffffffffffffffffffffffffffffffff16815260200190815260200160002060008373ffffffffffffffffffffffffffffffffffffffff1673ffffffffffffffffffffffffffffffffffffffff16815260200190815260200160002060009054906101000a900460ff16905092915050565b816005600082815260200190815260200160002060009054906101000a900473ffffffffffffffffffffffffffffffffffffffff1673ffffffffffffffffffffffffffffffffffffffff163373ffffffffffffffffffffffffffffffffffffffff16146111ff576040517f08c379a00000000000000000000000000000000000000000000000000000000081526004016111f690614296565b60405180910390fd5b6005600082815260200190815260200160002060006101000a81549073ffffffffffffffffffffffffffffffffffffffff0219169055807f7cc135e0cebb02c3480ae5d74d377283180a2601f8f644edf7987b009316c63a60405160405180910390a281156113a1576000600e60008581526020019081526020016000206040518060400160405290816000820160009054906101000a900473ffffffffffffffffffffffffffffffffffffffff1673ffffffffffffffffffffffffffffffffffffffff1673ffffffffffffffffffffffffffffffffffffffff1681526020016001820154815250509050600d6000826000015173ffffffffffffffffffffffffffffffffffffffff1673ffffffffffffffffffffffffffffffffffffffff168152602001908152602001600020816020015190806001815401808255809150506001900390600052602060002001600090919091909150557f1cde586e41a7124b5b326865fb52a05494a4c703975f8401f573287f5dab2703816000015182602001518560405161139393929190613e41565b60405180910390a1506113e2565b7f1cde586e41a7124b5b326865fb52a05494a4c703975f8401f573287f5dab270360008060001b60006040516113d993929190613e41565b60405180910390a15b600e6000848152602001908152602001600020600080820160006101000a81549073ffffffffffffffffffffffffffffffffffffffff021916905560018201600090555050505050565b60007f01ffc9a7000000000000000000000000000000000000000000000000000000007bffffffffffffffffffffffffffffffffffffffffffffffffffffffff1916827bffffffffffffffffffffffffffffffffffffffffffffffffffffffff1916149050919050565b60008073ffffffffffffffffffffffffffffffffffffffff166008600084815260200190815260200160002060009054906101000a900473ffffffffffffffffffffffffffffffffffffffff1673ffffffffffffffffffffffffffffffffffffffff1614159050919050565b600033905090565b81600a600083815260200190815260200160002060006101000a81548173ffffffffffffffffffffffffffffffffffffffff021916908373ffffffffffffffffffffffffffffffffffffffff160217905550808273ffffffffffffffffffffffffffffffffffffffff1661157d836108ba565b73ffffffffffffffffffffffffffffffffffffffff167f8c5be1e5ebec7d5bd14f71427d1e84f3dd0314c0f7b2291e5b200ac8c7c3b92560405160405180910390a45050565b60006115ce82611496565b61160d576040517f08c379a000000000000000000000000000000000000000000000000000000000815260040161160490614116565b60405180910390fd5b6000611618836108ba565b90508073ffffffffffffffffffffffffffffffffffffffff168473ffffffffffffffffffffffffffffffffffffffff16148061168757508373ffffffffffffffffffffffffffffffffffffffff1661166f84610668565b73ffffffffffffffffffffffffffffffffffffffff16145b80611698575061169781856110c9565b5b91505092915050565b8273ffffffffffffffffffffffffffffffffffffffff166116c1826108ba565b73ffffffffffffffffffffffffffffffffffffffff1614611717576040517f08c379a000000000000000000000000000000000000000000000000000000000815260040161170e90614056565b60405180910390fd5b600073ffffffffffffffffffffffffffffffffffffffff168273ffffffffffffffffffffffffffffffffffffffff161415611787576040517f08c379a000000000000000000000000000000000000000000000000000000000815260040161177e906140b6565b60405180910390fd5b61179283838361223e565b61179d60008261150a565b6001600960008573ffffffffffffffffffffffffffffffffffffffff1673ffffffffffffffffffffffffffffffffffffffff16815260200190815260200160002060008282546117ed91906145ed565b925050819055506001600960008473ffffffffffffffffffffffffffffffffffffffff1673ffffffffffffffffffffffffffffffffffffffff1681526020019081526020016000206000828254611844919061439b565b92505081905550816008600083815260200190815260200160002060006101000a81548173ffffffffffffffffffffffffffffffffffffffff021916908373ffffffffffffffffffffffffffffffffffffffff160217905550808273ffffffffffffffffffffffffffffffffffffffff168473ffffffffffffffffffffffffffffffffffffffff167fddf252ad1be2c89b69c2b068fc378daa952ba7f163c4a11628f55a4df523b3ef60405160405180910390a4611903838383612243565b505050565b60008061191483612248565b905060006119686119596040518060400160405280600181526020017f2f00000000000000000000000000000000000000000000000000000000000000815250612248565b8361227690919063ffffffff16565b146119985761198e6040518060600160405280602581526020016150246025913961231e565b6000915050611a21565b60016119ea6119db6040518060400160405280600181526020017f2e00000000000000000000000000000000000000000000000000000000000000815250612248565b8361227690919063ffffffff16565b1115611a1b57611a116040518060600160405280602781526020016150896027913961231e565b6000915050611a21565b60019150505b919050565b600081604051602001611a399190613ff4565b604051602081830303815290604052805190602001209050919050565b600080600090506000600d60008573ffffffffffffffffffffffffffffffffffffffff1673ffffffffffffffffffffffffffffffffffffffff16815260200190815260200160002080549050905060005b81811015611b265785600d60008773ffffffffffffffffffffffffffffffffffffffff1673ffffffffffffffffffffffffffffffffffffffff1681526020019081526020016000208281548110611b0157611b006148af565b5b90600052602060002001541415611b1b5760019250611b26565b806001019050611aa7565b50819250505092915050565b6060600082511415611b5557604051806020016040528060008152509050611c91565b60006040518060600160405280604081526020016150496040913990506000600360028551611b84919061439b565b611b8e91906143f1565b6004611b9a9190614593565b67ffffffffffffffff811115611bb357611bb26148de565b5b6040519080825280601f01601f191660200182016040528015611be55781602001600182028036833780820191505090505b509050600182016020820185865187015b80821015611c51576003820191508151603f8160121c168501518453600184019350603f81600c1c168501518453600184019350603f8160061c168501518453600184019350603f8116850151845360018401935050611bf6565b5050600386510660018114611c6d5760028114611c8057611c88565b603d6001830353603d6002830353611c88565b603d60018303535b50505080925050505b919050565b60606000611ca383612248565b90506000611ce56040518060400160405280600381526020017f3a2f2f0000000000000000000000000000000000000000000000000000000000815250612248565b90506001611cfc828461227690919063ffffffff16565b14611d3c576040517faf64694e000000000000000000000000000000000000000000000000000000008152600401611d33906140f6565b60405180910390fd5b611d44613367565b611d598282856123b79092919063ffffffff16565b50611dac611d9b6040518060400160405280600181526020017f2f00000000000000000000000000000000000000000000000000000000000000815250612248565b82856123b79092919063ffffffff16565b506000611ded6040518060400160405280600181526020017f2e00000000000000000000000000000000000000000000000000000000000000815250612248565b90505b6001611e05828461227690919063ffffffff16565b1115611e2457611e1e818361248290919063ffffffff16565b50611df0565b611e2d8261249c565b945050505050919050565b6060611e6282604051602001611e4e9190613dda565b604051602081830303815290604052611b32565b9050919050565b8173ffffffffffffffffffffffffffffffffffffffff168373ffffffffffffffffffffffffffffffffffffffff161415611ed8576040517f08c379a0000000000000000000000000000000000000000000000000000000008152600401611ecf906140d6565b60405180910390fd5b80600b60008573ffffffffffffffffffffffffffffffffffffffff1673ffffffffffffffffffffffffffffffffffffffff16815260200190815260200160002060008473ffffffffffffffffffffffffffffffffffffffff1673ffffffffffffffffffffffffffffffffffffffff16815260200190815260200160002060006101000a81548160ff0219169083151502179055508173ffffffffffffffffffffffffffffffffffffffff168373ffffffffffffffffffffffffffffffffffffffff167f17307eab39ab6107e8899845ad3d59bd9653f200f220920489ca2b5937696c3183604051611fc99190613fbe565b60405180910390a3505050565b611fe18484846116a1565b611fed84848484612518565b61202c576040517f08c379a000000000000000000000000000000000000000000000000000000000815260040161202390614036565b60405180910390fd5b50505050565b606060405180602001604052806000815250905090565b606061205482611496565b612093576040517f08c379a000000000000000000000000000000000000000000000000000000000815260040161208a90614236565b60405180910390fd5b600061209d612032565b905060008151116120bd57604051806020016040528060008152506120e8565b806120c7846126af565b6040516020016120d8929190613d51565b6040516020818303038152906040525b915050919050565b61210a828260405180602001604052806000815250612810565b5050565b612116613381565b61211e613381565b6121358585858461286b909392919063ffffffff16565b9150509392505050565b61215682846080015161291b90919063ffffffff16565b61216d81846080015161291b90919063ffffffff16565b505050565b6000806004549050600181612187919061439b565b6004819055506000634042994660e01b60008087600001513089604001518760018c60800151600001516040516024016121c8989796959493929190613ebd565b604051602081830303815290604052907bffffffffffffffffffffffffffffffffffffffffffffffffffffffff19166020820180517bffffffffffffffffffffffffffffffffffffffffffffffffffffffff8381831617835250505050905061223386838684612940565b925050509392505050565b505050565b505050565b612250613367565b600060208301905060405180604001604052808451815260200182815250915050919050565b600080826000015161229a8560000151866020015186600001518760200151612ae4565b6122a4919061439b565b90505b836000015184602001516122bb919061439b565b81116123175781806122cc9061477a565b92505082600001516123068560200151836122e791906145ed565b86600001516122f691906145ed565b8386600001518760200151612ae4565b612310919061439b565b90506122a7565b5092915050565b6123b4816040516024016123329190613ff4565b6040516020818303038152906040527f41304fac000000000000000000000000000000000000000000000000000000007bffffffffffffffffffffffffffffffffffffffffffffffffffffffff19166020820180517bffffffffffffffffffffffffffffffffffffffffffffffffffffffff8381831617835250505050612c2e565b50565b6123bf613367565b60006123dd8560000151866020015186600001518760200151612ae4565b905084602001518360200181815250508460200151816123fd91906145ed565b8360000181815250508460000151856020015161241a919061439b565b811415612431576000856000018181525050612477565b83600001518360000151612445919061439b565b8560000181815161245691906145ed565b9150818152505083600001518161246d919061439b565b8560200181815250505b829150509392505050565b61248a613367565b6124958383836123b7565b5092915050565b60606000826000015167ffffffffffffffff8111156124be576124bd6148de565b5b6040519080825280601f01601f1916602001820160405280156124f05781602001600182028036833780820191505090505b509050600060208201905061250e8185602001518660000151612c57565b8192505050919050565b60006125398473ffffffffffffffffffffffffffffffffffffffff16612d03565b156126a2578373ffffffffffffffffffffffffffffffffffffffff1663150b7a02612562611502565b8786866040518563ffffffff1660e01b81526004016125849493929190613df5565b602060405180830381600087803b15801561259e57600080fd5b505af19250505080156125cf57506040513d601f19601f820116820180604052508101906125cc91906137d8565b60015b612652573d80600081146125ff576040519150601f19603f3d011682016040523d82523d6000602084013e612604565b606091505b5060008151141561264a576040517f08c379a000000000000000000000000000000000000000000000000000000000815260040161264190614036565b60405180910390fd5b805181602001fd5b63150b7a0260e01b7bffffffffffffffffffffffffffffffffffffffffffffffffffffffff1916817bffffffffffffffffffffffffffffffffffffffffffffffffffffffff1916149150506126a7565b600190505b949350505050565b606060008214156126f7576040518060400160405280600181526020017f3000000000000000000000000000000000000000000000000000000000000000815250905061280b565b600082905060005b600082146127295780806127129061477a565b915050600a8261272291906143f1565b91506126ff565b60008167ffffffffffffffff811115612745576127446148de565b5b6040519080825280601f01601f1916602001820160405280156127775781602001600182028036833780820191505090505b5090505b600085146128045760018261279091906145ed565b9150600a8561279f91906147f1565b60306127ab919061439b565b60f81b8183815181106127c1576127c06148af565b5b60200101907effffffffffffffffffffffffffffffffffffffffffffffffffffffffffffff1916908160001a905350600a856127fd91906143f1565b945061277b565b8093505050505b919050565b61281a8383612d26565b6128276000848484612518565b612866576040517f08c379a000000000000000000000000000000000000000000000000000000000815260040161285d90614036565b60405180910390fd5b505050565b612873613381565b6128838560800151610100612f00565b508385600001818152505082856020019073ffffffffffffffffffffffffffffffffffffffff16908173ffffffffffffffffffffffffffffffffffffffff16815250508185604001907bffffffffffffffffffffffffffffffffffffffffffffffffffffffff191690817bffffffffffffffffffffffffffffffffffffffffffffffffffffffff191681525050849050949350505050565b6129288260038351612f6a565b61293b81836130ef90919063ffffffff16565b505050565b60003084604051602001612955929190613d25565b604051602081830303815290604052805190602001209050846005600083815260200190815260200160002060006101000a81548173ffffffffffffffffffffffffffffffffffffffff021916908373ffffffffffffffffffffffffffffffffffffffff160217905550807fb5e6e01e79f91267dc17b4e6314d5d4d03593d2ceee0fbb452b750bd70ea5af960405160405180910390a2600260009054906101000a900473ffffffffffffffffffffffffffffffffffffffff1673ffffffffffffffffffffffffffffffffffffffff16634000aea08685856040518463ffffffff1660e01b8152600401612a4b93929190613f42565b602060405180830381600087803b158015612a6557600080fd5b505af1158015612a79573d6000803e3d6000fd5b505050506040513d601f19601f82011682018060405250810190612a9d919061373e565b612adc576040517f08c379a0000000000000000000000000000000000000000000000000000000008152600401612ad390614096565b60405180910390fd5b949350505050565b6000808490506000868511612c155760208511612bb757600080861115612b3d576001866020612b1491906145ed565b6008612b209190614593565b6002612b2c9190614475565b612b3691906145ed565b1960001b90505b60008186511690506000878a8a612b54919061439b565b612b5e91906145ed565b905060008386511690505b828114612ba957818610612b90578a8a612b83919061439b565b9650505050505050612c26565b8580612b9b9061477a565b965050838651169050612b69565b859650505050505050612c26565b60008585209050600091505b8588612bcf91906145ed565b8211612c13576000868420905080821415612bf05783945050505050612c26565b600184612bfd919061439b565b9350508180612c0b9061477a565b925050612bc3565b505b8686612c21919061439b565b925050505b949350505050565b60008151905060006a636f6e736f6c652e6c6f679050602083016000808483855afa5050505050565b5b60208110612c965781518352602083612c71919061439b565b9250602082612c80919061439b565b9150602081612c8f91906145ed565b9050612c58565b60007fffffffffffffffffffffffffffffffffffffffffffffffffffffffffffffffff90506000821115612ced576001826020612cd391906145ed565b610100612ce09190614475565b612cea91906145ed565b90505b8019835116818551168181178652505050505050565b6000808273ffffffffffffffffffffffffffffffffffffffff163b119050919050565b600073ffffffffffffffffffffffffffffffffffffffff168273ffffffffffffffffffffffffffffffffffffffff161415612d96576040517f08c379a0000000000000000000000000000000000000000000000000000000008152600401612d8d906141d6565b60405180910390fd5b612d9f81611496565b15612ddf576040517f08c379a0000000000000000000000000000000000000000000000000000000008152600401612dd690614076565b60405180910390fd5b612deb6000838361223e565b6001600960008473ffffffffffffffffffffffffffffffffffffffff1673ffffffffffffffffffffffffffffffffffffffff1681526020019081526020016000206000828254612e3b919061439b565b92505081905550816008600083815260200190815260200160002060006101000a81548173ffffffffffffffffffffffffffffffffffffffff021916908373ffffffffffffffffffffffffffffffffffffffff160217905550808273ffffffffffffffffffffffffffffffffffffffff16600073ffffffffffffffffffffffffffffffffffffffff167fddf252ad1be2c89b69c2b068fc378daa952ba7f163c4a11628f55a4df523b3ef60405160405180910390a4612efc60008383612243565b5050565b612f086133ee565b6000602083612f1791906147f1565b14612f4357602082612f2991906147f1565b6020612f3591906145ed565b82612f40919061439b565b91505b81836020018181525050604051808452600081528281016020016040525082905092915050565b60178167ffffffffffffffff1611612fa157612f9b8160058460ff16901b60ff16178461311190919063ffffffff16565b506130ea565b60ff8167ffffffffffffffff1611612ff757612fd0601860058460ff16901b178461311190919063ffffffff16565b50612ff18167ffffffffffffffff166001856131319092919063ffffffff16565b506130e9565b61ffff8167ffffffffffffffff161161304e57613027601960058460ff16901b178461311190919063ffffffff16565b506130488167ffffffffffffffff166002856131319092919063ffffffff16565b506130e8565b63ffffffff8167ffffffffffffffff16116130a757613080601a60058460ff16901b178461311190919063ffffffff16565b506130a18167ffffffffffffffff166004856131319092919063ffffffff16565b506130e7565b6130c4601b60058460ff16901b178461311190919063ffffffff16565b506130e58167ffffffffffffffff166008856131319092919063ffffffff16565b505b5b5b5b505050565b6130f76133ee565b61310983846000015151848551613153565b905092915050565b6131196133ee565b6131298384600001515184613242565b905092915050565b6131396133ee565b61314a848560000151518585613299565b90509392505050565b61315b6133ee565b825182111561316957600080fd5b8460200151828561317a919061439b565b11156131af576131ae85600261319f8860200151888761319a919061439b565b613327565b6131a99190614593565b613343565b5b6000808651805187602083010193508088870111156131ce5787860182525b60208701925050505b6020841061321557805182526020826131f0919061439b565b91506020816131ff919061439b565b905060208461320e91906145ed565b93506131d7565b60006001856020036101000a03905080198251168184511681811785525050508692505050949350505050565b61324a6133ee565b836020015183106132705761326f846002866020015161326a9190614593565b613343565b5b835180516020858301018481538186141561328c576001820183525b5050508390509392505050565b6132a16133ee565b846020015184836132b2919061439b565b11156132da576132d985600286856132ca919061439b565b6132d49190614593565b613343565b5b60006001836101006132ec9190614475565b6132f691906145ed565b905085518386820101858319825116178152815185880111156133195784870182525b505085915050949350505050565b6000818311156133395782905061333d565b8190505b92915050565b6000826000015190506133568383612f00565b5061336183826130ef565b50505050565b604051806040016040528060008152602001600081525090565b6040518060a0016040528060008019168152602001600073ffffffffffffffffffffffffffffffffffffffff16815260200160007bffffffffffffffffffffffffffffffffffffffffffffffffffffffff19168152602001600081526020016133e86133ee565b81525090565b604051806040016040528060608152602001600081525090565b600061341b613416846142f6565b6142d1565b90508281526020810184848401111561343757613436614912565b5b6134428482856146d5565b509392505050565b600061345d61345884614327565b6142d1565b90508281526020810184848401111561347957613478614912565b5b6134848482856146d5565b509392505050565b60008135905061349b81614fb0565b92915050565b6000813590506134b081614fc7565b92915050565b6000815190506134c581614fc7565b92915050565b6000813590506134da81614fde565b92915050565b6000813590506134ef81614ff5565b92915050565b60008151905061350481614ff5565b92915050565b600082601f83011261351f5761351e61490d565b5b813561352f848260208601613408565b91505092915050565b600082601f83011261354d5761354c61490d565b5b813561355d84826020860161344a565b91505092915050565b6000813590506135758161500c565b92915050565b6000602082840312156135915761359061491c565b5b600061359f8482850161348c565b91505092915050565b600080604083850312156135bf576135be61491c565b5b60006135cd8582860161348c565b92505060206135de8582860161348c565b9150509250929050565b6000806000606084860312156136015761360061491c565b5b600061360f8682870161348c565b93505060206136208682870161348c565b925050604061363186828701613566565b9150509250925092565b600080600080608085870312156136555761365461491c565b5b60006136638782880161348c565b94505060206136748782880161348c565b935050604061368587828801613566565b925050606085013567ffffffffffffffff8111156136a6576136a5614917565b5b6136b28782880161350a565b91505092959194509250565b600080604083850312156136d5576136d461491c565b5b60006136e38582860161348c565b92505060206136f4858286016134a1565b9150509250929050565b600080604083850312156137155761371461491c565b5b60006137238582860161348c565b925050602061373485828601613566565b9150509250929050565b6000602082840312156137545761375361491c565b5b6000613762848285016134b6565b91505092915050565b600080604083850312156137825761378161491c565b5b6000613790858286016134cb565b92505060206137a1858286016134a1565b9150509250929050565b6000602082840312156137c1576137c061491c565b5b60006137cf848285016134e0565b91505092915050565b6000602082840312156137ee576137ed61491c565b5b60006137fc848285016134f5565b91505092915050565b60006020828403121561381b5761381a61491c565b5b600082013567ffffffffffffffff81111561383957613838614917565b5b61384584828501613538565b91505092915050565b6000602082840312156138645761386361491c565b5b600061387284828501613566565b91505092915050565b61388481614621565b82525050565b61389381614633565b82525050565b6138a28161463f565b82525050565b6138b181614649565b82525050565b60006138c282614358565b6138cc818561436e565b93506138dc8185602086016146e4565b6138e581614921565b840191505092915050565b6139016138fc8261469f565b6147c3565b82525050565b600061391282614363565b61391c818561437f565b935061392c8185602086016146e4565b61393581614921565b840191505092915050565b600061394b82614363565b6139558185614390565b93506139658185602086016146e4565b80840191505092915050565b600061397e60188361437f565b91506139898261494c565b602082019050919050565b60006139a160328361437f565b91506139ac82614975565b604082019050919050565b60006139c460258361437f565b91506139cf826149c4565b604082019050919050565b60006139e7601c8361437f565b91506139f282614a13565b602082019050919050565b6000613a0a601383614390565b9150613a1582614a3c565b601382019050919050565b6000613a2d60238361437f565b9150613a3882614a65565b604082019050919050565b6000613a5060248361437f565b9150613a5b82614ab4565b604082019050919050565b6000613a7360198361437f565b9150613a7e82614b03565b602082019050919050565b6000613a96600c8361437f565b9150613aa182614b2c565b602082019050919050565b6000613ab9600383614390565b9150613ac482614b55565b600382019050919050565b6000613adc602c8361437f565b9150613ae782614b7e565b604082019050919050565b6000613aff60388361437f565b9150613b0a82614bcd565b604082019050919050565b6000613b22600f8361437f565b9150613b2d82614c1c565b602082019050919050565b6000613b45602a8361437f565b9150613b5082614c45565b604082019050919050565b6000613b6860298361437f565b9150613b7382614c94565b604082019050919050565b6000613b8b601d8361437f565b9150613b9682614ce3565b602082019050919050565b6000613bae60208361437f565b9150613bb982614d0c565b602082019050919050565b6000613bd160318361437f565b9150613bdc82614d35565b604082019050919050565b6000613bf4602c8361437f565b9150613bff82614d84565b604082019050919050565b6000613c17602f8361437f565b9150613c2282614dd3565b604082019050919050565b6000613c3a602783614390565b9150613c4582614e22565b602782019050919050565b6000613c5d60218361437f565b9150613c6882614e71565b604082019050919050565b6000613c80600d83614390565b9150613c8b82614ec0565b600d82019050919050565b6000613ca3601d83614390565b9150613cae82614ee9565b601d82019050919050565b6000613cc660318361437f565b9150613cd182614f12565b604082019050919050565b6000613ce960288361437f565b9150613cf482614f61565b604082019050919050565b613d0881614695565b82525050565b613d1f613d1a82614695565b6147e7565b82525050565b6000613d3182856138f0565b601482019150613d418284613d0e565b6020820191508190509392505050565b6000613d5d8285613940565b9150613d698284613940565b91508190509392505050565b6000613d80826139fd565b9150613d8b82613c2d565b9150613d9682613c73565b9150613da28284613940565b9150613dad82613aac565b915081905092915050565b6000613dc382613c96565b9150613dcf8284613940565b915081905092915050565b6000602082019050613def600083018461387b565b92915050565b6000608082019050613e0a600083018761387b565b613e17602083018661387b565b613e246040830185613cff565b8181036060830152613e3681846138b7565b905095945050505050565b6000606082019050613e56600083018661387b565b613e636020830185613899565b613e70604083018461388a565b949350505050565b6000606082019050613e8d600083018661387b565b8181036020830152613e9f8185613907565b90508181036040830152613eb38184613907565b9050949350505050565b600061010082019050613ed3600083018b61387b565b613ee0602083018a613cff565b613eed6040830189613899565b613efa606083018861387b565b613f0760808301876138a8565b613f1460a0830186613cff565b613f2160c0830185613cff565b81810360e0830152613f3381846138b7565b90509998505050505050505050565b6000606082019050613f57600083018661387b565b613f646020830185613cff565b8181036040830152613f7681846138b7565b9050949350505050565b6000606082019050613f95600083018661387b565b613fa26020830185613cff565b8181036040830152613fb48184613907565b9050949350505050565b6000602082019050613fd3600083018461388a565b92915050565b6000602082019050613fee6000830184613899565b92915050565b6000602082019050818103600083015261400e8184613907565b905092915050565b6000602082019050818103600083015261402f81613971565b9050919050565b6000602082019050818103600083015261404f81613994565b9050919050565b6000602082019050818103600083015261406f816139b7565b9050919050565b6000602082019050818103600083015261408f816139da565b9050919050565b600060208201905081810360008301526140af81613a20565b9050919050565b600060208201905081810360008301526140cf81613a43565b9050919050565b600060208201905081810360008301526140ef81613a66565b9050919050565b6000602082019050818103600083015261410f81613a89565b9050919050565b6000602082019050818103600083015261412f81613acf565b9050919050565b6000602082019050818103600083015261414f81613af2565b9050919050565b6000602082019050818103600083015261416f81613b15565b9050919050565b6000602082019050818103600083015261418f81613b38565b9050919050565b600060208201905081810360008301526141af81613b5b565b9050919050565b600060208201905081810360008301526141cf81613b7e565b9050919050565b600060208201905081810360008301526141ef81613ba1565b9050919050565b6000602082019050818103600083015261420f81613bc4565b9050919050565b6000602082019050818103600083015261422f81613be7565b9050919050565b6000602082019050818103600083015261424f81613c0a565b9050919050565b6000602082019050818103600083015261426f81613c50565b9050919050565b6000602082019050818103600083015261428f81613cb9565b9050919050565b600060208201905081810360008301526142af81613cdc565b9050919050565b60006020820190506142cb6000830184613cff565b92915050565b60006142db6142ec565b90506142e78282614749565b919050565b6000604051905090565b600067ffffffffffffffff821115614311576143106148de565b5b61431a82614921565b9050602081019050919050565b600067ffffffffffffffff821115614342576143416148de565b5b61434b82614921565b9050602081019050919050565b600081519050919050565b600081519050919050565b600082825260208201905092915050565b600082825260208201905092915050565b600081905092915050565b60006143a682614695565b91506143b183614695565b9250827fffffffffffffffffffffffffffffffffffffffffffffffffffffffffffffffff038211156143e6576143e5614822565b5b828201905092915050565b60006143fc82614695565b915061440783614695565b92508261441757614416614851565b5b828204905092915050565b6000808291508390505b600185111561446c5780860481111561444857614447614822565b5b60018516156144575780820291505b80810290506144658561493f565b945061442c565b94509492505050565b600061448082614695565b915061448b83614695565b92506144b87fffffffffffffffffffffffffffffffffffffffffffffffffffffffffffffffff84846144c0565b905092915050565b6000826144d0576001905061458c565b816144de576000905061458c565b81600181146144f457600281146144fe5761452d565b600191505061458c565b60ff8411156145105761450f614822565b5b8360020a91508482111561452757614526614822565b5b5061458c565b5060208310610133831016604e8410600b84101617156145625782820a90508381111561455d5761455c614822565b5b61458c565b61456f8484846001614422565b9250905081840481111561458657614585614822565b5b81810290505b9392505050565b600061459e82614695565b91506145a983614695565b9250817fffffffffffffffffffffffffffffffffffffffffffffffffffffffffffffffff04831182151516156145e2576145e1614822565b5b828202905092915050565b60006145f882614695565b915061460383614695565b92508282101561461657614615614822565b5b828203905092915050565b600061462c82614675565b9050919050565b60008115159050919050565b6000819050919050565b60007fffffffff0000000000000000000000000000000000000000000000000000000082169050919050565b600073ffffffffffffffffffffffffffffffffffffffff82169050919050565b6000819050919050565b60006146aa826146b1565b9050919050565b60006146bc826146c3565b9050919050565b60006146ce82614675565b9050919050565b82818337600083830152505050565b60005b838110156147025780820151818401526020810190506146e7565b83811115614711576000848401525b50505050565b6000600282049050600182168061472f57607f821691505b6020821081141561474357614742614880565b5b50919050565b61475282614921565b810181811067ffffffffffffffff82111715614771576147706148de565b5b80604052505050565b600061478582614695565b91507fffffffffffffffffffffffffffffffffffffffffffffffffffffffffffffffff8214156147b8576147b7614822565b5b600182019050919050565b60006147ce826147d5565b9050919050565b60006147e082614932565b9050919050565b6000819050919050565b60006147fc82614695565b915061480783614695565b92508261481757614816614851565b5b828206905092915050565b7f4e487b7100000000000000000000000000000000000000000000000000000000600052601160045260246000fd5b7f4e487b7100000000000000000000000000000000000000000000000000000000600052601260045260246000fd5b7f4e487b7100000000000000000000000000000000000000000000000000000000600052602260045260246000fd5b7f4e487b7100000000000000000000000000000000000000000000000000000000600052603260045260246000fd5b7f4e487b7100000000000000000000000000000000000000000000000000000000600052604160045260246000fd5b600080fd5b600080fd5b600080fd5b600080fd5b6000601f19601f8301169050919050565b60008160601b9050919050565b60008160011c9050919050565b7f446f6d61696e20616c72656164792076657269666965642e0000000000000000600082015250565b7f4552433732313a207472616e7366657220746f206e6f6e20455243373231526560008201527f63656976657220696d706c656d656e7465720000000000000000000000000000602082015250565b7f4552433732313a207472616e736665722066726f6d20696e636f72726563742060008201527f6f776e6572000000000000000000000000000000000000000000000000000000602082015250565b7f4552433732313a20746f6b656e20616c7265616479206d696e74656400000000600082015250565b7f7b20226e616d65223a22535647204e4654222000000000000000000000000000600082015250565b7f756e61626c6520746f207472616e73666572416e6443616c6c20746f206f726160008201527f636c650000000000000000000000000000000000000000000000000000000000602082015250565b7f4552433732313a207472616e7366657220746f20746865207a65726f2061646460008201527f7265737300000000000000000000000000000000000000000000000000000000602082015250565b7f4552433732313a20617070726f766520746f2063616c6c657200000000000000600082015250565b7f496e76616c69642055524c2e0000000000000000000000000000000000000000600082015250565b7f22207d0000000000000000000000000000000000000000000000000000000000600082015250565b7f4552433732313a206f70657261746f7220717565727920666f72206e6f6e657860008201527f697374656e7420746f6b656e0000000000000000000000000000000000000000602082015250565b7f4552433732313a20617070726f76652063616c6c6572206973206e6f74206f7760008201527f6e6572206e6f7220617070726f76656420666f7220616c6c0000000000000000602082015250565b7f496e76616c696420646f6d61696e2e0000000000000000000000000000000000600082015250565b7f4552433732313a2062616c616e636520717565727920666f7220746865207a6560008201527f726f206164647265737300000000000000000000000000000000000000000000602082015250565b7f4552433732313a206f776e657220717565727920666f72206e6f6e657869737460008201527f656e7420746f6b656e0000000000000000000000000000000000000000000000602082015250565b7f41646472657373206469646e27742076657269667920646f6d61696e2e000000600082015250565b7f4552433732313a206d696e7420746f20746865207a65726f2061646472657373600082015250565b7f45524337323155524953746f726167653a2055524920717565727920666f722060008201527f6e6f6e6578697374656e7420746f6b656e000000000000000000000000000000602082015250565b7f4552433732313a20617070726f76656420717565727920666f72206e6f6e657860008201527f697374656e7420746f6b656e0000000000000000000000000000000000000000602082015250565b7f4552433732314d657461646174613a2055524920717565727920666f72206e6f60008201527f6e6578697374656e7420746f6b656e0000000000000000000000000000000000602082015250565b7f2c20226465736372697074696f6e223a22416e204e4654206261736564206f6e60008201527f2053564721222000000000000000000000000000000000000000000000000000602082015250565b7f4552433732313a20617070726f76616c20746f2063757272656e74206f776e6560008201527f7200000000000000000000000000000000000000000000000000000000000000602082015250565b7f2c2022696d616765223a222c2000000000000000000000000000000000000000600082015250565b7f646174613a6170706c69636174696f6e2f6a736f6e3b6261736536342c000000600082015250565b7f4552433732313a207472616e736665722063616c6c6572206973206e6f74206f60008201527f776e6572206e6f7220617070726f766564000000000000000000000000000000602082015250565b7f536f75726365206d75737420626520746865206f7261636c65206f662074686560008201527f2072657175657374000000000000000000000000000000000000000000000000602082015250565b614fb981614621565b8114614fc457600080fd5b50565b614fd081614633565b8114614fdb57600080fd5b50565b614fe78161463f565b8114614ff257600080fd5b50565b614ffe81614649565b811461500957600080fd5b50565b61501581614695565b811461502057600080fd5b5056fe446f6d61696e20636f6e7461696e7320696e76616c69642063686172616374657220272f274142434445464748494a4b4c4d4e4f505152535455565758595a6162636465666768696a6b6c6d6e6f707172737475767778797a303132333435363738392b2f446f6d61696e20636f6e7461696e7320746f6f206d616e7920272e272063686172616374657273a2646970667358221220cc3522124e75b50a36490fbe83f75e845aa90f25c1b2749b42e0dfa4581bd76764736f6c63430008070033",
  "devdoc": {
    "kind": "dev",
    "methods": {
      "approve(address,uint256)": {
        "details": "See {IERC721-approve}."
      },
      "balanceOf(address)": {
        "details": "See {IERC721-balanceOf}."
      },
      "getApproved(uint256)": {
        "details": "See {IERC721-getApproved}."
      },
      "isApprovedForAll(address,address)": {
        "details": "See {IERC721-isApprovedForAll}."
      },
      "name()": {
        "details": "See {IERC721Metadata-name}."
      },
      "ownerOf(uint256)": {
        "details": "See {IERC721-ownerOf}."
      },
      "safeTransferFrom(address,address,uint256)": {
        "details": "See {IERC721-safeTransferFrom}."
      },
      "safeTransferFrom(address,address,uint256,bytes)": {
        "details": "See {IERC721-safeTransferFrom}."
      },
      "setApprovalForAll(address,bool)": {
        "details": "See {IERC721-setApprovalForAll}."
      },
      "supportsInterface(bytes4)": {
        "details": "See {IERC165-supportsInterface}."
      },
      "symbol()": {
        "details": "See {IERC721Metadata-symbol}."
      },
      "tokenURI(uint256)": {
        "details": "See {IERC721Metadata-tokenURI}."
      },
      "transferFrom(address,address,uint256)": {
        "details": "See {IERC721-transferFrom}."
      }
    },
    "version": 1
  },
  "userdoc": {
    "kind": "user",
    "methods": {},
    "version": 1
  },
  "storageLayout": {
    "storage": [
      {
        "astId": 319,
        "contract": "contracts/PulitzerContract.sol:PulitzerContract",
        "label": "s_ens",
        "offset": 0,
        "slot": "0",
        "type": "t_contract(ENSInterface)974"
      },
      {
        "astId": 321,
        "contract": "contracts/PulitzerContract.sol:PulitzerContract",
        "label": "s_ensNode",
        "offset": 0,
        "slot": "1",
        "type": "t_bytes32"
      },
      {
        "astId": 324,
        "contract": "contracts/PulitzerContract.sol:PulitzerContract",
        "label": "s_link",
        "offset": 0,
        "slot": "2",
        "type": "t_contract(LinkTokenInterface)1069"
      },
      {
        "astId": 327,
        "contract": "contracts/PulitzerContract.sol:PulitzerContract",
        "label": "s_oracle",
        "offset": 0,
        "slot": "3",
        "type": "t_contract(OperatorInterface)1149"
      },
      {
        "astId": 330,
        "contract": "contracts/PulitzerContract.sol:PulitzerContract",
        "label": "s_requestCount",
        "offset": 0,
        "slot": "4",
        "type": "t_uint256"
      },
      {
        "astId": 334,
        "contract": "contracts/PulitzerContract.sol:PulitzerContract",
        "label": "s_pendingRequests",
        "offset": 0,
        "slot": "5",
        "type": "t_mapping(t_bytes32,t_address)"
      },
      {
        "astId": 2201,
        "contract": "contracts/PulitzerContract.sol:PulitzerContract",
        "label": "_name",
        "offset": 0,
        "slot": "6",
        "type": "t_string_storage"
      },
      {
        "astId": 2203,
        "contract": "contracts/PulitzerContract.sol:PulitzerContract",
        "label": "_symbol",
        "offset": 0,
        "slot": "7",
        "type": "t_string_storage"
      },
      {
        "astId": 2207,
        "contract": "contracts/PulitzerContract.sol:PulitzerContract",
        "label": "_owners",
        "offset": 0,
        "slot": "8",
        "type": "t_mapping(t_uint256,t_address)"
      },
      {
        "astId": 2211,
        "contract": "contracts/PulitzerContract.sol:PulitzerContract",
        "label": "_balances",
        "offset": 0,
        "slot": "9",
        "type": "t_mapping(t_address,t_uint256)"
      },
      {
        "astId": 2215,
        "contract": "contracts/PulitzerContract.sol:PulitzerContract",
        "label": "_tokenApprovals",
        "offset": 0,
        "slot": "10",
        "type": "t_mapping(t_uint256,t_address)"
      },
      {
        "astId": 2221,
        "contract": "contracts/PulitzerContract.sol:PulitzerContract",
        "label": "_operatorApprovals",
        "offset": 0,
        "slot": "11",
        "type": "t_mapping(t_address,t_mapping(t_address,t_bool))"
      },
      {
        "astId": 3188,
        "contract": "contracts/PulitzerContract.sol:PulitzerContract",
        "label": "_tokenURIs",
        "offset": 0,
        "slot": "12",
        "type": "t_mapping(t_uint256,t_string_storage)"
      },
      {
        "astId": 3981,
        "contract": "contracts/PulitzerContract.sol:PulitzerContract",
        "label": "verifiedDomains",
        "offset": 0,
        "slot": "13",
        "type": "t_mapping(t_address,t_array(t_bytes32)dyn_storage)"
      },
      {
        "astId": 3986,
        "contract": "contracts/PulitzerContract.sol:PulitzerContract",
        "label": "verificationQueue",
        "offset": 0,
        "slot": "14",
        "type": "t_mapping(t_bytes32,t_struct(DomainRequest)3976_storage)"
      },
      {
        "astId": 3988,
        "contract": "contracts/PulitzerContract.sol:PulitzerContract",
        "label": "oracle",
        "offset": 0,
        "slot": "15",
        "type": "t_address"
      },
      {
        "astId": 3990,
        "contract": "contracts/PulitzerContract.sol:PulitzerContract",
        "label": "jobId",
        "offset": 0,
        "slot": "16",
        "type": "t_bytes32"
      },
      {
        "astId": 3992,
        "contract": "contracts/PulitzerContract.sol:PulitzerContract",
        "label": "fee",
        "offset": 0,
        "slot": "17",
        "type": "t_uint256"
      },
      {
        "astId": 3994,
        "contract": "contracts/PulitzerContract.sol:PulitzerContract",
        "label": "tokenCounter",
        "offset": 0,
        "slot": "18",
        "type": "t_uint256"
      }
    ],
    "types": {
      "t_address": {
        "encoding": "inplace",
        "label": "address",
        "numberOfBytes": "20"
      },
      "t_array(t_bytes32)dyn_storage": {
        "base": "t_bytes32",
        "encoding": "dynamic_array",
        "label": "bytes32[]",
        "numberOfBytes": "32"
      },
      "t_bool": {
        "encoding": "inplace",
        "label": "bool",
        "numberOfBytes": "1"
      },
      "t_bytes32": {
        "encoding": "inplace",
        "label": "bytes32",
        "numberOfBytes": "32"
      },
      "t_contract(ENSInterface)974": {
        "encoding": "inplace",
        "label": "contract ENSInterface",
        "numberOfBytes": "20"
      },
      "t_contract(LinkTokenInterface)1069": {
        "encoding": "inplace",
        "label": "contract LinkTokenInterface",
        "numberOfBytes": "20"
      },
      "t_contract(OperatorInterface)1149": {
        "encoding": "inplace",
        "label": "contract OperatorInterface",
        "numberOfBytes": "20"
      },
      "t_mapping(t_address,t_array(t_bytes32)dyn_storage)": {
        "encoding": "mapping",
        "key": "t_address",
        "label": "mapping(address => bytes32[])",
        "numberOfBytes": "32",
        "value": "t_array(t_bytes32)dyn_storage"
      },
      "t_mapping(t_address,t_bool)": {
        "encoding": "mapping",
        "key": "t_address",
        "label": "mapping(address => bool)",
        "numberOfBytes": "32",
        "value": "t_bool"
      },
      "t_mapping(t_address,t_mapping(t_address,t_bool))": {
        "encoding": "mapping",
        "key": "t_address",
        "label": "mapping(address => mapping(address => bool))",
        "numberOfBytes": "32",
        "value": "t_mapping(t_address,t_bool)"
      },
      "t_mapping(t_address,t_uint256)": {
        "encoding": "mapping",
        "key": "t_address",
        "label": "mapping(address => uint256)",
        "numberOfBytes": "32",
        "value": "t_uint256"
      },
      "t_mapping(t_bytes32,t_address)": {
        "encoding": "mapping",
        "key": "t_bytes32",
        "label": "mapping(bytes32 => address)",
        "numberOfBytes": "32",
        "value": "t_address"
      },
      "t_mapping(t_bytes32,t_struct(DomainRequest)3976_storage)": {
        "encoding": "mapping",
        "key": "t_bytes32",
        "label": "mapping(bytes32 => struct PulitzerContract.DomainRequest)",
        "numberOfBytes": "32",
        "value": "t_struct(DomainRequest)3976_storage"
      },
      "t_mapping(t_uint256,t_address)": {
        "encoding": "mapping",
        "key": "t_uint256",
        "label": "mapping(uint256 => address)",
        "numberOfBytes": "32",
        "value": "t_address"
      },
      "t_mapping(t_uint256,t_string_storage)": {
        "encoding": "mapping",
        "key": "t_uint256",
        "label": "mapping(uint256 => string)",
        "numberOfBytes": "32",
        "value": "t_string_storage"
      },
      "t_string_storage": {
        "encoding": "bytes",
        "label": "string",
        "numberOfBytes": "32"
      },
      "t_struct(DomainRequest)3976_storage": {
        "encoding": "inplace",
        "label": "struct PulitzerContract.DomainRequest",
        "members": [
          {
            "astId": 3973,
            "contract": "contracts/PulitzerContract.sol:PulitzerContract",
            "label": "requester",
            "offset": 0,
            "slot": "0",
            "type": "t_address"
          },
          {
            "astId": 3975,
            "contract": "contracts/PulitzerContract.sol:PulitzerContract",
            "label": "domainHash",
            "offset": 0,
            "slot": "1",
            "type": "t_bytes32"
          }
        ],
        "numberOfBytes": "64"
      },
      "t_uint256": {
        "encoding": "inplace",
        "label": "uint256",
        "numberOfBytes": "32"
      }
    }
  }
}